{
  "contracts/Manager.sol": {
    "FootballManagers": {
      "abi": [
        {
          "anonymous": false,
          "inputs": [
            {
              "indexed": true,
              "internalType": "address",
              "name": "managerAddress",
              "type": "address"
            },
            {
              "indexed": false,
              "internalType": "string",
              "name": "name",
              "type": "string"
            }
          ],
          "name": "ManagerAdded",
          "type": "event"
        },
        {
          "anonymous": false,
          "inputs": [
            {
              "indexed": true,
              "internalType": "address",
              "name": "managerAddress",
              "type": "address"
            },
            {
              "indexed": false,
              "internalType": "uint256",
              "name": "tacticalAbility",
              "type": "uint256"
            },
            {
              "indexed": false,
              "internalType": "uint256",
              "name": "playerManagement",
              "type": "uint256"
            },
            {
              "indexed": false,
              "internalType": "uint256",
              "name": "youngPlayerDevelopment",
              "type": "uint256"
            }
          ],
          "name": "ManagerSkillsImproved",
          "type": "event"
        },
        {
          "anonymous": false,
          "inputs": [
            {
              "indexed": true,
              "internalType": "address",
              "name": "managerAddress",
              "type": "address"
            },
            {
              "indexed": false,
              "internalType": "string",
              "name": "name",
              "type": "string"
            }
          ],
          "name": "ManagerUpdated",
          "type": "event"
        },
        {
          "inputs": [],
          "name": "DEFAULT_SKILL_VALUE",
          "outputs": [
            {
              "internalType": "uint256",
              "name": "",
              "type": "uint256"
            }
          ],
          "stateMutability": "view",
          "type": "function"
        },
        {
          "inputs": [
            {
              "internalType": "uint256",
              "name": "_teamId",
              "type": "uint256"
            }
          ],
          "name": "addManagedTeam",
          "outputs": [],
          "stateMutability": "nonpayable",
          "type": "function"
        },
        {
          "inputs": [
            {
              "internalType": "string",
              "name": "_name",
              "type": "string"
            },
            {
              "internalType": "uint256",
              "name": "_age",
              "type": "uint256"
            },
            {
              "internalType": "string",
              "name": "_nationality",
              "type": "string"
            },
            {
              "internalType": "uint256",
              "name": "_experience",
              "type": "uint256"
            },
            {
              "internalType": "string[]",
              "name": "_preferredFormations",
              "type": "string[]"
            },
            {
              "internalType": "string",
              "name": "_preferredPlayingStyle",
              "type": "string"
            },
            {
              "internalType": "string[]",
              "name": "_specialties",
              "type": "string[]"
            }
          ],
          "name": "addManager",
          "outputs": [],
          "stateMutability": "nonpayable",
          "type": "function"
        },
        {
          "inputs": [
            {
              "internalType": "string",
              "name": "_newSpecialty",
              "type": "string"
            }
          ],
          "name": "addSpecialty",
          "outputs": [],
          "stateMutability": "nonpayable",
          "type": "function"
        },
        {
          "inputs": [
            {
              "internalType": "uint256",
              "name": "_trophyId",
              "type": "uint256"
            }
          ],
          "name": "addTrophyToManager",
          "outputs": [],
          "stateMutability": "nonpayable",
          "type": "function"
        },
        {
          "inputs": [
            {
              "internalType": "address",
              "name": "_manager1",
              "type": "address"
            },
            {
              "internalType": "address",
              "name": "_manager2",
              "type": "address"
            }
          ],
          "name": "compareManagers",
          "outputs": [
            {
              "internalType": "address",
              "name": "",
              "type": "address"
            }
          ],
          "stateMutability": "view",
          "type": "function"
        },
        {
          "inputs": [
            {
              "internalType": "address",
              "name": "_managerAddress",
              "type": "address"
            }
          ],
          "name": "getManager",
          "outputs": [
            {
              "components": [
                {
                  "components": [
                    {
                      "internalType": "string",
                      "name": "name",
                      "type": "string"
                    },
                    {
                      "internalType": "uint256",
                      "name": "age",
                      "type": "uint256"
                    },
                    {
                      "internalType": "string",
                      "name": "nationality",
                      "type": "string"
                    }
                  ],
                  "internalType": "struct FootballManagers.PersonalInfo",
                  "name": "personalInfo",
                  "type": "tuple"
                },
                {
                  "components": [
                    {
                      "internalType": "uint256",
                      "name": "tacticalAbility",
                      "type": "uint256"
                    },
                    {
                      "internalType": "uint256",
                      "name": "playerManagement",
                      "type": "uint256"
                    },
                    {
                      "internalType": "uint256",
                      "name": "youngPlayerDevelopment",
                      "type": "uint256"
                    },
                    {
                      "internalType": "uint256",
                      "name": "motivationAbility",
                      "type": "uint256"
                    },
                    {
                      "internalType": "uint256",
                      "name": "disciplineManagement",
                      "type": "uint256"
                    },
                    {
                      "internalType": "uint256",
                      "name": "financialManagement",
                      "type": "uint256"
                    },
                    {
                      "internalType": "uint256",
                      "name": "mediaHandling",
                      "type": "uint256"
                    }
                  ],
                  "internalType": "struct FootballManagers.ManagerialSkills",
                  "name": "skills",
                  "type": "tuple"
                },
                {
                  "components": [
                    {
                      "internalType": "uint256",
                      "name": "experience",
                      "type": "uint256"
                    },
                    {
                      "internalType": "uint256",
                      "name": "reputation",
                      "type": "uint256"
                    },
                    {
                      "internalType": "uint256[]",
                      "name": "managedTeams",
                      "type": "uint256[]"
                    },
                    {
                      "internalType": "uint256[]",
                      "name": "trophiesWon",
                      "type": "uint256[]"
                    },
                    {
                      "internalType": "uint256",
                      "name": "totalMatchesManaged",
                      "type": "uint256"
                    },
                    {
                      "internalType": "uint256",
                      "name": "totalWins",
                      "type": "uint256"
                    },
                    {
                      "internalType": "uint256",
                      "name": "totalDraws",
                      "type": "uint256"
                    },
                    {
                      "internalType": "uint256",
                      "name": "totalLosses",
                      "type": "uint256"
                    }
                  ],
                  "internalType": "struct FootballManagers.CareerStats",
                  "name": "careerStats",
                  "type": "tuple"
                },
                {
                  "components": [
                    {
                      "internalType": "string[]",
                      "name": "preferredFormations",
                      "type": "string[]"
                    },
                    {
                      "internalType": "string",
                      "name": "preferredPlayingStyle",
                      "type": "string"
                    },
                    {
                      "internalType": "string[]",
                      "name": "specialties",
                      "type": "string[]"
                    }
                  ],
                  "internalType": "struct FootballManagers.ManagerStyle",
                  "name": "style",
                  "type": "tuple"
                },
                {
                  "components": [
                    {
                      "internalType": "uint256",
                      "name": "lastContractValue",
                      "type": "uint256"
                    },
                    {
                      "internalType": "uint256",
                      "name": "careerEarnings",
                      "type": "uint256"
                    }
                  ],
                  "internalType": "struct FootballManagers.FinancialInfo",
                  "name": "financials",
                  "type": "tuple"
                },
                {
                  "internalType": "uint256",
                  "name": "lastSeasonPerformance",
                  "type": "uint256"
                }
              ],
              "internalType": "struct FootballManagers.Manager",
              "name": "",
              "type": "tuple"
            }
          ],
          "stateMutability": "view",
          "type": "function"
        },
        {
          "inputs": [
            {
              "internalType": "address",
              "name": "_managerAddress",
              "type": "address"
            }
          ],
          "name": "getManagerTrophyCount",
          "outputs": [
            {
              "internalType": "uint256",
              "name": "",
              "type": "uint256"
            }
          ],
          "stateMutability": "view",
          "type": "function"
        },
        {
          "inputs": [
            {
              "internalType": "address",
              "name": "_managerAddress",
              "type": "address"
            }
          ],
          "name": "getManagerWinRate",
          "outputs": [
            {
              "internalType": "uint256",
              "name": "",
              "type": "uint256"
            }
          ],
          "stateMutability": "view",
          "type": "function"
        },
        {
          "inputs": [
            {
              "internalType": "uint256",
              "name": "_tacticalImprovement",
              "type": "uint256"
            },
            {
              "internalType": "uint256",
              "name": "_playerManagementImprovement",
              "type": "uint256"
            },
            {
              "internalType": "uint256",
              "name": "_youngPlayerDevelopmentImprovement",
              "type": "uint256"
            }
          ],
          "name": "improveManagerSkills",
          "outputs": [],
          "stateMutability": "nonpayable",
          "type": "function"
        },
        {
          "inputs": [
            {
              "internalType": "string",
              "name": "_skillName",
              "type": "string"
            },
            {
              "internalType": "uint256",
              "name": "_improvement",
              "type": "uint256"
            }
          ],
          "name": "improveSpecificSkill",
          "outputs": [],
          "stateMutability": "nonpayable",
          "type": "function"
        },
        {
          "inputs": [
            {
              "internalType": "address",
              "name": "_managerAddress",
              "type": "address"
            }
          ],
          "name": "isEligibleForPromotion",
          "outputs": [
            {
              "internalType": "bool",
              "name": "",
              "type": "bool"
            }
          ],
          "stateMutability": "view",
          "type": "function"
        },
        {
          "inputs": [],
          "name": "managerCount",
          "outputs": [
            {
              "internalType": "uint256",
              "name": "",
              "type": "uint256"
            }
          ],
          "stateMutability": "view",
          "type": "function"
        },
        {
          "inputs": [
            {
              "internalType": "address",
              "name": "",
              "type": "address"
            }
          ],
          "name": "managers",
          "outputs": [
            {
              "components": [
                {
                  "internalType": "string",
                  "name": "name",
                  "type": "string"
                },
                {
                  "internalType": "uint256",
                  "name": "age",
                  "type": "uint256"
                },
                {
                  "internalType": "string",
                  "name": "nationality",
                  "type": "string"
                }
              ],
              "internalType": "struct FootballManagers.PersonalInfo",
              "name": "personalInfo",
              "type": "tuple"
            },
            {
              "components": [
                {
                  "internalType": "uint256",
                  "name": "tacticalAbility",
                  "type": "uint256"
                },
                {
                  "internalType": "uint256",
                  "name": "playerManagement",
                  "type": "uint256"
                },
                {
                  "internalType": "uint256",
                  "name": "youngPlayerDevelopment",
                  "type": "uint256"
                },
                {
                  "internalType": "uint256",
                  "name": "motivationAbility",
                  "type": "uint256"
                },
                {
                  "internalType": "uint256",
                  "name": "disciplineManagement",
                  "type": "uint256"
                },
                {
                  "internalType": "uint256",
                  "name": "financialManagement",
                  "type": "uint256"
                },
                {
                  "internalType": "uint256",
                  "name": "mediaHandling",
                  "type": "uint256"
                }
              ],
              "internalType": "struct FootballManagers.ManagerialSkills",
              "name": "skills",
              "type": "tuple"
            },
            {
              "components": [
                {
                  "internalType": "uint256",
                  "name": "experience",
                  "type": "uint256"
                },
                {
                  "internalType": "uint256",
                  "name": "reputation",
                  "type": "uint256"
                },
                {
                  "internalType": "uint256[]",
                  "name": "managedTeams",
                  "type": "uint256[]"
                },
                {
                  "internalType": "uint256[]",
                  "name": "trophiesWon",
                  "type": "uint256[]"
                },
                {
                  "internalType": "uint256",
                  "name": "totalMatchesManaged",
                  "type": "uint256"
                },
                {
                  "internalType": "uint256",
                  "name": "totalWins",
                  "type": "uint256"
                },
                {
                  "internalType": "uint256",
                  "name": "totalDraws",
                  "type": "uint256"
                },
                {
                  "internalType": "uint256",
                  "name": "totalLosses",
                  "type": "uint256"
                }
              ],
              "internalType": "struct FootballManagers.CareerStats",
              "name": "careerStats",
              "type": "tuple"
            },
            {
              "components": [
                {
                  "internalType": "string[]",
                  "name": "preferredFormations",
                  "type": "string[]"
                },
                {
                  "internalType": "string",
                  "name": "preferredPlayingStyle",
                  "type": "string"
                },
                {
                  "internalType": "string[]",
                  "name": "specialties",
                  "type": "string[]"
                }
              ],
              "internalType": "struct FootballManagers.ManagerStyle",
              "name": "style",
              "type": "tuple"
            },
            {
              "components": [
                {
                  "internalType": "uint256",
                  "name": "lastContractValue",
                  "type": "uint256"
                },
                {
                  "internalType": "uint256",
                  "name": "careerEarnings",
                  "type": "uint256"
                }
              ],
              "internalType": "struct FootballManagers.FinancialInfo",
              "name": "financials",
              "type": "tuple"
            },
            {
              "internalType": "uint256",
              "name": "lastSeasonPerformance",
              "type": "uint256"
            }
          ],
          "stateMutability": "view",
          "type": "function"
        },
        {
          "inputs": [
            {
              "internalType": "address",
              "name": "",
              "type": "address"
            }
          ],
          "name": "registeredManagers",
          "outputs": [
            {
              "internalType": "bool",
              "name": "",
              "type": "bool"
            }
          ],
          "stateMutability": "view",
          "type": "function"
        },
        {
          "inputs": [
            {
              "internalType": "uint256",
              "name": "_matchesManaged",
              "type": "uint256"
            },
            {
              "internalType": "uint256",
              "name": "_wins",
              "type": "uint256"
            },
            {
              "internalType": "uint256",
              "name": "_draws",
              "type": "uint256"
            },
            {
              "internalType": "uint256",
              "name": "_losses",
              "type": "uint256"
            },
            {
              "internalType": "uint256",
              "name": "_lastContractValue",
              "type": "uint256"
            },
            {
              "internalType": "uint256",
              "name": "_lastSeasonPerformance",
              "type": "uint256"
            }
          ],
          "name": "updateCareerStats",
          "outputs": [],
          "stateMutability": "nonpayable",
          "type": "function"
        },
        {
          "inputs": [
            {
              "internalType": "uint256",
              "name": "_newContractValue",
              "type": "uint256"
            }
          ],
          "name": "updateFinancials",
          "outputs": [],
          "stateMutability": "nonpayable",
          "type": "function"
        },
        {
          "inputs": [
            {
              "internalType": "string[]",
              "name": "_preferredFormations",
              "type": "string[]"
            },
            {
              "internalType": "string",
              "name": "_preferredPlayingStyle",
              "type": "string"
            }
          ],
          "name": "updateManagerStyle",
          "outputs": [],
          "stateMutability": "nonpayable",
          "type": "function"
        },
        {
          "inputs": [
            {
              "internalType": "uint256",
              "name": "_newAge",
              "type": "uint256"
            }
          ],
          "name": "updatePersonalInfo",
          "outputs": [],
          "stateMutability": "nonpayable",
          "type": "function"
        }
      ],
      "evm": {
        "bytecode": {
          "linkReferences": {},
          "object": "608060405234801561001057600080fd5b5061501d806100206000396000f3fe608060405234801561001057600080fd5b50600436106101215760003560e01c80638095dded116100ad578063d422e3f811610071578063d422e3f814610302578063dc03fb8214610332578063f30b6da31461034e578063fdae59721461036a578063fdff9b4d1461039a57610121565b80638095dded1461024e578063ac6dc6d41461027e578063ac812a121461029a578063aec3e0be146102b6578063bf77e3bd146102e657610121565b8063486e2b64116100f4578063486e2b64146101ac5780635de122cb146101c857806360927bdd146101f857806360cb9ca9146102145780638065c9001461023057610121565b8063103b7397146101265780631737e662146101445780633b48eda8146101605780633d5840631461017c575b600080fd5b61012e6103cf565b60405161013b91906137fe565b60405180910390f35b61015e60048036038101906101599190613a59565b6103d5565b005b61017a60048036038101906101759190613afd565b61052d565b005b61019660048036038101906101919190613b88565b610656565b6040516101a39190614079565b60405180910390f35b6101c660048036038101906101c19190613afd565b610c61565b005b6101e260048036038101906101dd9190613b88565b610d39565b6040516101ef91906137fe565b60405180910390f35b610212600480360381019061020d919061409b565b611386565b005b61022e600480360381019061022991906140e4565b61148c565b005b610238611795565b60405161024591906137fe565b60405180910390f35b61026860048036038101906102639190613b88565b61179a565b604051610275919061415b565b60405180910390f35b61029860048036038101906102939190613afd565b6117ba565b005b6102b460048036038101906102af9190613afd565b6118b4565b005b6102d060048036038101906102cb9190614176565b6119c2565b6040516102dd91906141c5565b60405180910390f35b61030060048036038101906102fb91906141e0565b611ad8565b005b61031c60048036038101906103179190613b88565b611cc5565b60405161032991906137fe565b60405180910390f35b61034c6004803603810190610347919061426d565b611da2565b005b6103686004803603810190610363919061439b565b61224e565b005b610384600480360381019061037f9190613b88565b612401565b604051610391919061415b565b60405180910390f35b6103b460048036038101906103af9190613b88565b612a41565b6040516103c696959493929190614617565b60405180910390f35b60025481565b600160003373ffffffffffffffffffffffffffffffffffffffff1673ffffffffffffffffffffffffffffffffffffffff16815260200190815260200160002060009054906101000a900460ff16610461576040517f08c379a0000000000000000000000000000000000000000000000000000000008152600401610458906146ef565b60405180910390fd5b60008060003373ffffffffffffffffffffffffffffffffffffffff1673ffffffffffffffffffffffffffffffffffffffff1681526020019081526020016000209050828160120160000190805190602001906104be92919061358c565b50818160120160010190816104d3919061491b565b503373ffffffffffffffffffffffffffffffffffffffff167f6ed15082ad038474841528b5badca105106d4463e44b5d434130dfb299aa3669826000016000016040516105209190614a71565b60405180910390a2505050565b600160003373ffffffffffffffffffffffffffffffffffffffff1673ffffffffffffffffffffffffffffffffffffffff16815260200190815260200160002060009054906101000a900460ff166105b9576040517f08c379a00000000000000000000000000000000000000000000000000000000081526004016105b0906146ef565b60405180910390fd5b60008060003373ffffffffffffffffffffffffffffffffffffffff1673ffffffffffffffffffffffffffffffffffffffff168152602001908152602001600020905080600a01600301829080600181540180825580915050600190039060005260206000200160009091909190915055610647600282600a01600101546106409190614ac2565b6064612f68565b81600a01600101819055505050565b61065e6135e5565b600160008373ffffffffffffffffffffffffffffffffffffffff1673ffffffffffffffffffffffffffffffffffffffff16815260200190815260200160002060009054906101000a900460ff166106ea576040517f08c379a00000000000000000000000000000000000000000000000000000000081526004016106e1906146ef565b60405180910390fd5b6000808373ffffffffffffffffffffffffffffffffffffffff1673ffffffffffffffffffffffffffffffffffffffff1681526020019081526020016000206040518060c0016040529081600082016040518060600160405290816000820180546107539061473e565b80601f016020809104026020016040519081016040528092919081815260200182805461077f9061473e565b80156107cc5780601f106107a1576101008083540402835291602001916107cc565b820191906000526020600020905b8154815290600101906020018083116107af57829003601f168201915b50505050508152602001600182015481526020016002820180546107ef9061473e565b80601f016020809104026020016040519081016040528092919081815260200182805461081b9061473e565b80156108685780601f1061083d57610100808354040283529160200191610868565b820191906000526020600020905b81548152906001019060200180831161084b57829003601f168201915b5050505050815250508152602001600382016040518060e00160405290816000820154815260200160018201548152602001600282015481526020016003820154815260200160048201548152602001600582015481526020016006820154815250508152602001600a82016040518061010001604052908160008201548152602001600182015481526020016002820180548060200260200160405190810160405280929190818152602001828054801561094357602002820191906000526020600020905b81548152602001906001019080831161092f575b505050505081526020016003820180548060200260200160405190810160405280929190818152602001828054801561099b57602002820191906000526020600020905b815481526020019060010190808311610987575b5050505050815260200160048201548152602001600582015481526020016006820154815260200160078201548152505081526020016012820160405180606001604052908160008201805480602002602001604051908101604052809291908181526020016000905b82821015610ab1578382906000526020600020018054610a249061473e565b80601f0160208091040260200160405190810160405280929190818152602001828054610a509061473e565b8015610a9d5780601f10610a7257610100808354040283529160200191610a9d565b820191906000526020600020905b815481529060010190602001808311610a8057829003601f168201915b505050505081526020019060010190610a05565b505050508152602001600182018054610ac99061473e565b80601f0160208091040260200160405190810160405280929190818152602001828054610af59061473e565b8015610b425780601f10610b1757610100808354040283529160200191610b42565b820191906000526020600020905b815481529060010190602001808311610b2557829003601f168201915b5050505050815260200160028201805480602002602001604051908101604052809291908181526020016000905b82821015610c1c578382906000526020600020018054610b8f9061473e565b80601f0160208091040260200160405190810160405280929190818152602001828054610bbb9061473e565b8015610c085780601f10610bdd57610100808354040283529160200191610c08565b820191906000526020600020905b815481529060010190602001808311610beb57829003601f168201915b505050505081526020019060010190610b70565b50505050815250508152602001601582016040518060400160405290816000820154815260200160018201548152505081526020016017820154815250509050919050565b600160003373ffffffffffffffffffffffffffffffffffffffff1673ffffffffffffffffffffffffffffffffffffffff16815260200190815260200160002060009054906101000a900460ff16610ced576040517f08c379a0000000000000000000000000000000000000000000000000000000008152600401610ce4906146ef565b60405180910390fd5b806000803373ffffffffffffffffffffffffffffffffffffffff1673ffffffffffffffffffffffffffffffffffffffff1681526020019081526020016000206000016001018190555050565b6000600160008373ffffffffffffffffffffffffffffffffffffffff1673ffffffffffffffffffffffffffffffffffffffff16815260200190815260200160002060009054906101000a900460ff16610dc7576040517f08c379a0000000000000000000000000000000000000000000000000000000008152600401610dbe906146ef565b60405180910390fd5b60008060008473ffffffffffffffffffffffffffffffffffffffff1673ffffffffffffffffffffffffffffffffffffffff1681526020019081526020016000206040518060c001604052908160008201604051806060016040529081600082018054610e329061473e565b80601f0160208091040260200160405190810160405280929190818152602001828054610e5e9061473e565b8015610eab5780601f10610e8057610100808354040283529160200191610eab565b820191906000526020600020905b815481529060010190602001808311610e8e57829003601f168201915b5050505050815260200160018201548152602001600282018054610ece9061473e565b80601f0160208091040260200160405190810160405280929190818152602001828054610efa9061473e565b8015610f475780601f10610f1c57610100808354040283529160200191610f47565b820191906000526020600020905b815481529060010190602001808311610f2a57829003601f168201915b5050505050815250508152602001600382016040518060e00160405290816000820154815260200160018201548152602001600282015481526020016003820154815260200160048201548152602001600582015481526020016006820154815250508152602001600a82016040518061010001604052908160008201548152602001600182015481526020016002820180548060200260200160405190810160405280929190818152602001828054801561102257602002820191906000526020600020905b81548152602001906001019080831161100e575b505050505081526020016003820180548060200260200160405190810160405280929190818152602001828054801561107a57602002820191906000526020600020905b815481526020019060010190808311611066575b5050505050815260200160048201548152602001600582015481526020016006820154815260200160078201548152505081526020016012820160405180606001604052908160008201805480602002602001604051908101604052809291908181526020016000905b828210156111905783829060005260206000200180546111039061473e565b80601f016020809104026020016040519081016040528092919081815260200182805461112f9061473e565b801561117c5780601f106111515761010080835404028352916020019161117c565b820191906000526020600020905b81548152906001019060200180831161115f57829003601f168201915b5050505050815260200190600101906110e4565b5050505081526020016001820180546111a89061473e565b80601f01602080910402602001604051908101604052809291908181526020018280546111d49061473e565b80156112215780601f106111f657610100808354040283529160200191611221565b820191906000526020600020905b81548152906001019060200180831161120457829003601f168201915b5050505050815260200160028201805480602002602001604051908101604052809291908181526020016000905b828210156112fb57838290600052602060002001805461126e9061473e565b80601f016020809104026020016040519081016040528092919081815260200182805461129a9061473e565b80156112e75780601f106112bc576101008083540402835291602001916112e7565b820191906000526020600020905b8154815290600101906020018083116112ca57829003601f168201915b50505050508152602001906001019061124f565b50505050815250508152602001601582016040518060400160405290816000820154815260200160018201548152505081526020016017820154815250509050600081604001516080015103611355576000915050611381565b8060400151608001516064826040015160a001516113739190614af6565b61137d9190614b67565b9150505b919050565b600160003373ffffffffffffffffffffffffffffffffffffffff1673ffffffffffffffffffffffffffffffffffffffff16815260200190815260200160002060009054906101000a900460ff16611412576040517f08c379a0000000000000000000000000000000000000000000000000000000008152600401611409906146ef565b60405180910390fd5b6000803373ffffffffffffffffffffffffffffffffffffffff1673ffffffffffffffffffffffffffffffffffffffff16815260200190815260200160002060120160020181908060018154018082558091505060019003906000526020600020016000909190919091509081611488919061491b565b5050565b600160003373ffffffffffffffffffffffffffffffffffffffff1673ffffffffffffffffffffffffffffffffffffffff16815260200190815260200160002060009054906101000a900460ff16611518576040517f08c379a000000000000000000000000000000000000000000000000000000000815260040161150f906146ef565b60405180910390fd5b60008060003373ffffffffffffffffffffffffffffffffffffffff1673ffffffffffffffffffffffffffffffffffffffff168152602001908152602001600020905060405160200161156990614bef565b60405160208183030381529060405280519060200120836040516020016115909190614c35565b60405160208183030381529060405280519060200120036115d8576115c88282600301600301546115c19190614ac2565b6064612f68565b8160030160030181905550611790565b6040516020016115e790614c98565b604051602081830303815290604052805190602001208360405160200161160e9190614c35565b60405160208183030381529060405280519060200120036116565761164682826003016004015461163f9190614ac2565b6064612f68565b816003016004018190555061178f565b60405160200161166590614cf9565b604051602081830303815290604052805190602001208360405160200161168c9190614c35565b60405160208183030381529060405280519060200120036116d4576116c48282600301600501546116bd9190614ac2565b6064612f68565b816003016005018190555061178e565b6040516020016116e390614d5a565b604051602081830303815290604052805190602001208360405160200161170a9190614c35565b60405160208183030381529060405280519060200120036117525761174282826003016006015461173b9190614ac2565b6064612f68565b816003016006018190555061178d565b6040517f08c379a000000000000000000000000000000000000000000000000000000000815260040161178490614dbb565b60405180910390fd5b5b5b5b505050565b603281565b60016020528060005260406000206000915054906101000a900460ff1681565b600160003373ffffffffffffffffffffffffffffffffffffffff1673ffffffffffffffffffffffffffffffffffffffff16815260200190815260200160002060009054906101000a900460ff16611846576040517f08c379a000000000000000000000000000000000000000000000000000000000815260040161183d906146ef565b60405180910390fd5b6000803373ffffffffffffffffffffffffffffffffffffffff1673ffffffffffffffffffffffffffffffffffffffff168152602001908152602001600020600a0160020181908060018154018082558091505060019003906000526020600020016000909190919091505550565b600160003373ffffffffffffffffffffffffffffffffffffffff1673ffffffffffffffffffffffffffffffffffffffff16815260200190815260200160002060009054906101000a900460ff16611940576040517f08c379a0000000000000000000000000000000000000000000000000000000008152600401611937906146ef565b60405180910390fd5b60008060003373ffffffffffffffffffffffffffffffffffffffff1673ffffffffffffffffffffffffffffffffffffffff16815260200190815260200160002090508060150160000154826119959190614ddb565b8160150160010160008282546119ab9190614ac2565b925050819055508181601501600001819055505050565b6000600160008473ffffffffffffffffffffffffffffffffffffffff1673ffffffffffffffffffffffffffffffffffffffff16815260200190815260200160002060009054906101000a900460ff168015611a665750600160008373ffffffffffffffffffffffffffffffffffffffff1673ffffffffffffffffffffffffffffffffffffffff16815260200190815260200160002060009054906101000a900460ff165b611aa5576040517f08c379a0000000000000000000000000000000000000000000000000000000008152600401611a9c90614e81565b60405180910390fd5b6000611ab084612f81565b90506000611abd84612f81565b9050808211611acc5783611ace565b845b9250505092915050565b600160003373ffffffffffffffffffffffffffffffffffffffff1673ffffffffffffffffffffffffffffffffffffffff16815260200190815260200160002060009054906101000a900460ff16611b64576040517f08c379a0000000000000000000000000000000000000000000000000000000008152600401611b5b906146ef565b60405180910390fd5b60008060003373ffffffffffffffffffffffffffffffffffffffff1673ffffffffffffffffffffffffffffffffffffffff16815260200190815260200160002090508681600a016004016000828254611bbd9190614ac2565b925050819055508581600a016005016000828254611bdb9190614ac2565b925050819055508481600a016006016000828254611bf99190614ac2565b925050819055508381600a016007016000828254611c179190614ac2565b9250508190555082816015016000018190555082816015016001016000828254611c419190614ac2565b92505081905550818160170181905550604b821115611c8857611c78600582600a0160010154611c719190614ac2565b6064612f68565b81600a0160010181905550611cbc565b6019821015611cbb57611caf600582600a0160010154611ca89190614ddb565b6000613573565b81600a01600101819055505b5b50505050505050565b6000600160008373ffffffffffffffffffffffffffffffffffffffff1673ffffffffffffffffffffffffffffffffffffffff16815260200190815260200160002060009054906101000a900460ff16611d53576040517f08c379a0000000000000000000000000000000000000000000000000000000008152600401611d4a906146ef565b60405180910390fd5b6000808373ffffffffffffffffffffffffffffffffffffffff1673ffffffffffffffffffffffffffffffffffffffff168152602001908152602001600020600a01600301805490509050919050565b600160003373ffffffffffffffffffffffffffffffffffffffff1673ffffffffffffffffffffffffffffffffffffffff16815260200190815260200160002060009054906101000a900460ff1615611e2f576040517f08c379a0000000000000000000000000000000000000000000000000000000008152600401611e2690614eed565b60405180910390fd5b6040518060c0016040528060405180606001604052808a81526020018981526020018881525081526020016040518060e001604052806032815260200160328152602001603281526020016032815260200160328152602001603281526020016032815250815260200160405180610100016040528087815260200160328152602001600067ffffffffffffffff811115611ecd57611ecc613843565b5b604051908082528060200260200182016040528015611efb5781602001602082028036833780820191505090505b508152602001600067ffffffffffffffff811115611f1c57611f1b613843565b5b604051908082528060200260200182016040528015611f4a5781602001602082028036833780820191505090505b5081526020016000815260200160008152602001600081526020016000815250815260200160405180606001604052808681526020018581526020018481525081526020016040518060400160405280600081526020016000815250815260200160328152506000803373ffffffffffffffffffffffffffffffffffffffff1673ffffffffffffffffffffffffffffffffffffffff168152602001908152602001600020600082015181600001600082015181600001908161200c919061491b565b5060208201518160010155604082015181600201908161202c919061491b565b505050602082015181600301600082015181600001556020820151816001015560408201518160020155606082015181600301556080820151816004015560a0820151816005015560c082015181600601555050604082015181600a01600082015181600001556020820151816001015560408201518160020190805190602001906120b9929190613639565b5060608201518160030190805190602001906120d6929190613639565b506080820151816004015560a0820151816005015560c0820151816006015560e082015181600701555050606082015181601201600082015181600001908051906020019061212692919061358c565b50602082015181600101908161213c919061491b565b50604082015181600201908051906020019061215992919061358c565b5050506080820151816015016000820151816000015560208201518160010155505060a0820151816017015590505060018060003373ffffffffffffffffffffffffffffffffffffffff1673ffffffffffffffffffffffffffffffffffffffff16815260200190815260200160002060006101000a81548160ff021916908315150217905550600260008154809291906121f290614f0d565b91905055503373ffffffffffffffffffffffffffffffffffffffff167f6e99d8b42f37c49b00851bf0db4aa99e30435020b884209b829316588a63c8d28860405161223d9190614f8e565b60405180910390a250505050505050565b600160003373ffffffffffffffffffffffffffffffffffffffff1673ffffffffffffffffffffffffffffffffffffffff16815260200190815260200160002060009054906101000a900460ff166122da576040517f08c379a00000000000000000000000000000000000000000000000000000000081526004016122d1906146ef565b60405180910390fd5b60008060003373ffffffffffffffffffffffffffffffffffffffff1673ffffffffffffffffffffffffffffffffffffffff16815260200190815260200160002090506123398482600301600001546123329190614ac2565b6064612f68565b816003016000018190555061236183826003016001015461235a9190614ac2565b6064612f68565b81600301600101819055506123898282600301600201546123829190614ac2565b6064612f68565b81600301600201819055503373ffffffffffffffffffffffffffffffffffffffff167f8d76ed962f65885945de900a3e70814688b7f77a9c51e3aeef040b2e8a9fa8a38260030160000154836003016001015484600301600201546040516123f393929190614fb0565b60405180910390a250505050565b6000600160008373ffffffffffffffffffffffffffffffffffffffff1673ffffffffffffffffffffffffffffffffffffffff16815260200190815260200160002060009054906101000a900460ff1661248f576040517f08c379a0000000000000000000000000000000000000000000000000000000008152600401612486906146ef565b60405180910390fd5b60008060008473ffffffffffffffffffffffffffffffffffffffff1673ffffffffffffffffffffffffffffffffffffffff1681526020019081526020016000206040518060c0016040529081600082016040518060600160405290816000820180546124fa9061473e565b80601f01602080910402602001604051908101604052809291908181526020018280546125269061473e565b80156125735780601f1061254857610100808354040283529160200191612573565b820191906000526020600020905b81548152906001019060200180831161255657829003601f168201915b50505050508152602001600182015481526020016002820180546125969061473e565b80601f01602080910402602001604051908101604052809291908181526020018280546125c29061473e565b801561260f5780601f106125e45761010080835404028352916020019161260f565b820191906000526020600020905b8154815290600101906020018083116125f257829003601f168201915b5050505050815250508152602001600382016040518060e00160405290816000820154815260200160018201548152602001600282015481526020016003820154815260200160048201548152602001600582015481526020016006820154815250508152602001600a8201604051806101000160405290816000820154815260200160018201548152602001600282018054806020026020016040519081016040528092919081815260200182805480156126ea57602002820191906000526020600020905b8154815260200190600101908083116126d6575b505050505081526020016003820180548060200260200160405190810160405280929190818152602001828054801561274257602002820191906000526020600020905b81548152602001906001019080831161272e575b5050505050815260200160048201548152602001600582015481526020016006820154815260200160078201548152505081526020016012820160405180606001604052908160008201805480602002602001604051908101604052809291908181526020016000905b828210156128585783829060005260206000200180546127cb9061473e565b80601f01602080910402602001604051908101604052809291908181526020018280546127f79061473e565b80156128445780601f1061281957610100808354040283529160200191612844565b820191906000526020600020905b81548152906001019060200180831161282757829003601f168201915b5050505050815260200190600101906127ac565b5050505081526020016001820180546128709061473e565b80601f016020809104026020016040519081016040528092919081815260200182805461289c9061473e565b80156128e95780601f106128be576101008083540402835291602001916128e9565b820191906000526020600020905b8154815290600101906020018083116128cc57829003601f168201915b5050505050815260200160028201805480602002602001604051908101604052809291908181526020016000905b828210156129c35783829060005260206000200180546129369061473e565b80601f01602080910402602001604051908101604052809291908181526020018280546129629061473e565b80156129af5780601f10612984576101008083540402835291602001916129af565b820191906000526020600020905b81548152906001019060200180831161299257829003601f168201915b505050505081526020019060010190612917565b50505050815250508152602001601582016040518060400160405290816000820154815260200160018201548152505081526020016017820154815250509050604b81604001516020015110158015612a245750603c612a2284610d39565b115b8015612a395750600081604001516060015151115b915050919050565b600060205280600052604060002060009150905080600001604051806060016040529081600082018054612a749061473e565b80601f0160208091040260200160405190810160405280929190818152602001828054612aa09061473e565b8015612aed5780601f10612ac257610100808354040283529160200191612aed565b820191906000526020600020905b815481529060010190602001808311612ad057829003601f168201915b5050505050815260200160018201548152602001600282018054612b109061473e565b80601f0160208091040260200160405190810160405280929190818152602001828054612b3c9061473e565b8015612b895780601f10612b5e57610100808354040283529160200191612b89565b820191906000526020600020905b815481529060010190602001808311612b6c57829003601f168201915b50505050508152505090806003016040518060e00160405290816000820154815260200160018201548152602001600282015481526020016003820154815260200160048201548152602001600582015481526020016006820154815250509080600a0160405180610100016040529081600082015481526020016001820154815260200160028201805480602002602001604051908101604052809291908181526020018280548015612c5c57602002820191906000526020600020905b815481526020019060010190808311612c48575b5050505050815260200160038201805480602002602001604051908101604052809291908181526020018280548015612cb457602002820191906000526020600020905b815481526020019060010190808311612ca0575b50505050508152602001600482015481526020016005820154815260200160068201548152602001600782015481525050908060120160405180606001604052908160008201805480602002602001604051908101604052809291908181526020016000905b82821015612dc6578382906000526020600020018054612d399061473e565b80601f0160208091040260200160405190810160405280929190818152602001828054612d659061473e565b8015612db25780601f10612d8757610100808354040283529160200191612db2565b820191906000526020600020905b815481529060010190602001808311612d9557829003601f168201915b505050505081526020019060010190612d1a565b505050508152602001600182018054612dde9061473e565b80601f0160208091040260200160405190810160405280929190818152602001828054612e0a9061473e565b8015612e575780601f10612e2c57610100808354040283529160200191612e57565b820191906000526020600020905b815481529060010190602001808311612e3a57829003601f168201915b5050505050815260200160028201805480602002602001604051908101604052809291908181526020016000905b82821015612f31578382906000526020600020018054612ea49061473e565b80601f0160208091040260200160405190810160405280929190818152602001828054612ed09061473e565b8015612f1d5780601f10612ef257610100808354040283529160200191612f1d565b820191906000526020600020905b815481529060010190602001808311612f0057829003601f168201915b505050505081526020019060010190612e85565b5050505081525050908060150160405180604001604052908160008201548152602001600182015481525050908060170154905086565b6000818310612f775781612f79565b825b905092915050565b6000806000808473ffffffffffffffffffffffffffffffffffffffff1673ffffffffffffffffffffffffffffffffffffffff1681526020019081526020016000206040518060c001604052908160008201604051806060016040529081600082018054612fed9061473e565b80601f01602080910402602001604051908101604052809291908181526020018280546130199061473e565b80156130665780601f1061303b57610100808354040283529160200191613066565b820191906000526020600020905b81548152906001019060200180831161304957829003601f168201915b50505050508152602001600182015481526020016002820180546130899061473e565b80601f01602080910402602001604051908101604052809291908181526020018280546130b59061473e565b80156131025780601f106130d757610100808354040283529160200191613102565b820191906000526020600020905b8154815290600101906020018083116130e557829003601f168201915b5050505050815250508152602001600382016040518060e00160405290816000820154815260200160018201548152602001600282015481526020016003820154815260200160048201548152602001600582015481526020016006820154815250508152602001600a8201604051806101000160405290816000820154815260200160018201548152602001600282018054806020026020016040519081016040528092919081815260200182805480156131dd57602002820191906000526020600020905b8154815260200190600101908083116131c9575b505050505081526020016003820180548060200260200160405190810160405280929190818152602001828054801561323557602002820191906000526020600020905b815481526020019060010190808311613221575b5050505050815260200160048201548152602001600582015481526020016006820154815260200160078201548152505081526020016012820160405180606001604052908160008201805480602002602001604051908101604052809291908181526020016000905b8282101561334b5783829060005260206000200180546132be9061473e565b80601f01602080910402602001604051908101604052809291908181526020018280546132ea9061473e565b80156133375780601f1061330c57610100808354040283529160200191613337565b820191906000526020600020905b81548152906001019060200180831161331a57829003601f168201915b50505050508152602001906001019061329f565b5050505081526020016001820180546133639061473e565b80601f016020809104026020016040519081016040528092919081815260200182805461338f9061473e565b80156133dc5780601f106133b1576101008083540402835291602001916133dc565b820191906000526020600020905b8154815290600101906020018083116133bf57829003601f168201915b5050505050815260200160028201805480602002602001604051908101604052809291908181526020016000905b828210156134b65783829060005260206000200180546134299061473e565b80601f01602080910402602001604051908101604052809291908181526020018280546134559061473e565b80156134a25780601f10613477576101008083540402835291602001916134a2565b820191906000526020600020905b81548152906001019060200180831161348557829003601f168201915b50505050508152602001906001019061340a565b505050508152505081526020016015820160405180604001604052908160008201548152602001600182015481525050815260200160178201548152505090506134ff83610d39565b6005826040015160600151516135159190614af6565b8260400151602001518360200151604001518460200151602001518560200151600001516135439190614ac2565b61354d9190614ac2565b6135579190614ac2565b6135619190614ac2565b61356b9190614ac2565b915050919050565b60008183116135825781613584565b825b905092915050565b8280548282559060005260206000209081019282156135d4579160200282015b828111156135d35782518290816135c3919061491b565b50916020019190600101906135ac565b5b5090506135e19190613686565b5090565b6040518060c001604052806135f86136aa565b81526020016136056136cb565b8152602001613612613708565b815260200161361f61374d565b815260200161362c61376e565b8152602001600081525090565b828054828255906000526020600020908101928215613675579160200282015b82811115613674578251825591602001919060010190613659565b5b5090506136829190613788565b5090565b5b808211156136a6576000818161369d91906137a5565b50600101613687565b5090565b60405180606001604052806060815260200160008152602001606081525090565b6040518060e00160405280600081526020016000815260200160008152602001600081526020016000815260200160008152602001600081525090565b60405180610100016040528060008152602001600081526020016060815260200160608152602001600081526020016000815260200160008152602001600081525090565b60405180606001604052806060815260200160608152602001606081525090565b604051806040016040528060008152602001600081525090565b5b808211156137a1576000816000905550600101613789565b5090565b5080546137b19061473e565b6000825580601f106137c357506137e2565b601f0160209004906000526020600020908101906137e19190613788565b5b50565b6000819050919050565b6137f8816137e5565b82525050565b600060208201905061381360008301846137ef565b92915050565b6000604051905090565b600080fd5b600080fd5b600080fd5b6000601f19601f8301169050919050565b7f4e487b7100000000000000000000000000000000000000000000000000000000600052604160045260246000fd5b61387b82613832565b810181811067ffffffffffffffff8211171561389a57613899613843565b5b80604052505050565b60006138ad613819565b90506138b98282613872565b919050565b600067ffffffffffffffff8211156138d9576138d8613843565b5b602082029050602081019050919050565b600080fd5b600080fd5b600067ffffffffffffffff82111561390f5761390e613843565b5b61391882613832565b9050602081019050919050565b82818337600083830152505050565b6000613947613942846138f4565b6138a3565b905082815260208101848484011115613963576139626138ef565b5b61396e848285613925565b509392505050565b600082601f83011261398b5761398a61382d565b5b813561399b848260208601613934565b91505092915050565b60006139b76139b2846138be565b6138a3565b905080838252602082019050602084028301858111156139da576139d96138ea565b5b835b81811015613a2157803567ffffffffffffffff8111156139ff576139fe61382d565b5b808601613a0c8982613976565b855260208501945050506020810190506139dc565b5050509392505050565b600082601f830112613a4057613a3f61382d565b5b8135613a508482602086016139a4565b91505092915050565b60008060408385031215613a7057613a6f613823565b5b600083013567ffffffffffffffff811115613a8e57613a8d613828565b5b613a9a85828601613a2b565b925050602083013567ffffffffffffffff811115613abb57613aba613828565b5b613ac785828601613976565b9150509250929050565b613ada816137e5565b8114613ae557600080fd5b50565b600081359050613af781613ad1565b92915050565b600060208284031215613b1357613b12613823565b5b6000613b2184828501613ae8565b91505092915050565b600073ffffffffffffffffffffffffffffffffffffffff82169050919050565b6000613b5582613b2a565b9050919050565b613b6581613b4a565b8114613b7057600080fd5b50565b600081359050613b8281613b5c565b92915050565b600060208284031215613b9e57613b9d613823565b5b6000613bac84828501613b73565b91505092915050565b600081519050919050565b600082825260208201905092915050565b60005b83811015613bef578082015181840152602081019050613bd4565b60008484015250505050565b6000613c0682613bb5565b613c108185613bc0565b9350613c20818560208601613bd1565b613c2981613832565b840191505092915050565b613c3d816137e5565b82525050565b60006060830160008301518482036000860152613c608282613bfb565b9150506020830151613c756020860182613c34565b5060408301518482036040860152613c8d8282613bfb565b9150508091505092915050565b60e082016000820151613cb06000850182613c34565b506020820151613cc36020850182613c34565b506040820151613cd66040850182613c34565b506060820151613ce96060850182613c34565b506080820151613cfc6080850182613c34565b5060a0820151613d0f60a0850182613c34565b5060c0820151613d2260c0850182613c34565b50505050565b600081519050919050565b600082825260208201905092915050565b6000819050602082019050919050565b6000613d608383613c34565b60208301905092915050565b6000602082019050919050565b6000613d8482613d28565b613d8e8185613d33565b9350613d9983613d44565b8060005b83811015613dca578151613db18882613d54565b9750613dbc83613d6c565b925050600181019050613d9d565b5085935050505092915050565b600061010083016000830151613df06000860182613c34565b506020830151613e036020860182613c34565b5060408301518482036040860152613e1b8282613d79565b91505060608301518482036060860152613e358282613d79565b9150506080830151613e4a6080860182613c34565b5060a0830151613e5d60a0860182613c34565b5060c0830151613e7060c0860182613c34565b5060e0830151613e8360e0860182613c34565b508091505092915050565b600081519050919050565b600082825260208201905092915050565b6000819050602082019050919050565b6000613ec68383613bfb565b905092915050565b6000602082019050919050565b6000613ee682613e8e565b613ef08185613e99565b935083602082028501613f0285613eaa565b8060005b85811015613f3e5784840389528151613f1f8582613eba565b9450613f2a83613ece565b925060208a01995050600181019050613f06565b50829750879550505050505092915050565b60006060830160008301518482036000860152613f6d8282613edb565b91505060208301518482036020860152613f878282613bfb565b91505060408301518482036040860152613fa18282613edb565b9150508091505092915050565b604082016000820151613fc46000850182613c34565b506020820151613fd76020850182613c34565b50505050565b60006101a0830160008301518482036000860152613ffb8282613c43565b91505060208301516140106020860182613c9a565b5060408301518482036101008601526140298282613dd7565b91505060608301518482036101208601526140448282613f50565b915050608083015161405a610140860182613fae565b5060a083015161406e610180860182613c34565b508091505092915050565b600060208201905081810360008301526140938184613fdd565b905092915050565b6000602082840312156140b1576140b0613823565b5b600082013567ffffffffffffffff8111156140cf576140ce613828565b5b6140db84828501613976565b91505092915050565b600080604083850312156140fb576140fa613823565b5b600083013567ffffffffffffffff81111561411957614118613828565b5b61412585828601613976565b925050602061413685828601613ae8565b9150509250929050565b60008115159050919050565b61415581614140565b82525050565b6000602082019050614170600083018461414c565b92915050565b6000806040838503121561418d5761418c613823565b5b600061419b85828601613b73565b92505060206141ac85828601613b73565b9150509250929050565b6141bf81613b4a565b82525050565b60006020820190506141da60008301846141b6565b92915050565b60008060008060008060c087890312156141fd576141fc613823565b5b600061420b89828a01613ae8565b965050602061421c89828a01613ae8565b955050604061422d89828a01613ae8565b945050606061423e89828a01613ae8565b935050608061424f89828a01613ae8565b92505060a061426089828a01613ae8565b9150509295509295509295565b600080600080600080600060e0888a03121561428c5761428b613823565b5b600088013567ffffffffffffffff8111156142aa576142a9613828565b5b6142b68a828b01613976565b97505060206142c78a828b01613ae8565b965050604088013567ffffffffffffffff8111156142e8576142e7613828565b5b6142f48a828b01613976565b95505060606143058a828b01613ae8565b945050608088013567ffffffffffffffff81111561432657614325613828565b5b6143328a828b01613a2b565b93505060a088013567ffffffffffffffff81111561435357614352613828565b5b61435f8a828b01613976565b92505060c088013567ffffffffffffffff8111156143805761437f613828565b5b61438c8a828b01613a2b565b91505092959891949750929550565b6000806000606084860312156143b4576143b3613823565b5b60006143c286828701613ae8565b93505060206143d386828701613ae8565b92505060406143e486828701613ae8565b9150509250925092565b6000606083016000830151848203600086015261440b8282613bfb565b91505060208301516144206020860182613c34565b50604083015184820360408601526144388282613bfb565b9150508091505092915050565b60e08201600082015161445b6000850182613c34565b50602082015161446e6020850182613c34565b5060408201516144816040850182613c34565b5060608201516144946060850182613c34565b5060808201516144a76080850182613c34565b5060a08201516144ba60a0850182613c34565b5060c08201516144cd60c0850182613c34565b50505050565b6000610100830160008301516144ec6000860182613c34565b5060208301516144ff6020860182613c34565b50604083015184820360408601526145178282613d79565b915050606083015184820360608601526145318282613d79565b91505060808301516145466080860182613c34565b5060a083015161455960a0860182613c34565b5060c083015161456c60c0860182613c34565b5060e083015161457f60e0860182613c34565b508091505092915050565b600060608301600083015184820360008601526145a78282613edb565b915050602083015184820360208601526145c18282613bfb565b915050604083015184820360408601526145db8282613edb565b9150508091505092915050565b6040820160008201516145fe6000850182613c34565b5060208201516146116020850182613c34565b50505050565b60006101a082019050818103600083015261463281896143ee565b90506146416020830188614445565b81810361010083015261465481876144d3565b9050818103610120830152614669818661458a565b90506146796101408301856145e8565b6146876101808301846137ef565b979650505050505050565b600082825260208201905092915050565b7f4d616e6167657220646f6573206e6f7420657869737400000000000000000000600082015250565b60006146d9601683614692565b91506146e4826146a3565b602082019050919050565b60006020820190508181036000830152614708816146cc565b9050919050565b7f4e487b7100000000000000000000000000000000000000000000000000000000600052602260045260246000fd5b6000600282049050600182168061475657607f821691505b6020821081036147695761476861470f565b5b50919050565b60008190508160005260206000209050919050565b60006020601f8301049050919050565b600082821b905092915050565b6000600883026147d17fffffffffffffffffffffffffffffffffffffffffffffffffffffffffffffffff82614794565b6147db8683614794565b95508019841693508086168417925050509392505050565b6000819050919050565b600061481861481361480e846137e5565b6147f3565b6137e5565b9050919050565b6000819050919050565b614832836147fd565b61484661483e8261481f565b8484546147a1565b825550505050565b600090565b61485b61484e565b614866818484614829565b505050565b5b8181101561488a5761487f600082614853565b60018101905061486c565b5050565b601f8211156148cf576148a08161476f565b6148a984614784565b810160208510156148b8578190505b6148cc6148c485614784565b83018261486b565b50505b505050565b600082821c905092915050565b60006148f2600019846008026148d4565b1980831691505092915050565b600061490b83836148e1565b9150826002028217905092915050565b61492482613bb5565b67ffffffffffffffff81111561493d5761493c613843565b5b614947825461473e565b61495282828561488e565b600060209050601f8311600181146149855760008415614973578287015190505b61497d85826148ff565b8655506149e5565b601f1984166149938661476f565b60005b828110156149bb57848901518255600182019150602085019450602081019050614996565b868310156149d857848901516149d4601f8916826148e1565b8355505b6001600288020188555050505b505050505050565b600081546149fa8161473e565b614a048186614692565b94506001821660008114614a1f5760018114614a3557614a68565b60ff198316865281151560200286019350614a68565b614a3e8561476f565b60005b83811015614a6057815481890152600182019150602081019050614a41565b808801955050505b50505092915050565b60006020820190508181036000830152614a8b81846149ed565b905092915050565b7f4e487b7100000000000000000000000000000000000000000000000000000000600052601160045260246000fd5b6000614acd826137e5565b9150614ad8836137e5565b9250828201905080821115614af057614aef614a93565b5b92915050565b6000614b01826137e5565b9150614b0c836137e5565b9250828202614b1a816137e5565b91508282048414831517614b3157614b30614a93565b5b5092915050565b7f4e487b7100000000000000000000000000000000000000000000000000000000600052601260045260246000fd5b6000614b72826137e5565b9150614b7d836137e5565b925082614b8d57614b8c614b38565b5b828204905092915050565b600081905092915050565b7f6d6f7469766174696f6e4162696c697479000000000000000000000000000000600082015250565b6000614bd9601183614b98565b9150614be482614ba3565b601182019050919050565b6000614bfa82614bcc565b9150819050919050565b6000614c0f82613bb5565b614c198185614b98565b9350614c29818560208601613bd1565b80840191505092915050565b6000614c418284614c04565b915081905092915050565b7f6469736369706c696e654d616e6167656d656e74000000000000000000000000600082015250565b6000614c82601483614b98565b9150614c8d82614c4c565b601482019050919050565b6000614ca382614c75565b9150819050919050565b7f66696e616e6369616c4d616e6167656d656e7400000000000000000000000000600082015250565b6000614ce3601383614b98565b9150614cee82614cad565b601382019050919050565b6000614d0482614cd6565b9150819050919050565b7f6d6564696148616e646c696e6700000000000000000000000000000000000000600082015250565b6000614d44600d83614b98565b9150614d4f82614d0e565b600d82019050919050565b6000614d6582614d37565b9150819050919050565b7f496e76616c696420736b696c6c206e616d650000000000000000000000000000600082015250565b6000614da5601283614692565b9150614db082614d6f565b602082019050919050565b60006020820190508181036000830152614dd481614d98565b9050919050565b6000614de6826137e5565b9150614df1836137e5565b9250828203905081811115614e0957614e08614a93565b5b92915050565b7f4f6e65206f7220626f7468206d616e616765727320646f206e6f74206578697360008201527f7400000000000000000000000000000000000000000000000000000000000000602082015250565b6000614e6b602183614692565b9150614e7682614e0f565b604082019050919050565b60006020820190508181036000830152614e9a81614e5e565b9050919050565b7f4d616e6167657220616c72656164792072656769737465726564000000000000600082015250565b6000614ed7601a83614692565b9150614ee282614ea1565b602082019050919050565b60006020820190508181036000830152614f0681614eca565b9050919050565b6000614f18826137e5565b91507fffffffffffffffffffffffffffffffffffffffffffffffffffffffffffffffff8203614f4a57614f49614a93565b5b600182019050919050565b6000614f6082613bb5565b614f6a8185614692565b9350614f7a818560208601613bd1565b614f8381613832565b840191505092915050565b60006020820190508181036000830152614fa88184614f55565b905092915050565b6000606082019050614fc560008301866137ef565b614fd260208301856137ef565b614fdf60408301846137ef565b94935050505056fea26469706673582212206bf2ab11b1fbdfc06e1df72d2e1b8ec33a43a4c295c3c70cc2d6cce9193924f364736f6c63430008170033",
          "opcodes": "PUSH1 0x80 PUSH1 0x40 MSTORE CALLVALUE DUP1 ISZERO PUSH2 0x10 JUMPI PUSH1 0x0 DUP1 REVERT JUMPDEST POP PUSH2 0x501D DUP1 PUSH2 0x20 PUSH1 0x0 CODECOPY PUSH1 0x0 RETURN INVALID PUSH1 0x80 PUSH1 0x40 MSTORE CALLVALUE DUP1 ISZERO PUSH2 0x10 JUMPI PUSH1 0x0 DUP1 REVERT JUMPDEST POP PUSH1 0x4 CALLDATASIZE LT PUSH2 0x121 JUMPI PUSH1 0x0 CALLDATALOAD PUSH1 0xE0 SHR DUP1 PUSH4 0x8095DDED GT PUSH2 0xAD JUMPI DUP1 PUSH4 0xD422E3F8 GT PUSH2 0x71 JUMPI DUP1 PUSH4 0xD422E3F8 EQ PUSH2 0x302 JUMPI DUP1 PUSH4 0xDC03FB82 EQ PUSH2 0x332 JUMPI DUP1 PUSH4 0xF30B6DA3 EQ PUSH2 0x34E JUMPI DUP1 PUSH4 0xFDAE5972 EQ PUSH2 0x36A JUMPI DUP1 PUSH4 0xFDFF9B4D EQ PUSH2 0x39A JUMPI PUSH2 0x121 JUMP JUMPDEST DUP1 PUSH4 0x8095DDED EQ PUSH2 0x24E JUMPI DUP1 PUSH4 0xAC6DC6D4 EQ PUSH2 0x27E JUMPI DUP1 PUSH4 0xAC812A12 EQ PUSH2 0x29A JUMPI DUP1 PUSH4 0xAEC3E0BE EQ PUSH2 0x2B6 JUMPI DUP1 PUSH4 0xBF77E3BD EQ PUSH2 0x2E6 JUMPI PUSH2 0x121 JUMP JUMPDEST DUP1 PUSH4 0x486E2B64 GT PUSH2 0xF4 JUMPI DUP1 PUSH4 0x486E2B64 EQ PUSH2 0x1AC JUMPI DUP1 PUSH4 0x5DE122CB EQ PUSH2 0x1C8 JUMPI DUP1 PUSH4 0x60927BDD EQ PUSH2 0x1F8 JUMPI DUP1 PUSH4 0x60CB9CA9 EQ PUSH2 0x214 JUMPI DUP1 PUSH4 0x8065C900 EQ PUSH2 0x230 JUMPI PUSH2 0x121 JUMP JUMPDEST DUP1 PUSH4 0x103B7397 EQ PUSH2 0x126 JUMPI DUP1 PUSH4 0x1737E662 EQ PUSH2 0x144 JUMPI DUP1 PUSH4 0x3B48EDA8 EQ PUSH2 0x160 JUMPI DUP1 PUSH4 0x3D584063 EQ PUSH2 0x17C JUMPI JUMPDEST PUSH1 0x0 DUP1 REVERT JUMPDEST PUSH2 0x12E PUSH2 0x3CF JUMP JUMPDEST PUSH1 0x40 MLOAD PUSH2 0x13B SWAP2 SWAP1 PUSH2 0x37FE JUMP JUMPDEST PUSH1 0x40 MLOAD DUP1 SWAP2 SUB SWAP1 RETURN JUMPDEST PUSH2 0x15E PUSH1 0x4 DUP1 CALLDATASIZE SUB DUP2 ADD SWAP1 PUSH2 0x159 SWAP2 SWAP1 PUSH2 0x3A59 JUMP JUMPDEST PUSH2 0x3D5 JUMP JUMPDEST STOP JUMPDEST PUSH2 0x17A PUSH1 0x4 DUP1 CALLDATASIZE SUB DUP2 ADD SWAP1 PUSH2 0x175 SWAP2 SWAP1 PUSH2 0x3AFD JUMP JUMPDEST PUSH2 0x52D JUMP JUMPDEST STOP JUMPDEST PUSH2 0x196 PUSH1 0x4 DUP1 CALLDATASIZE SUB DUP2 ADD SWAP1 PUSH2 0x191 SWAP2 SWAP1 PUSH2 0x3B88 JUMP JUMPDEST PUSH2 0x656 JUMP JUMPDEST PUSH1 0x40 MLOAD PUSH2 0x1A3 SWAP2 SWAP1 PUSH2 0x4079 JUMP JUMPDEST PUSH1 0x40 MLOAD DUP1 SWAP2 SUB SWAP1 RETURN JUMPDEST PUSH2 0x1C6 PUSH1 0x4 DUP1 CALLDATASIZE SUB DUP2 ADD SWAP1 PUSH2 0x1C1 SWAP2 SWAP1 PUSH2 0x3AFD JUMP JUMPDEST PUSH2 0xC61 JUMP JUMPDEST STOP JUMPDEST PUSH2 0x1E2 PUSH1 0x4 DUP1 CALLDATASIZE SUB DUP2 ADD SWAP1 PUSH2 0x1DD SWAP2 SWAP1 PUSH2 0x3B88 JUMP JUMPDEST PUSH2 0xD39 JUMP JUMPDEST PUSH1 0x40 MLOAD PUSH2 0x1EF SWAP2 SWAP1 PUSH2 0x37FE JUMP JUMPDEST PUSH1 0x40 MLOAD DUP1 SWAP2 SUB SWAP1 RETURN JUMPDEST PUSH2 0x212 PUSH1 0x4 DUP1 CALLDATASIZE SUB DUP2 ADD SWAP1 PUSH2 0x20D SWAP2 SWAP1 PUSH2 0x409B JUMP JUMPDEST PUSH2 0x1386 JUMP JUMPDEST STOP JUMPDEST PUSH2 0x22E PUSH1 0x4 DUP1 CALLDATASIZE SUB DUP2 ADD SWAP1 PUSH2 0x229 SWAP2 SWAP1 PUSH2 0x40E4 JUMP JUMPDEST PUSH2 0x148C JUMP JUMPDEST STOP JUMPDEST PUSH2 0x238 PUSH2 0x1795 JUMP JUMPDEST PUSH1 0x40 MLOAD PUSH2 0x245 SWAP2 SWAP1 PUSH2 0x37FE JUMP JUMPDEST PUSH1 0x40 MLOAD DUP1 SWAP2 SUB SWAP1 RETURN JUMPDEST PUSH2 0x268 PUSH1 0x4 DUP1 CALLDATASIZE SUB DUP2 ADD SWAP1 PUSH2 0x263 SWAP2 SWAP1 PUSH2 0x3B88 JUMP JUMPDEST PUSH2 0x179A JUMP JUMPDEST PUSH1 0x40 MLOAD PUSH2 0x275 SWAP2 SWAP1 PUSH2 0x415B JUMP JUMPDEST PUSH1 0x40 MLOAD DUP1 SWAP2 SUB SWAP1 RETURN JUMPDEST PUSH2 0x298 PUSH1 0x4 DUP1 CALLDATASIZE SUB DUP2 ADD SWAP1 PUSH2 0x293 SWAP2 SWAP1 PUSH2 0x3AFD JUMP JUMPDEST PUSH2 0x17BA JUMP JUMPDEST STOP JUMPDEST PUSH2 0x2B4 PUSH1 0x4 DUP1 CALLDATASIZE SUB DUP2 ADD SWAP1 PUSH2 0x2AF SWAP2 SWAP1 PUSH2 0x3AFD JUMP JUMPDEST PUSH2 0x18B4 JUMP JUMPDEST STOP JUMPDEST PUSH2 0x2D0 PUSH1 0x4 DUP1 CALLDATASIZE SUB DUP2 ADD SWAP1 PUSH2 0x2CB SWAP2 SWAP1 PUSH2 0x4176 JUMP JUMPDEST PUSH2 0x19C2 JUMP JUMPDEST PUSH1 0x40 MLOAD PUSH2 0x2DD SWAP2 SWAP1 PUSH2 0x41C5 JUMP JUMPDEST PUSH1 0x40 MLOAD DUP1 SWAP2 SUB SWAP1 RETURN JUMPDEST PUSH2 0x300 PUSH1 0x4 DUP1 CALLDATASIZE SUB DUP2 ADD SWAP1 PUSH2 0x2FB SWAP2 SWAP1 PUSH2 0x41E0 JUMP JUMPDEST PUSH2 0x1AD8 JUMP JUMPDEST STOP JUMPDEST PUSH2 0x31C PUSH1 0x4 DUP1 CALLDATASIZE SUB DUP2 ADD SWAP1 PUSH2 0x317 SWAP2 SWAP1 PUSH2 0x3B88 JUMP JUMPDEST PUSH2 0x1CC5 JUMP JUMPDEST PUSH1 0x40 MLOAD PUSH2 0x329 SWAP2 SWAP1 PUSH2 0x37FE JUMP JUMPDEST PUSH1 0x40 MLOAD DUP1 SWAP2 SUB SWAP1 RETURN JUMPDEST PUSH2 0x34C PUSH1 0x4 DUP1 CALLDATASIZE SUB DUP2 ADD SWAP1 PUSH2 0x347 SWAP2 SWAP1 PUSH2 0x426D JUMP JUMPDEST PUSH2 0x1DA2 JUMP JUMPDEST STOP JUMPDEST PUSH2 0x368 PUSH1 0x4 DUP1 CALLDATASIZE SUB DUP2 ADD SWAP1 PUSH2 0x363 SWAP2 SWAP1 PUSH2 0x439B JUMP JUMPDEST PUSH2 0x224E JUMP JUMPDEST STOP JUMPDEST PUSH2 0x384 PUSH1 0x4 DUP1 CALLDATASIZE SUB DUP2 ADD SWAP1 PUSH2 0x37F SWAP2 SWAP1 PUSH2 0x3B88 JUMP JUMPDEST PUSH2 0x2401 JUMP JUMPDEST PUSH1 0x40 MLOAD PUSH2 0x391 SWAP2 SWAP1 PUSH2 0x415B JUMP JUMPDEST PUSH1 0x40 MLOAD DUP1 SWAP2 SUB SWAP1 RETURN JUMPDEST PUSH2 0x3B4 PUSH1 0x4 DUP1 CALLDATASIZE SUB DUP2 ADD SWAP1 PUSH2 0x3AF SWAP2 SWAP1 PUSH2 0x3B88 JUMP JUMPDEST PUSH2 0x2A41 JUMP JUMPDEST PUSH1 0x40 MLOAD PUSH2 0x3C6 SWAP7 SWAP6 SWAP5 SWAP4 SWAP3 SWAP2 SWAP1 PUSH2 0x4617 JUMP JUMPDEST PUSH1 0x40 MLOAD DUP1 SWAP2 SUB SWAP1 RETURN JUMPDEST PUSH1 0x2 SLOAD DUP2 JUMP JUMPDEST PUSH1 0x1 PUSH1 0x0 CALLER PUSH20 0xFFFFFFFFFFFFFFFFFFFFFFFFFFFFFFFFFFFFFFFF AND PUSH20 0xFFFFFFFFFFFFFFFFFFFFFFFFFFFFFFFFFFFFFFFF AND DUP2 MSTORE PUSH1 0x20 ADD SWAP1 DUP2 MSTORE PUSH1 0x20 ADD PUSH1 0x0 KECCAK256 PUSH1 0x0 SWAP1 SLOAD SWAP1 PUSH2 0x100 EXP SWAP1 DIV PUSH1 0xFF AND PUSH2 0x461 JUMPI PUSH1 0x40 MLOAD PUSH32 0x8C379A000000000000000000000000000000000000000000000000000000000 DUP2 MSTORE PUSH1 0x4 ADD PUSH2 0x458 SWAP1 PUSH2 0x46EF JUMP JUMPDEST PUSH1 0x40 MLOAD DUP1 SWAP2 SUB SWAP1 REVERT JUMPDEST PUSH1 0x0 DUP1 PUSH1 0x0 CALLER PUSH20 0xFFFFFFFFFFFFFFFFFFFFFFFFFFFFFFFFFFFFFFFF AND PUSH20 0xFFFFFFFFFFFFFFFFFFFFFFFFFFFFFFFFFFFFFFFF AND DUP2 MSTORE PUSH1 0x20 ADD SWAP1 DUP2 MSTORE PUSH1 0x20 ADD PUSH1 0x0 KECCAK256 SWAP1 POP DUP3 DUP2 PUSH1 0x12 ADD PUSH1 0x0 ADD SWAP1 DUP1 MLOAD SWAP1 PUSH1 0x20 ADD SWAP1 PUSH2 0x4BE SWAP3 SWAP2 SWAP1 PUSH2 0x358C JUMP JUMPDEST POP DUP2 DUP2 PUSH1 0x12 ADD PUSH1 0x1 ADD SWAP1 DUP2 PUSH2 0x4D3 SWAP2 SWAP1 PUSH2 0x491B JUMP JUMPDEST POP CALLER PUSH20 0xFFFFFFFFFFFFFFFFFFFFFFFFFFFFFFFFFFFFFFFF AND PUSH32 0x6ED15082AD038474841528B5BADCA105106D4463E44B5D434130DFB299AA3669 DUP3 PUSH1 0x0 ADD PUSH1 0x0 ADD PUSH1 0x40 MLOAD PUSH2 0x520 SWAP2 SWAP1 PUSH2 0x4A71 JUMP JUMPDEST PUSH1 0x40 MLOAD DUP1 SWAP2 SUB SWAP1 LOG2 POP POP POP JUMP JUMPDEST PUSH1 0x1 PUSH1 0x0 CALLER PUSH20 0xFFFFFFFFFFFFFFFFFFFFFFFFFFFFFFFFFFFFFFFF AND PUSH20 0xFFFFFFFFFFFFFFFFFFFFFFFFFFFFFFFFFFFFFFFF AND DUP2 MSTORE PUSH1 0x20 ADD SWAP1 DUP2 MSTORE PUSH1 0x20 ADD PUSH1 0x0 KECCAK256 PUSH1 0x0 SWAP1 SLOAD SWAP1 PUSH2 0x100 EXP SWAP1 DIV PUSH1 0xFF AND PUSH2 0x5B9 JUMPI PUSH1 0x40 MLOAD PUSH32 0x8C379A000000000000000000000000000000000000000000000000000000000 DUP2 MSTORE PUSH1 0x4 ADD PUSH2 0x5B0 SWAP1 PUSH2 0x46EF JUMP JUMPDEST PUSH1 0x40 MLOAD DUP1 SWAP2 SUB SWAP1 REVERT JUMPDEST PUSH1 0x0 DUP1 PUSH1 0x0 CALLER PUSH20 0xFFFFFFFFFFFFFFFFFFFFFFFFFFFFFFFFFFFFFFFF AND PUSH20 0xFFFFFFFFFFFFFFFFFFFFFFFFFFFFFFFFFFFFFFFF AND DUP2 MSTORE PUSH1 0x20 ADD SWAP1 DUP2 MSTORE PUSH1 0x20 ADD PUSH1 0x0 KECCAK256 SWAP1 POP DUP1 PUSH1 0xA ADD PUSH1 0x3 ADD DUP3 SWAP1 DUP1 PUSH1 0x1 DUP2 SLOAD ADD DUP1 DUP3 SSTORE DUP1 SWAP2 POP POP PUSH1 0x1 SWAP1 SUB SWAP1 PUSH1 0x0 MSTORE PUSH1 0x20 PUSH1 0x0 KECCAK256 ADD PUSH1 0x0 SWAP1 SWAP2 SWAP1 SWAP2 SWAP1 SWAP2 POP SSTORE PUSH2 0x647 PUSH1 0x2 DUP3 PUSH1 0xA ADD PUSH1 0x1 ADD SLOAD PUSH2 0x640 SWAP2 SWAP1 PUSH2 0x4AC2 JUMP JUMPDEST PUSH1 0x64 PUSH2 0x2F68 JUMP JUMPDEST DUP2 PUSH1 0xA ADD PUSH1 0x1 ADD DUP2 SWAP1 SSTORE POP POP POP JUMP JUMPDEST PUSH2 0x65E PUSH2 0x35E5 JUMP JUMPDEST PUSH1 0x1 PUSH1 0x0 DUP4 PUSH20 0xFFFFFFFFFFFFFFFFFFFFFFFFFFFFFFFFFFFFFFFF AND PUSH20 0xFFFFFFFFFFFFFFFFFFFFFFFFFFFFFFFFFFFFFFFF AND DUP2 MSTORE PUSH1 0x20 ADD SWAP1 DUP2 MSTORE PUSH1 0x20 ADD PUSH1 0x0 KECCAK256 PUSH1 0x0 SWAP1 SLOAD SWAP1 PUSH2 0x100 EXP SWAP1 DIV PUSH1 0xFF AND PUSH2 0x6EA JUMPI PUSH1 0x40 MLOAD PUSH32 0x8C379A000000000000000000000000000000000000000000000000000000000 DUP2 MSTORE PUSH1 0x4 ADD PUSH2 0x6E1 SWAP1 PUSH2 0x46EF JUMP JUMPDEST PUSH1 0x40 MLOAD DUP1 SWAP2 SUB SWAP1 REVERT JUMPDEST PUSH1 0x0 DUP1 DUP4 PUSH20 0xFFFFFFFFFFFFFFFFFFFFFFFFFFFFFFFFFFFFFFFF AND PUSH20 0xFFFFFFFFFFFFFFFFFFFFFFFFFFFFFFFFFFFFFFFF AND DUP2 MSTORE PUSH1 0x20 ADD SWAP1 DUP2 MSTORE PUSH1 0x20 ADD PUSH1 0x0 KECCAK256 PUSH1 0x40 MLOAD DUP1 PUSH1 0xC0 ADD PUSH1 0x40 MSTORE SWAP1 DUP2 PUSH1 0x0 DUP3 ADD PUSH1 0x40 MLOAD DUP1 PUSH1 0x60 ADD PUSH1 0x40 MSTORE SWAP1 DUP2 PUSH1 0x0 DUP3 ADD DUP1 SLOAD PUSH2 0x753 SWAP1 PUSH2 0x473E JUMP JUMPDEST DUP1 PUSH1 0x1F ADD PUSH1 0x20 DUP1 SWAP2 DIV MUL PUSH1 0x20 ADD PUSH1 0x40 MLOAD SWAP1 DUP2 ADD PUSH1 0x40 MSTORE DUP1 SWAP3 SWAP2 SWAP1 DUP2 DUP2 MSTORE PUSH1 0x20 ADD DUP3 DUP1 SLOAD PUSH2 0x77F SWAP1 PUSH2 0x473E JUMP JUMPDEST DUP1 ISZERO PUSH2 0x7CC JUMPI DUP1 PUSH1 0x1F LT PUSH2 0x7A1 JUMPI PUSH2 0x100 DUP1 DUP4 SLOAD DIV MUL DUP4 MSTORE SWAP2 PUSH1 0x20 ADD SWAP2 PUSH2 0x7CC JUMP JUMPDEST DUP3 ADD SWAP2 SWAP1 PUSH1 0x0 MSTORE PUSH1 0x20 PUSH1 0x0 KECCAK256 SWAP1 JUMPDEST DUP2 SLOAD DUP2 MSTORE SWAP1 PUSH1 0x1 ADD SWAP1 PUSH1 0x20 ADD DUP1 DUP4 GT PUSH2 0x7AF JUMPI DUP3 SWAP1 SUB PUSH1 0x1F AND DUP3 ADD SWAP2 JUMPDEST POP POP POP POP POP DUP2 MSTORE PUSH1 0x20 ADD PUSH1 0x1 DUP3 ADD SLOAD DUP2 MSTORE PUSH1 0x20 ADD PUSH1 0x2 DUP3 ADD DUP1 SLOAD PUSH2 0x7EF SWAP1 PUSH2 0x473E JUMP JUMPDEST DUP1 PUSH1 0x1F ADD PUSH1 0x20 DUP1 SWAP2 DIV MUL PUSH1 0x20 ADD PUSH1 0x40 MLOAD SWAP1 DUP2 ADD PUSH1 0x40 MSTORE DUP1 SWAP3 SWAP2 SWAP1 DUP2 DUP2 MSTORE PUSH1 0x20 ADD DUP3 DUP1 SLOAD PUSH2 0x81B SWAP1 PUSH2 0x473E JUMP JUMPDEST DUP1 ISZERO PUSH2 0x868 JUMPI DUP1 PUSH1 0x1F LT PUSH2 0x83D JUMPI PUSH2 0x100 DUP1 DUP4 SLOAD DIV MUL DUP4 MSTORE SWAP2 PUSH1 0x20 ADD SWAP2 PUSH2 0x868 JUMP JUMPDEST DUP3 ADD SWAP2 SWAP1 PUSH1 0x0 MSTORE PUSH1 0x20 PUSH1 0x0 KECCAK256 SWAP1 JUMPDEST DUP2 SLOAD DUP2 MSTORE SWAP1 PUSH1 0x1 ADD SWAP1 PUSH1 0x20 ADD DUP1 DUP4 GT PUSH2 0x84B JUMPI DUP3 SWAP1 SUB PUSH1 0x1F AND DUP3 ADD SWAP2 JUMPDEST POP POP POP POP POP DUP2 MSTORE POP POP DUP2 MSTORE PUSH1 0x20 ADD PUSH1 0x3 DUP3 ADD PUSH1 0x40 MLOAD DUP1 PUSH1 0xE0 ADD PUSH1 0x40 MSTORE SWAP1 DUP2 PUSH1 0x0 DUP3 ADD SLOAD DUP2 MSTORE PUSH1 0x20 ADD PUSH1 0x1 DUP3 ADD SLOAD DUP2 MSTORE PUSH1 0x20 ADD PUSH1 0x2 DUP3 ADD SLOAD DUP2 MSTORE PUSH1 0x20 ADD PUSH1 0x3 DUP3 ADD SLOAD DUP2 MSTORE PUSH1 0x20 ADD PUSH1 0x4 DUP3 ADD SLOAD DUP2 MSTORE PUSH1 0x20 ADD PUSH1 0x5 DUP3 ADD SLOAD DUP2 MSTORE PUSH1 0x20 ADD PUSH1 0x6 DUP3 ADD SLOAD DUP2 MSTORE POP POP DUP2 MSTORE PUSH1 0x20 ADD PUSH1 0xA DUP3 ADD PUSH1 0x40 MLOAD DUP1 PUSH2 0x100 ADD PUSH1 0x40 MSTORE SWAP1 DUP2 PUSH1 0x0 DUP3 ADD SLOAD DUP2 MSTORE PUSH1 0x20 ADD PUSH1 0x1 DUP3 ADD SLOAD DUP2 MSTORE PUSH1 0x20 ADD PUSH1 0x2 DUP3 ADD DUP1 SLOAD DUP1 PUSH1 0x20 MUL PUSH1 0x20 ADD PUSH1 0x40 MLOAD SWAP1 DUP2 ADD PUSH1 0x40 MSTORE DUP1 SWAP3 SWAP2 SWAP1 DUP2 DUP2 MSTORE PUSH1 0x20 ADD DUP3 DUP1 SLOAD DUP1 ISZERO PUSH2 0x943 JUMPI PUSH1 0x20 MUL DUP3 ADD SWAP2 SWAP1 PUSH1 0x0 MSTORE PUSH1 0x20 PUSH1 0x0 KECCAK256 SWAP1 JUMPDEST DUP2 SLOAD DUP2 MSTORE PUSH1 0x20 ADD SWAP1 PUSH1 0x1 ADD SWAP1 DUP1 DUP4 GT PUSH2 0x92F JUMPI JUMPDEST POP POP POP POP POP DUP2 MSTORE PUSH1 0x20 ADD PUSH1 0x3 DUP3 ADD DUP1 SLOAD DUP1 PUSH1 0x20 MUL PUSH1 0x20 ADD PUSH1 0x40 MLOAD SWAP1 DUP2 ADD PUSH1 0x40 MSTORE DUP1 SWAP3 SWAP2 SWAP1 DUP2 DUP2 MSTORE PUSH1 0x20 ADD DUP3 DUP1 SLOAD DUP1 ISZERO PUSH2 0x99B JUMPI PUSH1 0x20 MUL DUP3 ADD SWAP2 SWAP1 PUSH1 0x0 MSTORE PUSH1 0x20 PUSH1 0x0 KECCAK256 SWAP1 JUMPDEST DUP2 SLOAD DUP2 MSTORE PUSH1 0x20 ADD SWAP1 PUSH1 0x1 ADD SWAP1 DUP1 DUP4 GT PUSH2 0x987 JUMPI JUMPDEST POP POP POP POP POP DUP2 MSTORE PUSH1 0x20 ADD PUSH1 0x4 DUP3 ADD SLOAD DUP2 MSTORE PUSH1 0x20 ADD PUSH1 0x5 DUP3 ADD SLOAD DUP2 MSTORE PUSH1 0x20 ADD PUSH1 0x6 DUP3 ADD SLOAD DUP2 MSTORE PUSH1 0x20 ADD PUSH1 0x7 DUP3 ADD SLOAD DUP2 MSTORE POP POP DUP2 MSTORE PUSH1 0x20 ADD PUSH1 0x12 DUP3 ADD PUSH1 0x40 MLOAD DUP1 PUSH1 0x60 ADD PUSH1 0x40 MSTORE SWAP1 DUP2 PUSH1 0x0 DUP3 ADD DUP1 SLOAD DUP1 PUSH1 0x20 MUL PUSH1 0x20 ADD PUSH1 0x40 MLOAD SWAP1 DUP2 ADD PUSH1 0x40 MSTORE DUP1 SWAP3 SWAP2 SWAP1 DUP2 DUP2 MSTORE PUSH1 0x20 ADD PUSH1 0x0 SWAP1 JUMPDEST DUP3 DUP3 LT ISZERO PUSH2 0xAB1 JUMPI DUP4 DUP3 SWAP1 PUSH1 0x0 MSTORE PUSH1 0x20 PUSH1 0x0 KECCAK256 ADD DUP1 SLOAD PUSH2 0xA24 SWAP1 PUSH2 0x473E JUMP JUMPDEST DUP1 PUSH1 0x1F ADD PUSH1 0x20 DUP1 SWAP2 DIV MUL PUSH1 0x20 ADD PUSH1 0x40 MLOAD SWAP1 DUP2 ADD PUSH1 0x40 MSTORE DUP1 SWAP3 SWAP2 SWAP1 DUP2 DUP2 MSTORE PUSH1 0x20 ADD DUP3 DUP1 SLOAD PUSH2 0xA50 SWAP1 PUSH2 0x473E JUMP JUMPDEST DUP1 ISZERO PUSH2 0xA9D JUMPI DUP1 PUSH1 0x1F LT PUSH2 0xA72 JUMPI PUSH2 0x100 DUP1 DUP4 SLOAD DIV MUL DUP4 MSTORE SWAP2 PUSH1 0x20 ADD SWAP2 PUSH2 0xA9D JUMP JUMPDEST DUP3 ADD SWAP2 SWAP1 PUSH1 0x0 MSTORE PUSH1 0x20 PUSH1 0x0 KECCAK256 SWAP1 JUMPDEST DUP2 SLOAD DUP2 MSTORE SWAP1 PUSH1 0x1 ADD SWAP1 PUSH1 0x20 ADD DUP1 DUP4 GT PUSH2 0xA80 JUMPI DUP3 SWAP1 SUB PUSH1 0x1F AND DUP3 ADD SWAP2 JUMPDEST POP POP POP POP POP DUP2 MSTORE PUSH1 0x20 ADD SWAP1 PUSH1 0x1 ADD SWAP1 PUSH2 0xA05 JUMP JUMPDEST POP POP POP POP DUP2 MSTORE PUSH1 0x20 ADD PUSH1 0x1 DUP3 ADD DUP1 SLOAD PUSH2 0xAC9 SWAP1 PUSH2 0x473E JUMP JUMPDEST DUP1 PUSH1 0x1F ADD PUSH1 0x20 DUP1 SWAP2 DIV MUL PUSH1 0x20 ADD PUSH1 0x40 MLOAD SWAP1 DUP2 ADD PUSH1 0x40 MSTORE DUP1 SWAP3 SWAP2 SWAP1 DUP2 DUP2 MSTORE PUSH1 0x20 ADD DUP3 DUP1 SLOAD PUSH2 0xAF5 SWAP1 PUSH2 0x473E JUMP JUMPDEST DUP1 ISZERO PUSH2 0xB42 JUMPI DUP1 PUSH1 0x1F LT PUSH2 0xB17 JUMPI PUSH2 0x100 DUP1 DUP4 SLOAD DIV MUL DUP4 MSTORE SWAP2 PUSH1 0x20 ADD SWAP2 PUSH2 0xB42 JUMP JUMPDEST DUP3 ADD SWAP2 SWAP1 PUSH1 0x0 MSTORE PUSH1 0x20 PUSH1 0x0 KECCAK256 SWAP1 JUMPDEST DUP2 SLOAD DUP2 MSTORE SWAP1 PUSH1 0x1 ADD SWAP1 PUSH1 0x20 ADD DUP1 DUP4 GT PUSH2 0xB25 JUMPI DUP3 SWAP1 SUB PUSH1 0x1F AND DUP3 ADD SWAP2 JUMPDEST POP POP POP POP POP DUP2 MSTORE PUSH1 0x20 ADD PUSH1 0x2 DUP3 ADD DUP1 SLOAD DUP1 PUSH1 0x20 MUL PUSH1 0x20 ADD PUSH1 0x40 MLOAD SWAP1 DUP2 ADD PUSH1 0x40 MSTORE DUP1 SWAP3 SWAP2 SWAP1 DUP2 DUP2 MSTORE PUSH1 0x20 ADD PUSH1 0x0 SWAP1 JUMPDEST DUP3 DUP3 LT ISZERO PUSH2 0xC1C JUMPI DUP4 DUP3 SWAP1 PUSH1 0x0 MSTORE PUSH1 0x20 PUSH1 0x0 KECCAK256 ADD DUP1 SLOAD PUSH2 0xB8F SWAP1 PUSH2 0x473E JUMP JUMPDEST DUP1 PUSH1 0x1F ADD PUSH1 0x20 DUP1 SWAP2 DIV MUL PUSH1 0x20 ADD PUSH1 0x40 MLOAD SWAP1 DUP2 ADD PUSH1 0x40 MSTORE DUP1 SWAP3 SWAP2 SWAP1 DUP2 DUP2 MSTORE PUSH1 0x20 ADD DUP3 DUP1 SLOAD PUSH2 0xBBB SWAP1 PUSH2 0x473E JUMP JUMPDEST DUP1 ISZERO PUSH2 0xC08 JUMPI DUP1 PUSH1 0x1F LT PUSH2 0xBDD JUMPI PUSH2 0x100 DUP1 DUP4 SLOAD DIV MUL DUP4 MSTORE SWAP2 PUSH1 0x20 ADD SWAP2 PUSH2 0xC08 JUMP JUMPDEST DUP3 ADD SWAP2 SWAP1 PUSH1 0x0 MSTORE PUSH1 0x20 PUSH1 0x0 KECCAK256 SWAP1 JUMPDEST DUP2 SLOAD DUP2 MSTORE SWAP1 PUSH1 0x1 ADD SWAP1 PUSH1 0x20 ADD DUP1 DUP4 GT PUSH2 0xBEB JUMPI DUP3 SWAP1 SUB PUSH1 0x1F AND DUP3 ADD SWAP2 JUMPDEST POP POP POP POP POP DUP2 MSTORE PUSH1 0x20 ADD SWAP1 PUSH1 0x1 ADD SWAP1 PUSH2 0xB70 JUMP JUMPDEST POP POP POP POP DUP2 MSTORE POP POP DUP2 MSTORE PUSH1 0x20 ADD PUSH1 0x15 DUP3 ADD PUSH1 0x40 MLOAD DUP1 PUSH1 0x40 ADD PUSH1 0x40 MSTORE SWAP1 DUP2 PUSH1 0x0 DUP3 ADD SLOAD DUP2 MSTORE PUSH1 0x20 ADD PUSH1 0x1 DUP3 ADD SLOAD DUP2 MSTORE POP POP DUP2 MSTORE PUSH1 0x20 ADD PUSH1 0x17 DUP3 ADD SLOAD DUP2 MSTORE POP POP SWAP1 POP SWAP2 SWAP1 POP JUMP JUMPDEST PUSH1 0x1 PUSH1 0x0 CALLER PUSH20 0xFFFFFFFFFFFFFFFFFFFFFFFFFFFFFFFFFFFFFFFF AND PUSH20 0xFFFFFFFFFFFFFFFFFFFFFFFFFFFFFFFFFFFFFFFF AND DUP2 MSTORE PUSH1 0x20 ADD SWAP1 DUP2 MSTORE PUSH1 0x20 ADD PUSH1 0x0 KECCAK256 PUSH1 0x0 SWAP1 SLOAD SWAP1 PUSH2 0x100 EXP SWAP1 DIV PUSH1 0xFF AND PUSH2 0xCED JUMPI PUSH1 0x40 MLOAD PUSH32 0x8C379A000000000000000000000000000000000000000000000000000000000 DUP2 MSTORE PUSH1 0x4 ADD PUSH2 0xCE4 SWAP1 PUSH2 0x46EF JUMP JUMPDEST PUSH1 0x40 MLOAD DUP1 SWAP2 SUB SWAP1 REVERT JUMPDEST DUP1 PUSH1 0x0 DUP1 CALLER PUSH20 0xFFFFFFFFFFFFFFFFFFFFFFFFFFFFFFFFFFFFFFFF AND PUSH20 0xFFFFFFFFFFFFFFFFFFFFFFFFFFFFFFFFFFFFFFFF AND DUP2 MSTORE PUSH1 0x20 ADD SWAP1 DUP2 MSTORE PUSH1 0x20 ADD PUSH1 0x0 KECCAK256 PUSH1 0x0 ADD PUSH1 0x1 ADD DUP2 SWAP1 SSTORE POP POP JUMP JUMPDEST PUSH1 0x0 PUSH1 0x1 PUSH1 0x0 DUP4 PUSH20 0xFFFFFFFFFFFFFFFFFFFFFFFFFFFFFFFFFFFFFFFF AND PUSH20 0xFFFFFFFFFFFFFFFFFFFFFFFFFFFFFFFFFFFFFFFF AND DUP2 MSTORE PUSH1 0x20 ADD SWAP1 DUP2 MSTORE PUSH1 0x20 ADD PUSH1 0x0 KECCAK256 PUSH1 0x0 SWAP1 SLOAD SWAP1 PUSH2 0x100 EXP SWAP1 DIV PUSH1 0xFF AND PUSH2 0xDC7 JUMPI PUSH1 0x40 MLOAD PUSH32 0x8C379A000000000000000000000000000000000000000000000000000000000 DUP2 MSTORE PUSH1 0x4 ADD PUSH2 0xDBE SWAP1 PUSH2 0x46EF JUMP JUMPDEST PUSH1 0x40 MLOAD DUP1 SWAP2 SUB SWAP1 REVERT JUMPDEST PUSH1 0x0 DUP1 PUSH1 0x0 DUP5 PUSH20 0xFFFFFFFFFFFFFFFFFFFFFFFFFFFFFFFFFFFFFFFF AND PUSH20 0xFFFFFFFFFFFFFFFFFFFFFFFFFFFFFFFFFFFFFFFF AND DUP2 MSTORE PUSH1 0x20 ADD SWAP1 DUP2 MSTORE PUSH1 0x20 ADD PUSH1 0x0 KECCAK256 PUSH1 0x40 MLOAD DUP1 PUSH1 0xC0 ADD PUSH1 0x40 MSTORE SWAP1 DUP2 PUSH1 0x0 DUP3 ADD PUSH1 0x40 MLOAD DUP1 PUSH1 0x60 ADD PUSH1 0x40 MSTORE SWAP1 DUP2 PUSH1 0x0 DUP3 ADD DUP1 SLOAD PUSH2 0xE32 SWAP1 PUSH2 0x473E JUMP JUMPDEST DUP1 PUSH1 0x1F ADD PUSH1 0x20 DUP1 SWAP2 DIV MUL PUSH1 0x20 ADD PUSH1 0x40 MLOAD SWAP1 DUP2 ADD PUSH1 0x40 MSTORE DUP1 SWAP3 SWAP2 SWAP1 DUP2 DUP2 MSTORE PUSH1 0x20 ADD DUP3 DUP1 SLOAD PUSH2 0xE5E SWAP1 PUSH2 0x473E JUMP JUMPDEST DUP1 ISZERO PUSH2 0xEAB JUMPI DUP1 PUSH1 0x1F LT PUSH2 0xE80 JUMPI PUSH2 0x100 DUP1 DUP4 SLOAD DIV MUL DUP4 MSTORE SWAP2 PUSH1 0x20 ADD SWAP2 PUSH2 0xEAB JUMP JUMPDEST DUP3 ADD SWAP2 SWAP1 PUSH1 0x0 MSTORE PUSH1 0x20 PUSH1 0x0 KECCAK256 SWAP1 JUMPDEST DUP2 SLOAD DUP2 MSTORE SWAP1 PUSH1 0x1 ADD SWAP1 PUSH1 0x20 ADD DUP1 DUP4 GT PUSH2 0xE8E JUMPI DUP3 SWAP1 SUB PUSH1 0x1F AND DUP3 ADD SWAP2 JUMPDEST POP POP POP POP POP DUP2 MSTORE PUSH1 0x20 ADD PUSH1 0x1 DUP3 ADD SLOAD DUP2 MSTORE PUSH1 0x20 ADD PUSH1 0x2 DUP3 ADD DUP1 SLOAD PUSH2 0xECE SWAP1 PUSH2 0x473E JUMP JUMPDEST DUP1 PUSH1 0x1F ADD PUSH1 0x20 DUP1 SWAP2 DIV MUL PUSH1 0x20 ADD PUSH1 0x40 MLOAD SWAP1 DUP2 ADD PUSH1 0x40 MSTORE DUP1 SWAP3 SWAP2 SWAP1 DUP2 DUP2 MSTORE PUSH1 0x20 ADD DUP3 DUP1 SLOAD PUSH2 0xEFA SWAP1 PUSH2 0x473E JUMP JUMPDEST DUP1 ISZERO PUSH2 0xF47 JUMPI DUP1 PUSH1 0x1F LT PUSH2 0xF1C JUMPI PUSH2 0x100 DUP1 DUP4 SLOAD DIV MUL DUP4 MSTORE SWAP2 PUSH1 0x20 ADD SWAP2 PUSH2 0xF47 JUMP JUMPDEST DUP3 ADD SWAP2 SWAP1 PUSH1 0x0 MSTORE PUSH1 0x20 PUSH1 0x0 KECCAK256 SWAP1 JUMPDEST DUP2 SLOAD DUP2 MSTORE SWAP1 PUSH1 0x1 ADD SWAP1 PUSH1 0x20 ADD DUP1 DUP4 GT PUSH2 0xF2A JUMPI DUP3 SWAP1 SUB PUSH1 0x1F AND DUP3 ADD SWAP2 JUMPDEST POP POP POP POP POP DUP2 MSTORE POP POP DUP2 MSTORE PUSH1 0x20 ADD PUSH1 0x3 DUP3 ADD PUSH1 0x40 MLOAD DUP1 PUSH1 0xE0 ADD PUSH1 0x40 MSTORE SWAP1 DUP2 PUSH1 0x0 DUP3 ADD SLOAD DUP2 MSTORE PUSH1 0x20 ADD PUSH1 0x1 DUP3 ADD SLOAD DUP2 MSTORE PUSH1 0x20 ADD PUSH1 0x2 DUP3 ADD SLOAD DUP2 MSTORE PUSH1 0x20 ADD PUSH1 0x3 DUP3 ADD SLOAD DUP2 MSTORE PUSH1 0x20 ADD PUSH1 0x4 DUP3 ADD SLOAD DUP2 MSTORE PUSH1 0x20 ADD PUSH1 0x5 DUP3 ADD SLOAD DUP2 MSTORE PUSH1 0x20 ADD PUSH1 0x6 DUP3 ADD SLOAD DUP2 MSTORE POP POP DUP2 MSTORE PUSH1 0x20 ADD PUSH1 0xA DUP3 ADD PUSH1 0x40 MLOAD DUP1 PUSH2 0x100 ADD PUSH1 0x40 MSTORE SWAP1 DUP2 PUSH1 0x0 DUP3 ADD SLOAD DUP2 MSTORE PUSH1 0x20 ADD PUSH1 0x1 DUP3 ADD SLOAD DUP2 MSTORE PUSH1 0x20 ADD PUSH1 0x2 DUP3 ADD DUP1 SLOAD DUP1 PUSH1 0x20 MUL PUSH1 0x20 ADD PUSH1 0x40 MLOAD SWAP1 DUP2 ADD PUSH1 0x40 MSTORE DUP1 SWAP3 SWAP2 SWAP1 DUP2 DUP2 MSTORE PUSH1 0x20 ADD DUP3 DUP1 SLOAD DUP1 ISZERO PUSH2 0x1022 JUMPI PUSH1 0x20 MUL DUP3 ADD SWAP2 SWAP1 PUSH1 0x0 MSTORE PUSH1 0x20 PUSH1 0x0 KECCAK256 SWAP1 JUMPDEST DUP2 SLOAD DUP2 MSTORE PUSH1 0x20 ADD SWAP1 PUSH1 0x1 ADD SWAP1 DUP1 DUP4 GT PUSH2 0x100E JUMPI JUMPDEST POP POP POP POP POP DUP2 MSTORE PUSH1 0x20 ADD PUSH1 0x3 DUP3 ADD DUP1 SLOAD DUP1 PUSH1 0x20 MUL PUSH1 0x20 ADD PUSH1 0x40 MLOAD SWAP1 DUP2 ADD PUSH1 0x40 MSTORE DUP1 SWAP3 SWAP2 SWAP1 DUP2 DUP2 MSTORE PUSH1 0x20 ADD DUP3 DUP1 SLOAD DUP1 ISZERO PUSH2 0x107A JUMPI PUSH1 0x20 MUL DUP3 ADD SWAP2 SWAP1 PUSH1 0x0 MSTORE PUSH1 0x20 PUSH1 0x0 KECCAK256 SWAP1 JUMPDEST DUP2 SLOAD DUP2 MSTORE PUSH1 0x20 ADD SWAP1 PUSH1 0x1 ADD SWAP1 DUP1 DUP4 GT PUSH2 0x1066 JUMPI JUMPDEST POP POP POP POP POP DUP2 MSTORE PUSH1 0x20 ADD PUSH1 0x4 DUP3 ADD SLOAD DUP2 MSTORE PUSH1 0x20 ADD PUSH1 0x5 DUP3 ADD SLOAD DUP2 MSTORE PUSH1 0x20 ADD PUSH1 0x6 DUP3 ADD SLOAD DUP2 MSTORE PUSH1 0x20 ADD PUSH1 0x7 DUP3 ADD SLOAD DUP2 MSTORE POP POP DUP2 MSTORE PUSH1 0x20 ADD PUSH1 0x12 DUP3 ADD PUSH1 0x40 MLOAD DUP1 PUSH1 0x60 ADD PUSH1 0x40 MSTORE SWAP1 DUP2 PUSH1 0x0 DUP3 ADD DUP1 SLOAD DUP1 PUSH1 0x20 MUL PUSH1 0x20 ADD PUSH1 0x40 MLOAD SWAP1 DUP2 ADD PUSH1 0x40 MSTORE DUP1 SWAP3 SWAP2 SWAP1 DUP2 DUP2 MSTORE PUSH1 0x20 ADD PUSH1 0x0 SWAP1 JUMPDEST DUP3 DUP3 LT ISZERO PUSH2 0x1190 JUMPI DUP4 DUP3 SWAP1 PUSH1 0x0 MSTORE PUSH1 0x20 PUSH1 0x0 KECCAK256 ADD DUP1 SLOAD PUSH2 0x1103 SWAP1 PUSH2 0x473E JUMP JUMPDEST DUP1 PUSH1 0x1F ADD PUSH1 0x20 DUP1 SWAP2 DIV MUL PUSH1 0x20 ADD PUSH1 0x40 MLOAD SWAP1 DUP2 ADD PUSH1 0x40 MSTORE DUP1 SWAP3 SWAP2 SWAP1 DUP2 DUP2 MSTORE PUSH1 0x20 ADD DUP3 DUP1 SLOAD PUSH2 0x112F SWAP1 PUSH2 0x473E JUMP JUMPDEST DUP1 ISZERO PUSH2 0x117C JUMPI DUP1 PUSH1 0x1F LT PUSH2 0x1151 JUMPI PUSH2 0x100 DUP1 DUP4 SLOAD DIV MUL DUP4 MSTORE SWAP2 PUSH1 0x20 ADD SWAP2 PUSH2 0x117C JUMP JUMPDEST DUP3 ADD SWAP2 SWAP1 PUSH1 0x0 MSTORE PUSH1 0x20 PUSH1 0x0 KECCAK256 SWAP1 JUMPDEST DUP2 SLOAD DUP2 MSTORE SWAP1 PUSH1 0x1 ADD SWAP1 PUSH1 0x20 ADD DUP1 DUP4 GT PUSH2 0x115F JUMPI DUP3 SWAP1 SUB PUSH1 0x1F AND DUP3 ADD SWAP2 JUMPDEST POP POP POP POP POP DUP2 MSTORE PUSH1 0x20 ADD SWAP1 PUSH1 0x1 ADD SWAP1 PUSH2 0x10E4 JUMP JUMPDEST POP POP POP POP DUP2 MSTORE PUSH1 0x20 ADD PUSH1 0x1 DUP3 ADD DUP1 SLOAD PUSH2 0x11A8 SWAP1 PUSH2 0x473E JUMP JUMPDEST DUP1 PUSH1 0x1F ADD PUSH1 0x20 DUP1 SWAP2 DIV MUL PUSH1 0x20 ADD PUSH1 0x40 MLOAD SWAP1 DUP2 ADD PUSH1 0x40 MSTORE DUP1 SWAP3 SWAP2 SWAP1 DUP2 DUP2 MSTORE PUSH1 0x20 ADD DUP3 DUP1 SLOAD PUSH2 0x11D4 SWAP1 PUSH2 0x473E JUMP JUMPDEST DUP1 ISZERO PUSH2 0x1221 JUMPI DUP1 PUSH1 0x1F LT PUSH2 0x11F6 JUMPI PUSH2 0x100 DUP1 DUP4 SLOAD DIV MUL DUP4 MSTORE SWAP2 PUSH1 0x20 ADD SWAP2 PUSH2 0x1221 JUMP JUMPDEST DUP3 ADD SWAP2 SWAP1 PUSH1 0x0 MSTORE PUSH1 0x20 PUSH1 0x0 KECCAK256 SWAP1 JUMPDEST DUP2 SLOAD DUP2 MSTORE SWAP1 PUSH1 0x1 ADD SWAP1 PUSH1 0x20 ADD DUP1 DUP4 GT PUSH2 0x1204 JUMPI DUP3 SWAP1 SUB PUSH1 0x1F AND DUP3 ADD SWAP2 JUMPDEST POP POP POP POP POP DUP2 MSTORE PUSH1 0x20 ADD PUSH1 0x2 DUP3 ADD DUP1 SLOAD DUP1 PUSH1 0x20 MUL PUSH1 0x20 ADD PUSH1 0x40 MLOAD SWAP1 DUP2 ADD PUSH1 0x40 MSTORE DUP1 SWAP3 SWAP2 SWAP1 DUP2 DUP2 MSTORE PUSH1 0x20 ADD PUSH1 0x0 SWAP1 JUMPDEST DUP3 DUP3 LT ISZERO PUSH2 0x12FB JUMPI DUP4 DUP3 SWAP1 PUSH1 0x0 MSTORE PUSH1 0x20 PUSH1 0x0 KECCAK256 ADD DUP1 SLOAD PUSH2 0x126E SWAP1 PUSH2 0x473E JUMP JUMPDEST DUP1 PUSH1 0x1F ADD PUSH1 0x20 DUP1 SWAP2 DIV MUL PUSH1 0x20 ADD PUSH1 0x40 MLOAD SWAP1 DUP2 ADD PUSH1 0x40 MSTORE DUP1 SWAP3 SWAP2 SWAP1 DUP2 DUP2 MSTORE PUSH1 0x20 ADD DUP3 DUP1 SLOAD PUSH2 0x129A SWAP1 PUSH2 0x473E JUMP JUMPDEST DUP1 ISZERO PUSH2 0x12E7 JUMPI DUP1 PUSH1 0x1F LT PUSH2 0x12BC JUMPI PUSH2 0x100 DUP1 DUP4 SLOAD DIV MUL DUP4 MSTORE SWAP2 PUSH1 0x20 ADD SWAP2 PUSH2 0x12E7 JUMP JUMPDEST DUP3 ADD SWAP2 SWAP1 PUSH1 0x0 MSTORE PUSH1 0x20 PUSH1 0x0 KECCAK256 SWAP1 JUMPDEST DUP2 SLOAD DUP2 MSTORE SWAP1 PUSH1 0x1 ADD SWAP1 PUSH1 0x20 ADD DUP1 DUP4 GT PUSH2 0x12CA JUMPI DUP3 SWAP1 SUB PUSH1 0x1F AND DUP3 ADD SWAP2 JUMPDEST POP POP POP POP POP DUP2 MSTORE PUSH1 0x20 ADD SWAP1 PUSH1 0x1 ADD SWAP1 PUSH2 0x124F JUMP JUMPDEST POP POP POP POP DUP2 MSTORE POP POP DUP2 MSTORE PUSH1 0x20 ADD PUSH1 0x15 DUP3 ADD PUSH1 0x40 MLOAD DUP1 PUSH1 0x40 ADD PUSH1 0x40 MSTORE SWAP1 DUP2 PUSH1 0x0 DUP3 ADD SLOAD DUP2 MSTORE PUSH1 0x20 ADD PUSH1 0x1 DUP3 ADD SLOAD DUP2 MSTORE POP POP DUP2 MSTORE PUSH1 0x20 ADD PUSH1 0x17 DUP3 ADD SLOAD DUP2 MSTORE POP POP SWAP1 POP PUSH1 0x0 DUP2 PUSH1 0x40 ADD MLOAD PUSH1 0x80 ADD MLOAD SUB PUSH2 0x1355 JUMPI PUSH1 0x0 SWAP2 POP POP PUSH2 0x1381 JUMP JUMPDEST DUP1 PUSH1 0x40 ADD MLOAD PUSH1 0x80 ADD MLOAD PUSH1 0x64 DUP3 PUSH1 0x40 ADD MLOAD PUSH1 0xA0 ADD MLOAD PUSH2 0x1373 SWAP2 SWAP1 PUSH2 0x4AF6 JUMP JUMPDEST PUSH2 0x137D SWAP2 SWAP1 PUSH2 0x4B67 JUMP JUMPDEST SWAP2 POP POP JUMPDEST SWAP2 SWAP1 POP JUMP JUMPDEST PUSH1 0x1 PUSH1 0x0 CALLER PUSH20 0xFFFFFFFFFFFFFFFFFFFFFFFFFFFFFFFFFFFFFFFF AND PUSH20 0xFFFFFFFFFFFFFFFFFFFFFFFFFFFFFFFFFFFFFFFF AND DUP2 MSTORE PUSH1 0x20 ADD SWAP1 DUP2 MSTORE PUSH1 0x20 ADD PUSH1 0x0 KECCAK256 PUSH1 0x0 SWAP1 SLOAD SWAP1 PUSH2 0x100 EXP SWAP1 DIV PUSH1 0xFF AND PUSH2 0x1412 JUMPI PUSH1 0x40 MLOAD PUSH32 0x8C379A000000000000000000000000000000000000000000000000000000000 DUP2 MSTORE PUSH1 0x4 ADD PUSH2 0x1409 SWAP1 PUSH2 0x46EF JUMP JUMPDEST PUSH1 0x40 MLOAD DUP1 SWAP2 SUB SWAP1 REVERT JUMPDEST PUSH1 0x0 DUP1 CALLER PUSH20 0xFFFFFFFFFFFFFFFFFFFFFFFFFFFFFFFFFFFFFFFF AND PUSH20 0xFFFFFFFFFFFFFFFFFFFFFFFFFFFFFFFFFFFFFFFF AND DUP2 MSTORE PUSH1 0x20 ADD SWAP1 DUP2 MSTORE PUSH1 0x20 ADD PUSH1 0x0 KECCAK256 PUSH1 0x12 ADD PUSH1 0x2 ADD DUP2 SWAP1 DUP1 PUSH1 0x1 DUP2 SLOAD ADD DUP1 DUP3 SSTORE DUP1 SWAP2 POP POP PUSH1 0x1 SWAP1 SUB SWAP1 PUSH1 0x0 MSTORE PUSH1 0x20 PUSH1 0x0 KECCAK256 ADD PUSH1 0x0 SWAP1 SWAP2 SWAP1 SWAP2 SWAP1 SWAP2 POP SWAP1 DUP2 PUSH2 0x1488 SWAP2 SWAP1 PUSH2 0x491B JUMP JUMPDEST POP POP JUMP JUMPDEST PUSH1 0x1 PUSH1 0x0 CALLER PUSH20 0xFFFFFFFFFFFFFFFFFFFFFFFFFFFFFFFFFFFFFFFF AND PUSH20 0xFFFFFFFFFFFFFFFFFFFFFFFFFFFFFFFFFFFFFFFF AND DUP2 MSTORE PUSH1 0x20 ADD SWAP1 DUP2 MSTORE PUSH1 0x20 ADD PUSH1 0x0 KECCAK256 PUSH1 0x0 SWAP1 SLOAD SWAP1 PUSH2 0x100 EXP SWAP1 DIV PUSH1 0xFF AND PUSH2 0x1518 JUMPI PUSH1 0x40 MLOAD PUSH32 0x8C379A000000000000000000000000000000000000000000000000000000000 DUP2 MSTORE PUSH1 0x4 ADD PUSH2 0x150F SWAP1 PUSH2 0x46EF JUMP JUMPDEST PUSH1 0x40 MLOAD DUP1 SWAP2 SUB SWAP1 REVERT JUMPDEST PUSH1 0x0 DUP1 PUSH1 0x0 CALLER PUSH20 0xFFFFFFFFFFFFFFFFFFFFFFFFFFFFFFFFFFFFFFFF AND PUSH20 0xFFFFFFFFFFFFFFFFFFFFFFFFFFFFFFFFFFFFFFFF AND DUP2 MSTORE PUSH1 0x20 ADD SWAP1 DUP2 MSTORE PUSH1 0x20 ADD PUSH1 0x0 KECCAK256 SWAP1 POP PUSH1 0x40 MLOAD PUSH1 0x20 ADD PUSH2 0x1569 SWAP1 PUSH2 0x4BEF JUMP JUMPDEST PUSH1 0x40 MLOAD PUSH1 0x20 DUP2 DUP4 SUB SUB DUP2 MSTORE SWAP1 PUSH1 0x40 MSTORE DUP1 MLOAD SWAP1 PUSH1 0x20 ADD KECCAK256 DUP4 PUSH1 0x40 MLOAD PUSH1 0x20 ADD PUSH2 0x1590 SWAP2 SWAP1 PUSH2 0x4C35 JUMP JUMPDEST PUSH1 0x40 MLOAD PUSH1 0x20 DUP2 DUP4 SUB SUB DUP2 MSTORE SWAP1 PUSH1 0x40 MSTORE DUP1 MLOAD SWAP1 PUSH1 0x20 ADD KECCAK256 SUB PUSH2 0x15D8 JUMPI PUSH2 0x15C8 DUP3 DUP3 PUSH1 0x3 ADD PUSH1 0x3 ADD SLOAD PUSH2 0x15C1 SWAP2 SWAP1 PUSH2 0x4AC2 JUMP JUMPDEST PUSH1 0x64 PUSH2 0x2F68 JUMP JUMPDEST DUP2 PUSH1 0x3 ADD PUSH1 0x3 ADD DUP2 SWAP1 SSTORE POP PUSH2 0x1790 JUMP JUMPDEST PUSH1 0x40 MLOAD PUSH1 0x20 ADD PUSH2 0x15E7 SWAP1 PUSH2 0x4C98 JUMP JUMPDEST PUSH1 0x40 MLOAD PUSH1 0x20 DUP2 DUP4 SUB SUB DUP2 MSTORE SWAP1 PUSH1 0x40 MSTORE DUP1 MLOAD SWAP1 PUSH1 0x20 ADD KECCAK256 DUP4 PUSH1 0x40 MLOAD PUSH1 0x20 ADD PUSH2 0x160E SWAP2 SWAP1 PUSH2 0x4C35 JUMP JUMPDEST PUSH1 0x40 MLOAD PUSH1 0x20 DUP2 DUP4 SUB SUB DUP2 MSTORE SWAP1 PUSH1 0x40 MSTORE DUP1 MLOAD SWAP1 PUSH1 0x20 ADD KECCAK256 SUB PUSH2 0x1656 JUMPI PUSH2 0x1646 DUP3 DUP3 PUSH1 0x3 ADD PUSH1 0x4 ADD SLOAD PUSH2 0x163F SWAP2 SWAP1 PUSH2 0x4AC2 JUMP JUMPDEST PUSH1 0x64 PUSH2 0x2F68 JUMP JUMPDEST DUP2 PUSH1 0x3 ADD PUSH1 0x4 ADD DUP2 SWAP1 SSTORE POP PUSH2 0x178F JUMP JUMPDEST PUSH1 0x40 MLOAD PUSH1 0x20 ADD PUSH2 0x1665 SWAP1 PUSH2 0x4CF9 JUMP JUMPDEST PUSH1 0x40 MLOAD PUSH1 0x20 DUP2 DUP4 SUB SUB DUP2 MSTORE SWAP1 PUSH1 0x40 MSTORE DUP1 MLOAD SWAP1 PUSH1 0x20 ADD KECCAK256 DUP4 PUSH1 0x40 MLOAD PUSH1 0x20 ADD PUSH2 0x168C SWAP2 SWAP1 PUSH2 0x4C35 JUMP JUMPDEST PUSH1 0x40 MLOAD PUSH1 0x20 DUP2 DUP4 SUB SUB DUP2 MSTORE SWAP1 PUSH1 0x40 MSTORE DUP1 MLOAD SWAP1 PUSH1 0x20 ADD KECCAK256 SUB PUSH2 0x16D4 JUMPI PUSH2 0x16C4 DUP3 DUP3 PUSH1 0x3 ADD PUSH1 0x5 ADD SLOAD PUSH2 0x16BD SWAP2 SWAP1 PUSH2 0x4AC2 JUMP JUMPDEST PUSH1 0x64 PUSH2 0x2F68 JUMP JUMPDEST DUP2 PUSH1 0x3 ADD PUSH1 0x5 ADD DUP2 SWAP1 SSTORE POP PUSH2 0x178E JUMP JUMPDEST PUSH1 0x40 MLOAD PUSH1 0x20 ADD PUSH2 0x16E3 SWAP1 PUSH2 0x4D5A JUMP JUMPDEST PUSH1 0x40 MLOAD PUSH1 0x20 DUP2 DUP4 SUB SUB DUP2 MSTORE SWAP1 PUSH1 0x40 MSTORE DUP1 MLOAD SWAP1 PUSH1 0x20 ADD KECCAK256 DUP4 PUSH1 0x40 MLOAD PUSH1 0x20 ADD PUSH2 0x170A SWAP2 SWAP1 PUSH2 0x4C35 JUMP JUMPDEST PUSH1 0x40 MLOAD PUSH1 0x20 DUP2 DUP4 SUB SUB DUP2 MSTORE SWAP1 PUSH1 0x40 MSTORE DUP1 MLOAD SWAP1 PUSH1 0x20 ADD KECCAK256 SUB PUSH2 0x1752 JUMPI PUSH2 0x1742 DUP3 DUP3 PUSH1 0x3 ADD PUSH1 0x6 ADD SLOAD PUSH2 0x173B SWAP2 SWAP1 PUSH2 0x4AC2 JUMP JUMPDEST PUSH1 0x64 PUSH2 0x2F68 JUMP JUMPDEST DUP2 PUSH1 0x3 ADD PUSH1 0x6 ADD DUP2 SWAP1 SSTORE POP PUSH2 0x178D JUMP JUMPDEST PUSH1 0x40 MLOAD PUSH32 0x8C379A000000000000000000000000000000000000000000000000000000000 DUP2 MSTORE PUSH1 0x4 ADD PUSH2 0x1784 SWAP1 PUSH2 0x4DBB JUMP JUMPDEST PUSH1 0x40 MLOAD DUP1 SWAP2 SUB SWAP1 REVERT JUMPDEST JUMPDEST JUMPDEST JUMPDEST POP POP POP JUMP JUMPDEST PUSH1 0x32 DUP2 JUMP JUMPDEST PUSH1 0x1 PUSH1 0x20 MSTORE DUP1 PUSH1 0x0 MSTORE PUSH1 0x40 PUSH1 0x0 KECCAK256 PUSH1 0x0 SWAP2 POP SLOAD SWAP1 PUSH2 0x100 EXP SWAP1 DIV PUSH1 0xFF AND DUP2 JUMP JUMPDEST PUSH1 0x1 PUSH1 0x0 CALLER PUSH20 0xFFFFFFFFFFFFFFFFFFFFFFFFFFFFFFFFFFFFFFFF AND PUSH20 0xFFFFFFFFFFFFFFFFFFFFFFFFFFFFFFFFFFFFFFFF AND DUP2 MSTORE PUSH1 0x20 ADD SWAP1 DUP2 MSTORE PUSH1 0x20 ADD PUSH1 0x0 KECCAK256 PUSH1 0x0 SWAP1 SLOAD SWAP1 PUSH2 0x100 EXP SWAP1 DIV PUSH1 0xFF AND PUSH2 0x1846 JUMPI PUSH1 0x40 MLOAD PUSH32 0x8C379A000000000000000000000000000000000000000000000000000000000 DUP2 MSTORE PUSH1 0x4 ADD PUSH2 0x183D SWAP1 PUSH2 0x46EF JUMP JUMPDEST PUSH1 0x40 MLOAD DUP1 SWAP2 SUB SWAP1 REVERT JUMPDEST PUSH1 0x0 DUP1 CALLER PUSH20 0xFFFFFFFFFFFFFFFFFFFFFFFFFFFFFFFFFFFFFFFF AND PUSH20 0xFFFFFFFFFFFFFFFFFFFFFFFFFFFFFFFFFFFFFFFF AND DUP2 MSTORE PUSH1 0x20 ADD SWAP1 DUP2 MSTORE PUSH1 0x20 ADD PUSH1 0x0 KECCAK256 PUSH1 0xA ADD PUSH1 0x2 ADD DUP2 SWAP1 DUP1 PUSH1 0x1 DUP2 SLOAD ADD DUP1 DUP3 SSTORE DUP1 SWAP2 POP POP PUSH1 0x1 SWAP1 SUB SWAP1 PUSH1 0x0 MSTORE PUSH1 0x20 PUSH1 0x0 KECCAK256 ADD PUSH1 0x0 SWAP1 SWAP2 SWAP1 SWAP2 SWAP1 SWAP2 POP SSTORE POP JUMP JUMPDEST PUSH1 0x1 PUSH1 0x0 CALLER PUSH20 0xFFFFFFFFFFFFFFFFFFFFFFFFFFFFFFFFFFFFFFFF AND PUSH20 0xFFFFFFFFFFFFFFFFFFFFFFFFFFFFFFFFFFFFFFFF AND DUP2 MSTORE PUSH1 0x20 ADD SWAP1 DUP2 MSTORE PUSH1 0x20 ADD PUSH1 0x0 KECCAK256 PUSH1 0x0 SWAP1 SLOAD SWAP1 PUSH2 0x100 EXP SWAP1 DIV PUSH1 0xFF AND PUSH2 0x1940 JUMPI PUSH1 0x40 MLOAD PUSH32 0x8C379A000000000000000000000000000000000000000000000000000000000 DUP2 MSTORE PUSH1 0x4 ADD PUSH2 0x1937 SWAP1 PUSH2 0x46EF JUMP JUMPDEST PUSH1 0x40 MLOAD DUP1 SWAP2 SUB SWAP1 REVERT JUMPDEST PUSH1 0x0 DUP1 PUSH1 0x0 CALLER PUSH20 0xFFFFFFFFFFFFFFFFFFFFFFFFFFFFFFFFFFFFFFFF AND PUSH20 0xFFFFFFFFFFFFFFFFFFFFFFFFFFFFFFFFFFFFFFFF AND DUP2 MSTORE PUSH1 0x20 ADD SWAP1 DUP2 MSTORE PUSH1 0x20 ADD PUSH1 0x0 KECCAK256 SWAP1 POP DUP1 PUSH1 0x15 ADD PUSH1 0x0 ADD SLOAD DUP3 PUSH2 0x1995 SWAP2 SWAP1 PUSH2 0x4DDB JUMP JUMPDEST DUP2 PUSH1 0x15 ADD PUSH1 0x1 ADD PUSH1 0x0 DUP3 DUP3 SLOAD PUSH2 0x19AB SWAP2 SWAP1 PUSH2 0x4AC2 JUMP JUMPDEST SWAP3 POP POP DUP2 SWAP1 SSTORE POP DUP2 DUP2 PUSH1 0x15 ADD PUSH1 0x0 ADD DUP2 SWAP1 SSTORE POP POP POP JUMP JUMPDEST PUSH1 0x0 PUSH1 0x1 PUSH1 0x0 DUP5 PUSH20 0xFFFFFFFFFFFFFFFFFFFFFFFFFFFFFFFFFFFFFFFF AND PUSH20 0xFFFFFFFFFFFFFFFFFFFFFFFFFFFFFFFFFFFFFFFF AND DUP2 MSTORE PUSH1 0x20 ADD SWAP1 DUP2 MSTORE PUSH1 0x20 ADD PUSH1 0x0 KECCAK256 PUSH1 0x0 SWAP1 SLOAD SWAP1 PUSH2 0x100 EXP SWAP1 DIV PUSH1 0xFF AND DUP1 ISZERO PUSH2 0x1A66 JUMPI POP PUSH1 0x1 PUSH1 0x0 DUP4 PUSH20 0xFFFFFFFFFFFFFFFFFFFFFFFFFFFFFFFFFFFFFFFF AND PUSH20 0xFFFFFFFFFFFFFFFFFFFFFFFFFFFFFFFFFFFFFFFF AND DUP2 MSTORE PUSH1 0x20 ADD SWAP1 DUP2 MSTORE PUSH1 0x20 ADD PUSH1 0x0 KECCAK256 PUSH1 0x0 SWAP1 SLOAD SWAP1 PUSH2 0x100 EXP SWAP1 DIV PUSH1 0xFF AND JUMPDEST PUSH2 0x1AA5 JUMPI PUSH1 0x40 MLOAD PUSH32 0x8C379A000000000000000000000000000000000000000000000000000000000 DUP2 MSTORE PUSH1 0x4 ADD PUSH2 0x1A9C SWAP1 PUSH2 0x4E81 JUMP JUMPDEST PUSH1 0x40 MLOAD DUP1 SWAP2 SUB SWAP1 REVERT JUMPDEST PUSH1 0x0 PUSH2 0x1AB0 DUP5 PUSH2 0x2F81 JUMP JUMPDEST SWAP1 POP PUSH1 0x0 PUSH2 0x1ABD DUP5 PUSH2 0x2F81 JUMP JUMPDEST SWAP1 POP DUP1 DUP3 GT PUSH2 0x1ACC JUMPI DUP4 PUSH2 0x1ACE JUMP JUMPDEST DUP5 JUMPDEST SWAP3 POP POP POP SWAP3 SWAP2 POP POP JUMP JUMPDEST PUSH1 0x1 PUSH1 0x0 CALLER PUSH20 0xFFFFFFFFFFFFFFFFFFFFFFFFFFFFFFFFFFFFFFFF AND PUSH20 0xFFFFFFFFFFFFFFFFFFFFFFFFFFFFFFFFFFFFFFFF AND DUP2 MSTORE PUSH1 0x20 ADD SWAP1 DUP2 MSTORE PUSH1 0x20 ADD PUSH1 0x0 KECCAK256 PUSH1 0x0 SWAP1 SLOAD SWAP1 PUSH2 0x100 EXP SWAP1 DIV PUSH1 0xFF AND PUSH2 0x1B64 JUMPI PUSH1 0x40 MLOAD PUSH32 0x8C379A000000000000000000000000000000000000000000000000000000000 DUP2 MSTORE PUSH1 0x4 ADD PUSH2 0x1B5B SWAP1 PUSH2 0x46EF JUMP JUMPDEST PUSH1 0x40 MLOAD DUP1 SWAP2 SUB SWAP1 REVERT JUMPDEST PUSH1 0x0 DUP1 PUSH1 0x0 CALLER PUSH20 0xFFFFFFFFFFFFFFFFFFFFFFFFFFFFFFFFFFFFFFFF AND PUSH20 0xFFFFFFFFFFFFFFFFFFFFFFFFFFFFFFFFFFFFFFFF AND DUP2 MSTORE PUSH1 0x20 ADD SWAP1 DUP2 MSTORE PUSH1 0x20 ADD PUSH1 0x0 KECCAK256 SWAP1 POP DUP7 DUP2 PUSH1 0xA ADD PUSH1 0x4 ADD PUSH1 0x0 DUP3 DUP3 SLOAD PUSH2 0x1BBD SWAP2 SWAP1 PUSH2 0x4AC2 JUMP JUMPDEST SWAP3 POP POP DUP2 SWAP1 SSTORE POP DUP6 DUP2 PUSH1 0xA ADD PUSH1 0x5 ADD PUSH1 0x0 DUP3 DUP3 SLOAD PUSH2 0x1BDB SWAP2 SWAP1 PUSH2 0x4AC2 JUMP JUMPDEST SWAP3 POP POP DUP2 SWAP1 SSTORE POP DUP5 DUP2 PUSH1 0xA ADD PUSH1 0x6 ADD PUSH1 0x0 DUP3 DUP3 SLOAD PUSH2 0x1BF9 SWAP2 SWAP1 PUSH2 0x4AC2 JUMP JUMPDEST SWAP3 POP POP DUP2 SWAP1 SSTORE POP DUP4 DUP2 PUSH1 0xA ADD PUSH1 0x7 ADD PUSH1 0x0 DUP3 DUP3 SLOAD PUSH2 0x1C17 SWAP2 SWAP1 PUSH2 0x4AC2 JUMP JUMPDEST SWAP3 POP POP DUP2 SWAP1 SSTORE POP DUP3 DUP2 PUSH1 0x15 ADD PUSH1 0x0 ADD DUP2 SWAP1 SSTORE POP DUP3 DUP2 PUSH1 0x15 ADD PUSH1 0x1 ADD PUSH1 0x0 DUP3 DUP3 SLOAD PUSH2 0x1C41 SWAP2 SWAP1 PUSH2 0x4AC2 JUMP JUMPDEST SWAP3 POP POP DUP2 SWAP1 SSTORE POP DUP2 DUP2 PUSH1 0x17 ADD DUP2 SWAP1 SSTORE POP PUSH1 0x4B DUP3 GT ISZERO PUSH2 0x1C88 JUMPI PUSH2 0x1C78 PUSH1 0x5 DUP3 PUSH1 0xA ADD PUSH1 0x1 ADD SLOAD PUSH2 0x1C71 SWAP2 SWAP1 PUSH2 0x4AC2 JUMP JUMPDEST PUSH1 0x64 PUSH2 0x2F68 JUMP JUMPDEST DUP2 PUSH1 0xA ADD PUSH1 0x1 ADD DUP2 SWAP1 SSTORE POP PUSH2 0x1CBC JUMP JUMPDEST PUSH1 0x19 DUP3 LT ISZERO PUSH2 0x1CBB JUMPI PUSH2 0x1CAF PUSH1 0x5 DUP3 PUSH1 0xA ADD PUSH1 0x1 ADD SLOAD PUSH2 0x1CA8 SWAP2 SWAP1 PUSH2 0x4DDB JUMP JUMPDEST PUSH1 0x0 PUSH2 0x3573 JUMP JUMPDEST DUP2 PUSH1 0xA ADD PUSH1 0x1 ADD DUP2 SWAP1 SSTORE POP JUMPDEST JUMPDEST POP POP POP POP POP POP POP JUMP JUMPDEST PUSH1 0x0 PUSH1 0x1 PUSH1 0x0 DUP4 PUSH20 0xFFFFFFFFFFFFFFFFFFFFFFFFFFFFFFFFFFFFFFFF AND PUSH20 0xFFFFFFFFFFFFFFFFFFFFFFFFFFFFFFFFFFFFFFFF AND DUP2 MSTORE PUSH1 0x20 ADD SWAP1 DUP2 MSTORE PUSH1 0x20 ADD PUSH1 0x0 KECCAK256 PUSH1 0x0 SWAP1 SLOAD SWAP1 PUSH2 0x100 EXP SWAP1 DIV PUSH1 0xFF AND PUSH2 0x1D53 JUMPI PUSH1 0x40 MLOAD PUSH32 0x8C379A000000000000000000000000000000000000000000000000000000000 DUP2 MSTORE PUSH1 0x4 ADD PUSH2 0x1D4A SWAP1 PUSH2 0x46EF JUMP JUMPDEST PUSH1 0x40 MLOAD DUP1 SWAP2 SUB SWAP1 REVERT JUMPDEST PUSH1 0x0 DUP1 DUP4 PUSH20 0xFFFFFFFFFFFFFFFFFFFFFFFFFFFFFFFFFFFFFFFF AND PUSH20 0xFFFFFFFFFFFFFFFFFFFFFFFFFFFFFFFFFFFFFFFF AND DUP2 MSTORE PUSH1 0x20 ADD SWAP1 DUP2 MSTORE PUSH1 0x20 ADD PUSH1 0x0 KECCAK256 PUSH1 0xA ADD PUSH1 0x3 ADD DUP1 SLOAD SWAP1 POP SWAP1 POP SWAP2 SWAP1 POP JUMP JUMPDEST PUSH1 0x1 PUSH1 0x0 CALLER PUSH20 0xFFFFFFFFFFFFFFFFFFFFFFFFFFFFFFFFFFFFFFFF AND PUSH20 0xFFFFFFFFFFFFFFFFFFFFFFFFFFFFFFFFFFFFFFFF AND DUP2 MSTORE PUSH1 0x20 ADD SWAP1 DUP2 MSTORE PUSH1 0x20 ADD PUSH1 0x0 KECCAK256 PUSH1 0x0 SWAP1 SLOAD SWAP1 PUSH2 0x100 EXP SWAP1 DIV PUSH1 0xFF AND ISZERO PUSH2 0x1E2F JUMPI PUSH1 0x40 MLOAD PUSH32 0x8C379A000000000000000000000000000000000000000000000000000000000 DUP2 MSTORE PUSH1 0x4 ADD PUSH2 0x1E26 SWAP1 PUSH2 0x4EED JUMP JUMPDEST PUSH1 0x40 MLOAD DUP1 SWAP2 SUB SWAP1 REVERT JUMPDEST PUSH1 0x40 MLOAD DUP1 PUSH1 0xC0 ADD PUSH1 0x40 MSTORE DUP1 PUSH1 0x40 MLOAD DUP1 PUSH1 0x60 ADD PUSH1 0x40 MSTORE DUP1 DUP11 DUP2 MSTORE PUSH1 0x20 ADD DUP10 DUP2 MSTORE PUSH1 0x20 ADD DUP9 DUP2 MSTORE POP DUP2 MSTORE PUSH1 0x20 ADD PUSH1 0x40 MLOAD DUP1 PUSH1 0xE0 ADD PUSH1 0x40 MSTORE DUP1 PUSH1 0x32 DUP2 MSTORE PUSH1 0x20 ADD PUSH1 0x32 DUP2 MSTORE PUSH1 0x20 ADD PUSH1 0x32 DUP2 MSTORE PUSH1 0x20 ADD PUSH1 0x32 DUP2 MSTORE PUSH1 0x20 ADD PUSH1 0x32 DUP2 MSTORE PUSH1 0x20 ADD PUSH1 0x32 DUP2 MSTORE PUSH1 0x20 ADD PUSH1 0x32 DUP2 MSTORE POP DUP2 MSTORE PUSH1 0x20 ADD PUSH1 0x40 MLOAD DUP1 PUSH2 0x100 ADD PUSH1 0x40 MSTORE DUP1 DUP8 DUP2 MSTORE PUSH1 0x20 ADD PUSH1 0x32 DUP2 MSTORE PUSH1 0x20 ADD PUSH1 0x0 PUSH8 0xFFFFFFFFFFFFFFFF DUP2 GT ISZERO PUSH2 0x1ECD JUMPI PUSH2 0x1ECC PUSH2 0x3843 JUMP JUMPDEST JUMPDEST PUSH1 0x40 MLOAD SWAP1 DUP1 DUP3 MSTORE DUP1 PUSH1 0x20 MUL PUSH1 0x20 ADD DUP3 ADD PUSH1 0x40 MSTORE DUP1 ISZERO PUSH2 0x1EFB JUMPI DUP2 PUSH1 0x20 ADD PUSH1 0x20 DUP3 MUL DUP1 CALLDATASIZE DUP4 CALLDATACOPY DUP1 DUP3 ADD SWAP2 POP POP SWAP1 POP JUMPDEST POP DUP2 MSTORE PUSH1 0x20 ADD PUSH1 0x0 PUSH8 0xFFFFFFFFFFFFFFFF DUP2 GT ISZERO PUSH2 0x1F1C JUMPI PUSH2 0x1F1B PUSH2 0x3843 JUMP JUMPDEST JUMPDEST PUSH1 0x40 MLOAD SWAP1 DUP1 DUP3 MSTORE DUP1 PUSH1 0x20 MUL PUSH1 0x20 ADD DUP3 ADD PUSH1 0x40 MSTORE DUP1 ISZERO PUSH2 0x1F4A JUMPI DUP2 PUSH1 0x20 ADD PUSH1 0x20 DUP3 MUL DUP1 CALLDATASIZE DUP4 CALLDATACOPY DUP1 DUP3 ADD SWAP2 POP POP SWAP1 POP JUMPDEST POP DUP2 MSTORE PUSH1 0x20 ADD PUSH1 0x0 DUP2 MSTORE PUSH1 0x20 ADD PUSH1 0x0 DUP2 MSTORE PUSH1 0x20 ADD PUSH1 0x0 DUP2 MSTORE PUSH1 0x20 ADD PUSH1 0x0 DUP2 MSTORE POP DUP2 MSTORE PUSH1 0x20 ADD PUSH1 0x40 MLOAD DUP1 PUSH1 0x60 ADD PUSH1 0x40 MSTORE DUP1 DUP7 DUP2 MSTORE PUSH1 0x20 ADD DUP6 DUP2 MSTORE PUSH1 0x20 ADD DUP5 DUP2 MSTORE POP DUP2 MSTORE PUSH1 0x20 ADD PUSH1 0x40 MLOAD DUP1 PUSH1 0x40 ADD PUSH1 0x40 MSTORE DUP1 PUSH1 0x0 DUP2 MSTORE PUSH1 0x20 ADD PUSH1 0x0 DUP2 MSTORE POP DUP2 MSTORE PUSH1 0x20 ADD PUSH1 0x32 DUP2 MSTORE POP PUSH1 0x0 DUP1 CALLER PUSH20 0xFFFFFFFFFFFFFFFFFFFFFFFFFFFFFFFFFFFFFFFF AND PUSH20 0xFFFFFFFFFFFFFFFFFFFFFFFFFFFFFFFFFFFFFFFF AND DUP2 MSTORE PUSH1 0x20 ADD SWAP1 DUP2 MSTORE PUSH1 0x20 ADD PUSH1 0x0 KECCAK256 PUSH1 0x0 DUP3 ADD MLOAD DUP2 PUSH1 0x0 ADD PUSH1 0x0 DUP3 ADD MLOAD DUP2 PUSH1 0x0 ADD SWAP1 DUP2 PUSH2 0x200C SWAP2 SWAP1 PUSH2 0x491B JUMP JUMPDEST POP PUSH1 0x20 DUP3 ADD MLOAD DUP2 PUSH1 0x1 ADD SSTORE PUSH1 0x40 DUP3 ADD MLOAD DUP2 PUSH1 0x2 ADD SWAP1 DUP2 PUSH2 0x202C SWAP2 SWAP1 PUSH2 0x491B JUMP JUMPDEST POP POP POP PUSH1 0x20 DUP3 ADD MLOAD DUP2 PUSH1 0x3 ADD PUSH1 0x0 DUP3 ADD MLOAD DUP2 PUSH1 0x0 ADD SSTORE PUSH1 0x20 DUP3 ADD MLOAD DUP2 PUSH1 0x1 ADD SSTORE PUSH1 0x40 DUP3 ADD MLOAD DUP2 PUSH1 0x2 ADD SSTORE PUSH1 0x60 DUP3 ADD MLOAD DUP2 PUSH1 0x3 ADD SSTORE PUSH1 0x80 DUP3 ADD MLOAD DUP2 PUSH1 0x4 ADD SSTORE PUSH1 0xA0 DUP3 ADD MLOAD DUP2 PUSH1 0x5 ADD SSTORE PUSH1 0xC0 DUP3 ADD MLOAD DUP2 PUSH1 0x6 ADD SSTORE POP POP PUSH1 0x40 DUP3 ADD MLOAD DUP2 PUSH1 0xA ADD PUSH1 0x0 DUP3 ADD MLOAD DUP2 PUSH1 0x0 ADD SSTORE PUSH1 0x20 DUP3 ADD MLOAD DUP2 PUSH1 0x1 ADD SSTORE PUSH1 0x40 DUP3 ADD MLOAD DUP2 PUSH1 0x2 ADD SWAP1 DUP1 MLOAD SWAP1 PUSH1 0x20 ADD SWAP1 PUSH2 0x20B9 SWAP3 SWAP2 SWAP1 PUSH2 0x3639 JUMP JUMPDEST POP PUSH1 0x60 DUP3 ADD MLOAD DUP2 PUSH1 0x3 ADD SWAP1 DUP1 MLOAD SWAP1 PUSH1 0x20 ADD SWAP1 PUSH2 0x20D6 SWAP3 SWAP2 SWAP1 PUSH2 0x3639 JUMP JUMPDEST POP PUSH1 0x80 DUP3 ADD MLOAD DUP2 PUSH1 0x4 ADD SSTORE PUSH1 0xA0 DUP3 ADD MLOAD DUP2 PUSH1 0x5 ADD SSTORE PUSH1 0xC0 DUP3 ADD MLOAD DUP2 PUSH1 0x6 ADD SSTORE PUSH1 0xE0 DUP3 ADD MLOAD DUP2 PUSH1 0x7 ADD SSTORE POP POP PUSH1 0x60 DUP3 ADD MLOAD DUP2 PUSH1 0x12 ADD PUSH1 0x0 DUP3 ADD MLOAD DUP2 PUSH1 0x0 ADD SWAP1 DUP1 MLOAD SWAP1 PUSH1 0x20 ADD SWAP1 PUSH2 0x2126 SWAP3 SWAP2 SWAP1 PUSH2 0x358C JUMP JUMPDEST POP PUSH1 0x20 DUP3 ADD MLOAD DUP2 PUSH1 0x1 ADD SWAP1 DUP2 PUSH2 0x213C SWAP2 SWAP1 PUSH2 0x491B JUMP JUMPDEST POP PUSH1 0x40 DUP3 ADD MLOAD DUP2 PUSH1 0x2 ADD SWAP1 DUP1 MLOAD SWAP1 PUSH1 0x20 ADD SWAP1 PUSH2 0x2159 SWAP3 SWAP2 SWAP1 PUSH2 0x358C JUMP JUMPDEST POP POP POP PUSH1 0x80 DUP3 ADD MLOAD DUP2 PUSH1 0x15 ADD PUSH1 0x0 DUP3 ADD MLOAD DUP2 PUSH1 0x0 ADD SSTORE PUSH1 0x20 DUP3 ADD MLOAD DUP2 PUSH1 0x1 ADD SSTORE POP POP PUSH1 0xA0 DUP3 ADD MLOAD DUP2 PUSH1 0x17 ADD SSTORE SWAP1 POP POP PUSH1 0x1 DUP1 PUSH1 0x0 CALLER PUSH20 0xFFFFFFFFFFFFFFFFFFFFFFFFFFFFFFFFFFFFFFFF AND PUSH20 0xFFFFFFFFFFFFFFFFFFFFFFFFFFFFFFFFFFFFFFFF AND DUP2 MSTORE PUSH1 0x20 ADD SWAP1 DUP2 MSTORE PUSH1 0x20 ADD PUSH1 0x0 KECCAK256 PUSH1 0x0 PUSH2 0x100 EXP DUP2 SLOAD DUP2 PUSH1 0xFF MUL NOT AND SWAP1 DUP4 ISZERO ISZERO MUL OR SWAP1 SSTORE POP PUSH1 0x2 PUSH1 0x0 DUP2 SLOAD DUP1 SWAP3 SWAP2 SWAP1 PUSH2 0x21F2 SWAP1 PUSH2 0x4F0D JUMP JUMPDEST SWAP2 SWAP1 POP SSTORE POP CALLER PUSH20 0xFFFFFFFFFFFFFFFFFFFFFFFFFFFFFFFFFFFFFFFF AND PUSH32 0x6E99D8B42F37C49B00851BF0DB4AA99E30435020B884209B829316588A63C8D2 DUP9 PUSH1 0x40 MLOAD PUSH2 0x223D SWAP2 SWAP1 PUSH2 0x4F8E JUMP JUMPDEST PUSH1 0x40 MLOAD DUP1 SWAP2 SUB SWAP1 LOG2 POP POP POP POP POP POP POP JUMP JUMPDEST PUSH1 0x1 PUSH1 0x0 CALLER PUSH20 0xFFFFFFFFFFFFFFFFFFFFFFFFFFFFFFFFFFFFFFFF AND PUSH20 0xFFFFFFFFFFFFFFFFFFFFFFFFFFFFFFFFFFFFFFFF AND DUP2 MSTORE PUSH1 0x20 ADD SWAP1 DUP2 MSTORE PUSH1 0x20 ADD PUSH1 0x0 KECCAK256 PUSH1 0x0 SWAP1 SLOAD SWAP1 PUSH2 0x100 EXP SWAP1 DIV PUSH1 0xFF AND PUSH2 0x22DA JUMPI PUSH1 0x40 MLOAD PUSH32 0x8C379A000000000000000000000000000000000000000000000000000000000 DUP2 MSTORE PUSH1 0x4 ADD PUSH2 0x22D1 SWAP1 PUSH2 0x46EF JUMP JUMPDEST PUSH1 0x40 MLOAD DUP1 SWAP2 SUB SWAP1 REVERT JUMPDEST PUSH1 0x0 DUP1 PUSH1 0x0 CALLER PUSH20 0xFFFFFFFFFFFFFFFFFFFFFFFFFFFFFFFFFFFFFFFF AND PUSH20 0xFFFFFFFFFFFFFFFFFFFFFFFFFFFFFFFFFFFFFFFF AND DUP2 MSTORE PUSH1 0x20 ADD SWAP1 DUP2 MSTORE PUSH1 0x20 ADD PUSH1 0x0 KECCAK256 SWAP1 POP PUSH2 0x2339 DUP5 DUP3 PUSH1 0x3 ADD PUSH1 0x0 ADD SLOAD PUSH2 0x2332 SWAP2 SWAP1 PUSH2 0x4AC2 JUMP JUMPDEST PUSH1 0x64 PUSH2 0x2F68 JUMP JUMPDEST DUP2 PUSH1 0x3 ADD PUSH1 0x0 ADD DUP2 SWAP1 SSTORE POP PUSH2 0x2361 DUP4 DUP3 PUSH1 0x3 ADD PUSH1 0x1 ADD SLOAD PUSH2 0x235A SWAP2 SWAP1 PUSH2 0x4AC2 JUMP JUMPDEST PUSH1 0x64 PUSH2 0x2F68 JUMP JUMPDEST DUP2 PUSH1 0x3 ADD PUSH1 0x1 ADD DUP2 SWAP1 SSTORE POP PUSH2 0x2389 DUP3 DUP3 PUSH1 0x3 ADD PUSH1 0x2 ADD SLOAD PUSH2 0x2382 SWAP2 SWAP1 PUSH2 0x4AC2 JUMP JUMPDEST PUSH1 0x64 PUSH2 0x2F68 JUMP JUMPDEST DUP2 PUSH1 0x3 ADD PUSH1 0x2 ADD DUP2 SWAP1 SSTORE POP CALLER PUSH20 0xFFFFFFFFFFFFFFFFFFFFFFFFFFFFFFFFFFFFFFFF AND PUSH32 0x8D76ED962F65885945DE900A3E70814688B7F77A9C51E3AEEF040B2E8A9FA8A3 DUP3 PUSH1 0x3 ADD PUSH1 0x0 ADD SLOAD DUP4 PUSH1 0x3 ADD PUSH1 0x1 ADD SLOAD DUP5 PUSH1 0x3 ADD PUSH1 0x2 ADD SLOAD PUSH1 0x40 MLOAD PUSH2 0x23F3 SWAP4 SWAP3 SWAP2 SWAP1 PUSH2 0x4FB0 JUMP JUMPDEST PUSH1 0x40 MLOAD DUP1 SWAP2 SUB SWAP1 LOG2 POP POP POP POP JUMP JUMPDEST PUSH1 0x0 PUSH1 0x1 PUSH1 0x0 DUP4 PUSH20 0xFFFFFFFFFFFFFFFFFFFFFFFFFFFFFFFFFFFFFFFF AND PUSH20 0xFFFFFFFFFFFFFFFFFFFFFFFFFFFFFFFFFFFFFFFF AND DUP2 MSTORE PUSH1 0x20 ADD SWAP1 DUP2 MSTORE PUSH1 0x20 ADD PUSH1 0x0 KECCAK256 PUSH1 0x0 SWAP1 SLOAD SWAP1 PUSH2 0x100 EXP SWAP1 DIV PUSH1 0xFF AND PUSH2 0x248F JUMPI PUSH1 0x40 MLOAD PUSH32 0x8C379A000000000000000000000000000000000000000000000000000000000 DUP2 MSTORE PUSH1 0x4 ADD PUSH2 0x2486 SWAP1 PUSH2 0x46EF JUMP JUMPDEST PUSH1 0x40 MLOAD DUP1 SWAP2 SUB SWAP1 REVERT JUMPDEST PUSH1 0x0 DUP1 PUSH1 0x0 DUP5 PUSH20 0xFFFFFFFFFFFFFFFFFFFFFFFFFFFFFFFFFFFFFFFF AND PUSH20 0xFFFFFFFFFFFFFFFFFFFFFFFFFFFFFFFFFFFFFFFF AND DUP2 MSTORE PUSH1 0x20 ADD SWAP1 DUP2 MSTORE PUSH1 0x20 ADD PUSH1 0x0 KECCAK256 PUSH1 0x40 MLOAD DUP1 PUSH1 0xC0 ADD PUSH1 0x40 MSTORE SWAP1 DUP2 PUSH1 0x0 DUP3 ADD PUSH1 0x40 MLOAD DUP1 PUSH1 0x60 ADD PUSH1 0x40 MSTORE SWAP1 DUP2 PUSH1 0x0 DUP3 ADD DUP1 SLOAD PUSH2 0x24FA SWAP1 PUSH2 0x473E JUMP JUMPDEST DUP1 PUSH1 0x1F ADD PUSH1 0x20 DUP1 SWAP2 DIV MUL PUSH1 0x20 ADD PUSH1 0x40 MLOAD SWAP1 DUP2 ADD PUSH1 0x40 MSTORE DUP1 SWAP3 SWAP2 SWAP1 DUP2 DUP2 MSTORE PUSH1 0x20 ADD DUP3 DUP1 SLOAD PUSH2 0x2526 SWAP1 PUSH2 0x473E JUMP JUMPDEST DUP1 ISZERO PUSH2 0x2573 JUMPI DUP1 PUSH1 0x1F LT PUSH2 0x2548 JUMPI PUSH2 0x100 DUP1 DUP4 SLOAD DIV MUL DUP4 MSTORE SWAP2 PUSH1 0x20 ADD SWAP2 PUSH2 0x2573 JUMP JUMPDEST DUP3 ADD SWAP2 SWAP1 PUSH1 0x0 MSTORE PUSH1 0x20 PUSH1 0x0 KECCAK256 SWAP1 JUMPDEST DUP2 SLOAD DUP2 MSTORE SWAP1 PUSH1 0x1 ADD SWAP1 PUSH1 0x20 ADD DUP1 DUP4 GT PUSH2 0x2556 JUMPI DUP3 SWAP1 SUB PUSH1 0x1F AND DUP3 ADD SWAP2 JUMPDEST POP POP POP POP POP DUP2 MSTORE PUSH1 0x20 ADD PUSH1 0x1 DUP3 ADD SLOAD DUP2 MSTORE PUSH1 0x20 ADD PUSH1 0x2 DUP3 ADD DUP1 SLOAD PUSH2 0x2596 SWAP1 PUSH2 0x473E JUMP JUMPDEST DUP1 PUSH1 0x1F ADD PUSH1 0x20 DUP1 SWAP2 DIV MUL PUSH1 0x20 ADD PUSH1 0x40 MLOAD SWAP1 DUP2 ADD PUSH1 0x40 MSTORE DUP1 SWAP3 SWAP2 SWAP1 DUP2 DUP2 MSTORE PUSH1 0x20 ADD DUP3 DUP1 SLOAD PUSH2 0x25C2 SWAP1 PUSH2 0x473E JUMP JUMPDEST DUP1 ISZERO PUSH2 0x260F JUMPI DUP1 PUSH1 0x1F LT PUSH2 0x25E4 JUMPI PUSH2 0x100 DUP1 DUP4 SLOAD DIV MUL DUP4 MSTORE SWAP2 PUSH1 0x20 ADD SWAP2 PUSH2 0x260F JUMP JUMPDEST DUP3 ADD SWAP2 SWAP1 PUSH1 0x0 MSTORE PUSH1 0x20 PUSH1 0x0 KECCAK256 SWAP1 JUMPDEST DUP2 SLOAD DUP2 MSTORE SWAP1 PUSH1 0x1 ADD SWAP1 PUSH1 0x20 ADD DUP1 DUP4 GT PUSH2 0x25F2 JUMPI DUP3 SWAP1 SUB PUSH1 0x1F AND DUP3 ADD SWAP2 JUMPDEST POP POP POP POP POP DUP2 MSTORE POP POP DUP2 MSTORE PUSH1 0x20 ADD PUSH1 0x3 DUP3 ADD PUSH1 0x40 MLOAD DUP1 PUSH1 0xE0 ADD PUSH1 0x40 MSTORE SWAP1 DUP2 PUSH1 0x0 DUP3 ADD SLOAD DUP2 MSTORE PUSH1 0x20 ADD PUSH1 0x1 DUP3 ADD SLOAD DUP2 MSTORE PUSH1 0x20 ADD PUSH1 0x2 DUP3 ADD SLOAD DUP2 MSTORE PUSH1 0x20 ADD PUSH1 0x3 DUP3 ADD SLOAD DUP2 MSTORE PUSH1 0x20 ADD PUSH1 0x4 DUP3 ADD SLOAD DUP2 MSTORE PUSH1 0x20 ADD PUSH1 0x5 DUP3 ADD SLOAD DUP2 MSTORE PUSH1 0x20 ADD PUSH1 0x6 DUP3 ADD SLOAD DUP2 MSTORE POP POP DUP2 MSTORE PUSH1 0x20 ADD PUSH1 0xA DUP3 ADD PUSH1 0x40 MLOAD DUP1 PUSH2 0x100 ADD PUSH1 0x40 MSTORE SWAP1 DUP2 PUSH1 0x0 DUP3 ADD SLOAD DUP2 MSTORE PUSH1 0x20 ADD PUSH1 0x1 DUP3 ADD SLOAD DUP2 MSTORE PUSH1 0x20 ADD PUSH1 0x2 DUP3 ADD DUP1 SLOAD DUP1 PUSH1 0x20 MUL PUSH1 0x20 ADD PUSH1 0x40 MLOAD SWAP1 DUP2 ADD PUSH1 0x40 MSTORE DUP1 SWAP3 SWAP2 SWAP1 DUP2 DUP2 MSTORE PUSH1 0x20 ADD DUP3 DUP1 SLOAD DUP1 ISZERO PUSH2 0x26EA JUMPI PUSH1 0x20 MUL DUP3 ADD SWAP2 SWAP1 PUSH1 0x0 MSTORE PUSH1 0x20 PUSH1 0x0 KECCAK256 SWAP1 JUMPDEST DUP2 SLOAD DUP2 MSTORE PUSH1 0x20 ADD SWAP1 PUSH1 0x1 ADD SWAP1 DUP1 DUP4 GT PUSH2 0x26D6 JUMPI JUMPDEST POP POP POP POP POP DUP2 MSTORE PUSH1 0x20 ADD PUSH1 0x3 DUP3 ADD DUP1 SLOAD DUP1 PUSH1 0x20 MUL PUSH1 0x20 ADD PUSH1 0x40 MLOAD SWAP1 DUP2 ADD PUSH1 0x40 MSTORE DUP1 SWAP3 SWAP2 SWAP1 DUP2 DUP2 MSTORE PUSH1 0x20 ADD DUP3 DUP1 SLOAD DUP1 ISZERO PUSH2 0x2742 JUMPI PUSH1 0x20 MUL DUP3 ADD SWAP2 SWAP1 PUSH1 0x0 MSTORE PUSH1 0x20 PUSH1 0x0 KECCAK256 SWAP1 JUMPDEST DUP2 SLOAD DUP2 MSTORE PUSH1 0x20 ADD SWAP1 PUSH1 0x1 ADD SWAP1 DUP1 DUP4 GT PUSH2 0x272E JUMPI JUMPDEST POP POP POP POP POP DUP2 MSTORE PUSH1 0x20 ADD PUSH1 0x4 DUP3 ADD SLOAD DUP2 MSTORE PUSH1 0x20 ADD PUSH1 0x5 DUP3 ADD SLOAD DUP2 MSTORE PUSH1 0x20 ADD PUSH1 0x6 DUP3 ADD SLOAD DUP2 MSTORE PUSH1 0x20 ADD PUSH1 0x7 DUP3 ADD SLOAD DUP2 MSTORE POP POP DUP2 MSTORE PUSH1 0x20 ADD PUSH1 0x12 DUP3 ADD PUSH1 0x40 MLOAD DUP1 PUSH1 0x60 ADD PUSH1 0x40 MSTORE SWAP1 DUP2 PUSH1 0x0 DUP3 ADD DUP1 SLOAD DUP1 PUSH1 0x20 MUL PUSH1 0x20 ADD PUSH1 0x40 MLOAD SWAP1 DUP2 ADD PUSH1 0x40 MSTORE DUP1 SWAP3 SWAP2 SWAP1 DUP2 DUP2 MSTORE PUSH1 0x20 ADD PUSH1 0x0 SWAP1 JUMPDEST DUP3 DUP3 LT ISZERO PUSH2 0x2858 JUMPI DUP4 DUP3 SWAP1 PUSH1 0x0 MSTORE PUSH1 0x20 PUSH1 0x0 KECCAK256 ADD DUP1 SLOAD PUSH2 0x27CB SWAP1 PUSH2 0x473E JUMP JUMPDEST DUP1 PUSH1 0x1F ADD PUSH1 0x20 DUP1 SWAP2 DIV MUL PUSH1 0x20 ADD PUSH1 0x40 MLOAD SWAP1 DUP2 ADD PUSH1 0x40 MSTORE DUP1 SWAP3 SWAP2 SWAP1 DUP2 DUP2 MSTORE PUSH1 0x20 ADD DUP3 DUP1 SLOAD PUSH2 0x27F7 SWAP1 PUSH2 0x473E JUMP JUMPDEST DUP1 ISZERO PUSH2 0x2844 JUMPI DUP1 PUSH1 0x1F LT PUSH2 0x2819 JUMPI PUSH2 0x100 DUP1 DUP4 SLOAD DIV MUL DUP4 MSTORE SWAP2 PUSH1 0x20 ADD SWAP2 PUSH2 0x2844 JUMP JUMPDEST DUP3 ADD SWAP2 SWAP1 PUSH1 0x0 MSTORE PUSH1 0x20 PUSH1 0x0 KECCAK256 SWAP1 JUMPDEST DUP2 SLOAD DUP2 MSTORE SWAP1 PUSH1 0x1 ADD SWAP1 PUSH1 0x20 ADD DUP1 DUP4 GT PUSH2 0x2827 JUMPI DUP3 SWAP1 SUB PUSH1 0x1F AND DUP3 ADD SWAP2 JUMPDEST POP POP POP POP POP DUP2 MSTORE PUSH1 0x20 ADD SWAP1 PUSH1 0x1 ADD SWAP1 PUSH2 0x27AC JUMP JUMPDEST POP POP POP POP DUP2 MSTORE PUSH1 0x20 ADD PUSH1 0x1 DUP3 ADD DUP1 SLOAD PUSH2 0x2870 SWAP1 PUSH2 0x473E JUMP JUMPDEST DUP1 PUSH1 0x1F ADD PUSH1 0x20 DUP1 SWAP2 DIV MUL PUSH1 0x20 ADD PUSH1 0x40 MLOAD SWAP1 DUP2 ADD PUSH1 0x40 MSTORE DUP1 SWAP3 SWAP2 SWAP1 DUP2 DUP2 MSTORE PUSH1 0x20 ADD DUP3 DUP1 SLOAD PUSH2 0x289C SWAP1 PUSH2 0x473E JUMP JUMPDEST DUP1 ISZERO PUSH2 0x28E9 JUMPI DUP1 PUSH1 0x1F LT PUSH2 0x28BE JUMPI PUSH2 0x100 DUP1 DUP4 SLOAD DIV MUL DUP4 MSTORE SWAP2 PUSH1 0x20 ADD SWAP2 PUSH2 0x28E9 JUMP JUMPDEST DUP3 ADD SWAP2 SWAP1 PUSH1 0x0 MSTORE PUSH1 0x20 PUSH1 0x0 KECCAK256 SWAP1 JUMPDEST DUP2 SLOAD DUP2 MSTORE SWAP1 PUSH1 0x1 ADD SWAP1 PUSH1 0x20 ADD DUP1 DUP4 GT PUSH2 0x28CC JUMPI DUP3 SWAP1 SUB PUSH1 0x1F AND DUP3 ADD SWAP2 JUMPDEST POP POP POP POP POP DUP2 MSTORE PUSH1 0x20 ADD PUSH1 0x2 DUP3 ADD DUP1 SLOAD DUP1 PUSH1 0x20 MUL PUSH1 0x20 ADD PUSH1 0x40 MLOAD SWAP1 DUP2 ADD PUSH1 0x40 MSTORE DUP1 SWAP3 SWAP2 SWAP1 DUP2 DUP2 MSTORE PUSH1 0x20 ADD PUSH1 0x0 SWAP1 JUMPDEST DUP3 DUP3 LT ISZERO PUSH2 0x29C3 JUMPI DUP4 DUP3 SWAP1 PUSH1 0x0 MSTORE PUSH1 0x20 PUSH1 0x0 KECCAK256 ADD DUP1 SLOAD PUSH2 0x2936 SWAP1 PUSH2 0x473E JUMP JUMPDEST DUP1 PUSH1 0x1F ADD PUSH1 0x20 DUP1 SWAP2 DIV MUL PUSH1 0x20 ADD PUSH1 0x40 MLOAD SWAP1 DUP2 ADD PUSH1 0x40 MSTORE DUP1 SWAP3 SWAP2 SWAP1 DUP2 DUP2 MSTORE PUSH1 0x20 ADD DUP3 DUP1 SLOAD PUSH2 0x2962 SWAP1 PUSH2 0x473E JUMP JUMPDEST DUP1 ISZERO PUSH2 0x29AF JUMPI DUP1 PUSH1 0x1F LT PUSH2 0x2984 JUMPI PUSH2 0x100 DUP1 DUP4 SLOAD DIV MUL DUP4 MSTORE SWAP2 PUSH1 0x20 ADD SWAP2 PUSH2 0x29AF JUMP JUMPDEST DUP3 ADD SWAP2 SWAP1 PUSH1 0x0 MSTORE PUSH1 0x20 PUSH1 0x0 KECCAK256 SWAP1 JUMPDEST DUP2 SLOAD DUP2 MSTORE SWAP1 PUSH1 0x1 ADD SWAP1 PUSH1 0x20 ADD DUP1 DUP4 GT PUSH2 0x2992 JUMPI DUP3 SWAP1 SUB PUSH1 0x1F AND DUP3 ADD SWAP2 JUMPDEST POP POP POP POP POP DUP2 MSTORE PUSH1 0x20 ADD SWAP1 PUSH1 0x1 ADD SWAP1 PUSH2 0x2917 JUMP JUMPDEST POP POP POP POP DUP2 MSTORE POP POP DUP2 MSTORE PUSH1 0x20 ADD PUSH1 0x15 DUP3 ADD PUSH1 0x40 MLOAD DUP1 PUSH1 0x40 ADD PUSH1 0x40 MSTORE SWAP1 DUP2 PUSH1 0x0 DUP3 ADD SLOAD DUP2 MSTORE PUSH1 0x20 ADD PUSH1 0x1 DUP3 ADD SLOAD DUP2 MSTORE POP POP DUP2 MSTORE PUSH1 0x20 ADD PUSH1 0x17 DUP3 ADD SLOAD DUP2 MSTORE POP POP SWAP1 POP PUSH1 0x4B DUP2 PUSH1 0x40 ADD MLOAD PUSH1 0x20 ADD MLOAD LT ISZERO DUP1 ISZERO PUSH2 0x2A24 JUMPI POP PUSH1 0x3C PUSH2 0x2A22 DUP5 PUSH2 0xD39 JUMP JUMPDEST GT JUMPDEST DUP1 ISZERO PUSH2 0x2A39 JUMPI POP PUSH1 0x0 DUP2 PUSH1 0x40 ADD MLOAD PUSH1 0x60 ADD MLOAD MLOAD GT JUMPDEST SWAP2 POP POP SWAP2 SWAP1 POP JUMP JUMPDEST PUSH1 0x0 PUSH1 0x20 MSTORE DUP1 PUSH1 0x0 MSTORE PUSH1 0x40 PUSH1 0x0 KECCAK256 PUSH1 0x0 SWAP2 POP SWAP1 POP DUP1 PUSH1 0x0 ADD PUSH1 0x40 MLOAD DUP1 PUSH1 0x60 ADD PUSH1 0x40 MSTORE SWAP1 DUP2 PUSH1 0x0 DUP3 ADD DUP1 SLOAD PUSH2 0x2A74 SWAP1 PUSH2 0x473E JUMP JUMPDEST DUP1 PUSH1 0x1F ADD PUSH1 0x20 DUP1 SWAP2 DIV MUL PUSH1 0x20 ADD PUSH1 0x40 MLOAD SWAP1 DUP2 ADD PUSH1 0x40 MSTORE DUP1 SWAP3 SWAP2 SWAP1 DUP2 DUP2 MSTORE PUSH1 0x20 ADD DUP3 DUP1 SLOAD PUSH2 0x2AA0 SWAP1 PUSH2 0x473E JUMP JUMPDEST DUP1 ISZERO PUSH2 0x2AED JUMPI DUP1 PUSH1 0x1F LT PUSH2 0x2AC2 JUMPI PUSH2 0x100 DUP1 DUP4 SLOAD DIV MUL DUP4 MSTORE SWAP2 PUSH1 0x20 ADD SWAP2 PUSH2 0x2AED JUMP JUMPDEST DUP3 ADD SWAP2 SWAP1 PUSH1 0x0 MSTORE PUSH1 0x20 PUSH1 0x0 KECCAK256 SWAP1 JUMPDEST DUP2 SLOAD DUP2 MSTORE SWAP1 PUSH1 0x1 ADD SWAP1 PUSH1 0x20 ADD DUP1 DUP4 GT PUSH2 0x2AD0 JUMPI DUP3 SWAP1 SUB PUSH1 0x1F AND DUP3 ADD SWAP2 JUMPDEST POP POP POP POP POP DUP2 MSTORE PUSH1 0x20 ADD PUSH1 0x1 DUP3 ADD SLOAD DUP2 MSTORE PUSH1 0x20 ADD PUSH1 0x2 DUP3 ADD DUP1 SLOAD PUSH2 0x2B10 SWAP1 PUSH2 0x473E JUMP JUMPDEST DUP1 PUSH1 0x1F ADD PUSH1 0x20 DUP1 SWAP2 DIV MUL PUSH1 0x20 ADD PUSH1 0x40 MLOAD SWAP1 DUP2 ADD PUSH1 0x40 MSTORE DUP1 SWAP3 SWAP2 SWAP1 DUP2 DUP2 MSTORE PUSH1 0x20 ADD DUP3 DUP1 SLOAD PUSH2 0x2B3C SWAP1 PUSH2 0x473E JUMP JUMPDEST DUP1 ISZERO PUSH2 0x2B89 JUMPI DUP1 PUSH1 0x1F LT PUSH2 0x2B5E JUMPI PUSH2 0x100 DUP1 DUP4 SLOAD DIV MUL DUP4 MSTORE SWAP2 PUSH1 0x20 ADD SWAP2 PUSH2 0x2B89 JUMP JUMPDEST DUP3 ADD SWAP2 SWAP1 PUSH1 0x0 MSTORE PUSH1 0x20 PUSH1 0x0 KECCAK256 SWAP1 JUMPDEST DUP2 SLOAD DUP2 MSTORE SWAP1 PUSH1 0x1 ADD SWAP1 PUSH1 0x20 ADD DUP1 DUP4 GT PUSH2 0x2B6C JUMPI DUP3 SWAP1 SUB PUSH1 0x1F AND DUP3 ADD SWAP2 JUMPDEST POP POP POP POP POP DUP2 MSTORE POP POP SWAP1 DUP1 PUSH1 0x3 ADD PUSH1 0x40 MLOAD DUP1 PUSH1 0xE0 ADD PUSH1 0x40 MSTORE SWAP1 DUP2 PUSH1 0x0 DUP3 ADD SLOAD DUP2 MSTORE PUSH1 0x20 ADD PUSH1 0x1 DUP3 ADD SLOAD DUP2 MSTORE PUSH1 0x20 ADD PUSH1 0x2 DUP3 ADD SLOAD DUP2 MSTORE PUSH1 0x20 ADD PUSH1 0x3 DUP3 ADD SLOAD DUP2 MSTORE PUSH1 0x20 ADD PUSH1 0x4 DUP3 ADD SLOAD DUP2 MSTORE PUSH1 0x20 ADD PUSH1 0x5 DUP3 ADD SLOAD DUP2 MSTORE PUSH1 0x20 ADD PUSH1 0x6 DUP3 ADD SLOAD DUP2 MSTORE POP POP SWAP1 DUP1 PUSH1 0xA ADD PUSH1 0x40 MLOAD DUP1 PUSH2 0x100 ADD PUSH1 0x40 MSTORE SWAP1 DUP2 PUSH1 0x0 DUP3 ADD SLOAD DUP2 MSTORE PUSH1 0x20 ADD PUSH1 0x1 DUP3 ADD SLOAD DUP2 MSTORE PUSH1 0x20 ADD PUSH1 0x2 DUP3 ADD DUP1 SLOAD DUP1 PUSH1 0x20 MUL PUSH1 0x20 ADD PUSH1 0x40 MLOAD SWAP1 DUP2 ADD PUSH1 0x40 MSTORE DUP1 SWAP3 SWAP2 SWAP1 DUP2 DUP2 MSTORE PUSH1 0x20 ADD DUP3 DUP1 SLOAD DUP1 ISZERO PUSH2 0x2C5C JUMPI PUSH1 0x20 MUL DUP3 ADD SWAP2 SWAP1 PUSH1 0x0 MSTORE PUSH1 0x20 PUSH1 0x0 KECCAK256 SWAP1 JUMPDEST DUP2 SLOAD DUP2 MSTORE PUSH1 0x20 ADD SWAP1 PUSH1 0x1 ADD SWAP1 DUP1 DUP4 GT PUSH2 0x2C48 JUMPI JUMPDEST POP POP POP POP POP DUP2 MSTORE PUSH1 0x20 ADD PUSH1 0x3 DUP3 ADD DUP1 SLOAD DUP1 PUSH1 0x20 MUL PUSH1 0x20 ADD PUSH1 0x40 MLOAD SWAP1 DUP2 ADD PUSH1 0x40 MSTORE DUP1 SWAP3 SWAP2 SWAP1 DUP2 DUP2 MSTORE PUSH1 0x20 ADD DUP3 DUP1 SLOAD DUP1 ISZERO PUSH2 0x2CB4 JUMPI PUSH1 0x20 MUL DUP3 ADD SWAP2 SWAP1 PUSH1 0x0 MSTORE PUSH1 0x20 PUSH1 0x0 KECCAK256 SWAP1 JUMPDEST DUP2 SLOAD DUP2 MSTORE PUSH1 0x20 ADD SWAP1 PUSH1 0x1 ADD SWAP1 DUP1 DUP4 GT PUSH2 0x2CA0 JUMPI JUMPDEST POP POP POP POP POP DUP2 MSTORE PUSH1 0x20 ADD PUSH1 0x4 DUP3 ADD SLOAD DUP2 MSTORE PUSH1 0x20 ADD PUSH1 0x5 DUP3 ADD SLOAD DUP2 MSTORE PUSH1 0x20 ADD PUSH1 0x6 DUP3 ADD SLOAD DUP2 MSTORE PUSH1 0x20 ADD PUSH1 0x7 DUP3 ADD SLOAD DUP2 MSTORE POP POP SWAP1 DUP1 PUSH1 0x12 ADD PUSH1 0x40 MLOAD DUP1 PUSH1 0x60 ADD PUSH1 0x40 MSTORE SWAP1 DUP2 PUSH1 0x0 DUP3 ADD DUP1 SLOAD DUP1 PUSH1 0x20 MUL PUSH1 0x20 ADD PUSH1 0x40 MLOAD SWAP1 DUP2 ADD PUSH1 0x40 MSTORE DUP1 SWAP3 SWAP2 SWAP1 DUP2 DUP2 MSTORE PUSH1 0x20 ADD PUSH1 0x0 SWAP1 JUMPDEST DUP3 DUP3 LT ISZERO PUSH2 0x2DC6 JUMPI DUP4 DUP3 SWAP1 PUSH1 0x0 MSTORE PUSH1 0x20 PUSH1 0x0 KECCAK256 ADD DUP1 SLOAD PUSH2 0x2D39 SWAP1 PUSH2 0x473E JUMP JUMPDEST DUP1 PUSH1 0x1F ADD PUSH1 0x20 DUP1 SWAP2 DIV MUL PUSH1 0x20 ADD PUSH1 0x40 MLOAD SWAP1 DUP2 ADD PUSH1 0x40 MSTORE DUP1 SWAP3 SWAP2 SWAP1 DUP2 DUP2 MSTORE PUSH1 0x20 ADD DUP3 DUP1 SLOAD PUSH2 0x2D65 SWAP1 PUSH2 0x473E JUMP JUMPDEST DUP1 ISZERO PUSH2 0x2DB2 JUMPI DUP1 PUSH1 0x1F LT PUSH2 0x2D87 JUMPI PUSH2 0x100 DUP1 DUP4 SLOAD DIV MUL DUP4 MSTORE SWAP2 PUSH1 0x20 ADD SWAP2 PUSH2 0x2DB2 JUMP JUMPDEST DUP3 ADD SWAP2 SWAP1 PUSH1 0x0 MSTORE PUSH1 0x20 PUSH1 0x0 KECCAK256 SWAP1 JUMPDEST DUP2 SLOAD DUP2 MSTORE SWAP1 PUSH1 0x1 ADD SWAP1 PUSH1 0x20 ADD DUP1 DUP4 GT PUSH2 0x2D95 JUMPI DUP3 SWAP1 SUB PUSH1 0x1F AND DUP3 ADD SWAP2 JUMPDEST POP POP POP POP POP DUP2 MSTORE PUSH1 0x20 ADD SWAP1 PUSH1 0x1 ADD SWAP1 PUSH2 0x2D1A JUMP JUMPDEST POP POP POP POP DUP2 MSTORE PUSH1 0x20 ADD PUSH1 0x1 DUP3 ADD DUP1 SLOAD PUSH2 0x2DDE SWAP1 PUSH2 0x473E JUMP JUMPDEST DUP1 PUSH1 0x1F ADD PUSH1 0x20 DUP1 SWAP2 DIV MUL PUSH1 0x20 ADD PUSH1 0x40 MLOAD SWAP1 DUP2 ADD PUSH1 0x40 MSTORE DUP1 SWAP3 SWAP2 SWAP1 DUP2 DUP2 MSTORE PUSH1 0x20 ADD DUP3 DUP1 SLOAD PUSH2 0x2E0A SWAP1 PUSH2 0x473E JUMP JUMPDEST DUP1 ISZERO PUSH2 0x2E57 JUMPI DUP1 PUSH1 0x1F LT PUSH2 0x2E2C JUMPI PUSH2 0x100 DUP1 DUP4 SLOAD DIV MUL DUP4 MSTORE SWAP2 PUSH1 0x20 ADD SWAP2 PUSH2 0x2E57 JUMP JUMPDEST DUP3 ADD SWAP2 SWAP1 PUSH1 0x0 MSTORE PUSH1 0x20 PUSH1 0x0 KECCAK256 SWAP1 JUMPDEST DUP2 SLOAD DUP2 MSTORE SWAP1 PUSH1 0x1 ADD SWAP1 PUSH1 0x20 ADD DUP1 DUP4 GT PUSH2 0x2E3A JUMPI DUP3 SWAP1 SUB PUSH1 0x1F AND DUP3 ADD SWAP2 JUMPDEST POP POP POP POP POP DUP2 MSTORE PUSH1 0x20 ADD PUSH1 0x2 DUP3 ADD DUP1 SLOAD DUP1 PUSH1 0x20 MUL PUSH1 0x20 ADD PUSH1 0x40 MLOAD SWAP1 DUP2 ADD PUSH1 0x40 MSTORE DUP1 SWAP3 SWAP2 SWAP1 DUP2 DUP2 MSTORE PUSH1 0x20 ADD PUSH1 0x0 SWAP1 JUMPDEST DUP3 DUP3 LT ISZERO PUSH2 0x2F31 JUMPI DUP4 DUP3 SWAP1 PUSH1 0x0 MSTORE PUSH1 0x20 PUSH1 0x0 KECCAK256 ADD DUP1 SLOAD PUSH2 0x2EA4 SWAP1 PUSH2 0x473E JUMP JUMPDEST DUP1 PUSH1 0x1F ADD PUSH1 0x20 DUP1 SWAP2 DIV MUL PUSH1 0x20 ADD PUSH1 0x40 MLOAD SWAP1 DUP2 ADD PUSH1 0x40 MSTORE DUP1 SWAP3 SWAP2 SWAP1 DUP2 DUP2 MSTORE PUSH1 0x20 ADD DUP3 DUP1 SLOAD PUSH2 0x2ED0 SWAP1 PUSH2 0x473E JUMP JUMPDEST DUP1 ISZERO PUSH2 0x2F1D JUMPI DUP1 PUSH1 0x1F LT PUSH2 0x2EF2 JUMPI PUSH2 0x100 DUP1 DUP4 SLOAD DIV MUL DUP4 MSTORE SWAP2 PUSH1 0x20 ADD SWAP2 PUSH2 0x2F1D JUMP JUMPDEST DUP3 ADD SWAP2 SWAP1 PUSH1 0x0 MSTORE PUSH1 0x20 PUSH1 0x0 KECCAK256 SWAP1 JUMPDEST DUP2 SLOAD DUP2 MSTORE SWAP1 PUSH1 0x1 ADD SWAP1 PUSH1 0x20 ADD DUP1 DUP4 GT PUSH2 0x2F00 JUMPI DUP3 SWAP1 SUB PUSH1 0x1F AND DUP3 ADD SWAP2 JUMPDEST POP POP POP POP POP DUP2 MSTORE PUSH1 0x20 ADD SWAP1 PUSH1 0x1 ADD SWAP1 PUSH2 0x2E85 JUMP JUMPDEST POP POP POP POP DUP2 MSTORE POP POP SWAP1 DUP1 PUSH1 0x15 ADD PUSH1 0x40 MLOAD DUP1 PUSH1 0x40 ADD PUSH1 0x40 MSTORE SWAP1 DUP2 PUSH1 0x0 DUP3 ADD SLOAD DUP2 MSTORE PUSH1 0x20 ADD PUSH1 0x1 DUP3 ADD SLOAD DUP2 MSTORE POP POP SWAP1 DUP1 PUSH1 0x17 ADD SLOAD SWAP1 POP DUP7 JUMP JUMPDEST PUSH1 0x0 DUP2 DUP4 LT PUSH2 0x2F77 JUMPI DUP2 PUSH2 0x2F79 JUMP JUMPDEST DUP3 JUMPDEST SWAP1 POP SWAP3 SWAP2 POP POP JUMP JUMPDEST PUSH1 0x0 DUP1 PUSH1 0x0 DUP1 DUP5 PUSH20 0xFFFFFFFFFFFFFFFFFFFFFFFFFFFFFFFFFFFFFFFF AND PUSH20 0xFFFFFFFFFFFFFFFFFFFFFFFFFFFFFFFFFFFFFFFF AND DUP2 MSTORE PUSH1 0x20 ADD SWAP1 DUP2 MSTORE PUSH1 0x20 ADD PUSH1 0x0 KECCAK256 PUSH1 0x40 MLOAD DUP1 PUSH1 0xC0 ADD PUSH1 0x40 MSTORE SWAP1 DUP2 PUSH1 0x0 DUP3 ADD PUSH1 0x40 MLOAD DUP1 PUSH1 0x60 ADD PUSH1 0x40 MSTORE SWAP1 DUP2 PUSH1 0x0 DUP3 ADD DUP1 SLOAD PUSH2 0x2FED SWAP1 PUSH2 0x473E JUMP JUMPDEST DUP1 PUSH1 0x1F ADD PUSH1 0x20 DUP1 SWAP2 DIV MUL PUSH1 0x20 ADD PUSH1 0x40 MLOAD SWAP1 DUP2 ADD PUSH1 0x40 MSTORE DUP1 SWAP3 SWAP2 SWAP1 DUP2 DUP2 MSTORE PUSH1 0x20 ADD DUP3 DUP1 SLOAD PUSH2 0x3019 SWAP1 PUSH2 0x473E JUMP JUMPDEST DUP1 ISZERO PUSH2 0x3066 JUMPI DUP1 PUSH1 0x1F LT PUSH2 0x303B JUMPI PUSH2 0x100 DUP1 DUP4 SLOAD DIV MUL DUP4 MSTORE SWAP2 PUSH1 0x20 ADD SWAP2 PUSH2 0x3066 JUMP JUMPDEST DUP3 ADD SWAP2 SWAP1 PUSH1 0x0 MSTORE PUSH1 0x20 PUSH1 0x0 KECCAK256 SWAP1 JUMPDEST DUP2 SLOAD DUP2 MSTORE SWAP1 PUSH1 0x1 ADD SWAP1 PUSH1 0x20 ADD DUP1 DUP4 GT PUSH2 0x3049 JUMPI DUP3 SWAP1 SUB PUSH1 0x1F AND DUP3 ADD SWAP2 JUMPDEST POP POP POP POP POP DUP2 MSTORE PUSH1 0x20 ADD PUSH1 0x1 DUP3 ADD SLOAD DUP2 MSTORE PUSH1 0x20 ADD PUSH1 0x2 DUP3 ADD DUP1 SLOAD PUSH2 0x3089 SWAP1 PUSH2 0x473E JUMP JUMPDEST DUP1 PUSH1 0x1F ADD PUSH1 0x20 DUP1 SWAP2 DIV MUL PUSH1 0x20 ADD PUSH1 0x40 MLOAD SWAP1 DUP2 ADD PUSH1 0x40 MSTORE DUP1 SWAP3 SWAP2 SWAP1 DUP2 DUP2 MSTORE PUSH1 0x20 ADD DUP3 DUP1 SLOAD PUSH2 0x30B5 SWAP1 PUSH2 0x473E JUMP JUMPDEST DUP1 ISZERO PUSH2 0x3102 JUMPI DUP1 PUSH1 0x1F LT PUSH2 0x30D7 JUMPI PUSH2 0x100 DUP1 DUP4 SLOAD DIV MUL DUP4 MSTORE SWAP2 PUSH1 0x20 ADD SWAP2 PUSH2 0x3102 JUMP JUMPDEST DUP3 ADD SWAP2 SWAP1 PUSH1 0x0 MSTORE PUSH1 0x20 PUSH1 0x0 KECCAK256 SWAP1 JUMPDEST DUP2 SLOAD DUP2 MSTORE SWAP1 PUSH1 0x1 ADD SWAP1 PUSH1 0x20 ADD DUP1 DUP4 GT PUSH2 0x30E5 JUMPI DUP3 SWAP1 SUB PUSH1 0x1F AND DUP3 ADD SWAP2 JUMPDEST POP POP POP POP POP DUP2 MSTORE POP POP DUP2 MSTORE PUSH1 0x20 ADD PUSH1 0x3 DUP3 ADD PUSH1 0x40 MLOAD DUP1 PUSH1 0xE0 ADD PUSH1 0x40 MSTORE SWAP1 DUP2 PUSH1 0x0 DUP3 ADD SLOAD DUP2 MSTORE PUSH1 0x20 ADD PUSH1 0x1 DUP3 ADD SLOAD DUP2 MSTORE PUSH1 0x20 ADD PUSH1 0x2 DUP3 ADD SLOAD DUP2 MSTORE PUSH1 0x20 ADD PUSH1 0x3 DUP3 ADD SLOAD DUP2 MSTORE PUSH1 0x20 ADD PUSH1 0x4 DUP3 ADD SLOAD DUP2 MSTORE PUSH1 0x20 ADD PUSH1 0x5 DUP3 ADD SLOAD DUP2 MSTORE PUSH1 0x20 ADD PUSH1 0x6 DUP3 ADD SLOAD DUP2 MSTORE POP POP DUP2 MSTORE PUSH1 0x20 ADD PUSH1 0xA DUP3 ADD PUSH1 0x40 MLOAD DUP1 PUSH2 0x100 ADD PUSH1 0x40 MSTORE SWAP1 DUP2 PUSH1 0x0 DUP3 ADD SLOAD DUP2 MSTORE PUSH1 0x20 ADD PUSH1 0x1 DUP3 ADD SLOAD DUP2 MSTORE PUSH1 0x20 ADD PUSH1 0x2 DUP3 ADD DUP1 SLOAD DUP1 PUSH1 0x20 MUL PUSH1 0x20 ADD PUSH1 0x40 MLOAD SWAP1 DUP2 ADD PUSH1 0x40 MSTORE DUP1 SWAP3 SWAP2 SWAP1 DUP2 DUP2 MSTORE PUSH1 0x20 ADD DUP3 DUP1 SLOAD DUP1 ISZERO PUSH2 0x31DD JUMPI PUSH1 0x20 MUL DUP3 ADD SWAP2 SWAP1 PUSH1 0x0 MSTORE PUSH1 0x20 PUSH1 0x0 KECCAK256 SWAP1 JUMPDEST DUP2 SLOAD DUP2 MSTORE PUSH1 0x20 ADD SWAP1 PUSH1 0x1 ADD SWAP1 DUP1 DUP4 GT PUSH2 0x31C9 JUMPI JUMPDEST POP POP POP POP POP DUP2 MSTORE PUSH1 0x20 ADD PUSH1 0x3 DUP3 ADD DUP1 SLOAD DUP1 PUSH1 0x20 MUL PUSH1 0x20 ADD PUSH1 0x40 MLOAD SWAP1 DUP2 ADD PUSH1 0x40 MSTORE DUP1 SWAP3 SWAP2 SWAP1 DUP2 DUP2 MSTORE PUSH1 0x20 ADD DUP3 DUP1 SLOAD DUP1 ISZERO PUSH2 0x3235 JUMPI PUSH1 0x20 MUL DUP3 ADD SWAP2 SWAP1 PUSH1 0x0 MSTORE PUSH1 0x20 PUSH1 0x0 KECCAK256 SWAP1 JUMPDEST DUP2 SLOAD DUP2 MSTORE PUSH1 0x20 ADD SWAP1 PUSH1 0x1 ADD SWAP1 DUP1 DUP4 GT PUSH2 0x3221 JUMPI JUMPDEST POP POP POP POP POP DUP2 MSTORE PUSH1 0x20 ADD PUSH1 0x4 DUP3 ADD SLOAD DUP2 MSTORE PUSH1 0x20 ADD PUSH1 0x5 DUP3 ADD SLOAD DUP2 MSTORE PUSH1 0x20 ADD PUSH1 0x6 DUP3 ADD SLOAD DUP2 MSTORE PUSH1 0x20 ADD PUSH1 0x7 DUP3 ADD SLOAD DUP2 MSTORE POP POP DUP2 MSTORE PUSH1 0x20 ADD PUSH1 0x12 DUP3 ADD PUSH1 0x40 MLOAD DUP1 PUSH1 0x60 ADD PUSH1 0x40 MSTORE SWAP1 DUP2 PUSH1 0x0 DUP3 ADD DUP1 SLOAD DUP1 PUSH1 0x20 MUL PUSH1 0x20 ADD PUSH1 0x40 MLOAD SWAP1 DUP2 ADD PUSH1 0x40 MSTORE DUP1 SWAP3 SWAP2 SWAP1 DUP2 DUP2 MSTORE PUSH1 0x20 ADD PUSH1 0x0 SWAP1 JUMPDEST DUP3 DUP3 LT ISZERO PUSH2 0x334B JUMPI DUP4 DUP3 SWAP1 PUSH1 0x0 MSTORE PUSH1 0x20 PUSH1 0x0 KECCAK256 ADD DUP1 SLOAD PUSH2 0x32BE SWAP1 PUSH2 0x473E JUMP JUMPDEST DUP1 PUSH1 0x1F ADD PUSH1 0x20 DUP1 SWAP2 DIV MUL PUSH1 0x20 ADD PUSH1 0x40 MLOAD SWAP1 DUP2 ADD PUSH1 0x40 MSTORE DUP1 SWAP3 SWAP2 SWAP1 DUP2 DUP2 MSTORE PUSH1 0x20 ADD DUP3 DUP1 SLOAD PUSH2 0x32EA SWAP1 PUSH2 0x473E JUMP JUMPDEST DUP1 ISZERO PUSH2 0x3337 JUMPI DUP1 PUSH1 0x1F LT PUSH2 0x330C JUMPI PUSH2 0x100 DUP1 DUP4 SLOAD DIV MUL DUP4 MSTORE SWAP2 PUSH1 0x20 ADD SWAP2 PUSH2 0x3337 JUMP JUMPDEST DUP3 ADD SWAP2 SWAP1 PUSH1 0x0 MSTORE PUSH1 0x20 PUSH1 0x0 KECCAK256 SWAP1 JUMPDEST DUP2 SLOAD DUP2 MSTORE SWAP1 PUSH1 0x1 ADD SWAP1 PUSH1 0x20 ADD DUP1 DUP4 GT PUSH2 0x331A JUMPI DUP3 SWAP1 SUB PUSH1 0x1F AND DUP3 ADD SWAP2 JUMPDEST POP POP POP POP POP DUP2 MSTORE PUSH1 0x20 ADD SWAP1 PUSH1 0x1 ADD SWAP1 PUSH2 0x329F JUMP JUMPDEST POP POP POP POP DUP2 MSTORE PUSH1 0x20 ADD PUSH1 0x1 DUP3 ADD DUP1 SLOAD PUSH2 0x3363 SWAP1 PUSH2 0x473E JUMP JUMPDEST DUP1 PUSH1 0x1F ADD PUSH1 0x20 DUP1 SWAP2 DIV MUL PUSH1 0x20 ADD PUSH1 0x40 MLOAD SWAP1 DUP2 ADD PUSH1 0x40 MSTORE DUP1 SWAP3 SWAP2 SWAP1 DUP2 DUP2 MSTORE PUSH1 0x20 ADD DUP3 DUP1 SLOAD PUSH2 0x338F SWAP1 PUSH2 0x473E JUMP JUMPDEST DUP1 ISZERO PUSH2 0x33DC JUMPI DUP1 PUSH1 0x1F LT PUSH2 0x33B1 JUMPI PUSH2 0x100 DUP1 DUP4 SLOAD DIV MUL DUP4 MSTORE SWAP2 PUSH1 0x20 ADD SWAP2 PUSH2 0x33DC JUMP JUMPDEST DUP3 ADD SWAP2 SWAP1 PUSH1 0x0 MSTORE PUSH1 0x20 PUSH1 0x0 KECCAK256 SWAP1 JUMPDEST DUP2 SLOAD DUP2 MSTORE SWAP1 PUSH1 0x1 ADD SWAP1 PUSH1 0x20 ADD DUP1 DUP4 GT PUSH2 0x33BF JUMPI DUP3 SWAP1 SUB PUSH1 0x1F AND DUP3 ADD SWAP2 JUMPDEST POP POP POP POP POP DUP2 MSTORE PUSH1 0x20 ADD PUSH1 0x2 DUP3 ADD DUP1 SLOAD DUP1 PUSH1 0x20 MUL PUSH1 0x20 ADD PUSH1 0x40 MLOAD SWAP1 DUP2 ADD PUSH1 0x40 MSTORE DUP1 SWAP3 SWAP2 SWAP1 DUP2 DUP2 MSTORE PUSH1 0x20 ADD PUSH1 0x0 SWAP1 JUMPDEST DUP3 DUP3 LT ISZERO PUSH2 0x34B6 JUMPI DUP4 DUP3 SWAP1 PUSH1 0x0 MSTORE PUSH1 0x20 PUSH1 0x0 KECCAK256 ADD DUP1 SLOAD PUSH2 0x3429 SWAP1 PUSH2 0x473E JUMP JUMPDEST DUP1 PUSH1 0x1F ADD PUSH1 0x20 DUP1 SWAP2 DIV MUL PUSH1 0x20 ADD PUSH1 0x40 MLOAD SWAP1 DUP2 ADD PUSH1 0x40 MSTORE DUP1 SWAP3 SWAP2 SWAP1 DUP2 DUP2 MSTORE PUSH1 0x20 ADD DUP3 DUP1 SLOAD PUSH2 0x3455 SWAP1 PUSH2 0x473E JUMP JUMPDEST DUP1 ISZERO PUSH2 0x34A2 JUMPI DUP1 PUSH1 0x1F LT PUSH2 0x3477 JUMPI PUSH2 0x100 DUP1 DUP4 SLOAD DIV MUL DUP4 MSTORE SWAP2 PUSH1 0x20 ADD SWAP2 PUSH2 0x34A2 JUMP JUMPDEST DUP3 ADD SWAP2 SWAP1 PUSH1 0x0 MSTORE PUSH1 0x20 PUSH1 0x0 KECCAK256 SWAP1 JUMPDEST DUP2 SLOAD DUP2 MSTORE SWAP1 PUSH1 0x1 ADD SWAP1 PUSH1 0x20 ADD DUP1 DUP4 GT PUSH2 0x3485 JUMPI DUP3 SWAP1 SUB PUSH1 0x1F AND DUP3 ADD SWAP2 JUMPDEST POP POP POP POP POP DUP2 MSTORE PUSH1 0x20 ADD SWAP1 PUSH1 0x1 ADD SWAP1 PUSH2 0x340A JUMP JUMPDEST POP POP POP POP DUP2 MSTORE POP POP DUP2 MSTORE PUSH1 0x20 ADD PUSH1 0x15 DUP3 ADD PUSH1 0x40 MLOAD DUP1 PUSH1 0x40 ADD PUSH1 0x40 MSTORE SWAP1 DUP2 PUSH1 0x0 DUP3 ADD SLOAD DUP2 MSTORE PUSH1 0x20 ADD PUSH1 0x1 DUP3 ADD SLOAD DUP2 MSTORE POP POP DUP2 MSTORE PUSH1 0x20 ADD PUSH1 0x17 DUP3 ADD SLOAD DUP2 MSTORE POP POP SWAP1 POP PUSH2 0x34FF DUP4 PUSH2 0xD39 JUMP JUMPDEST PUSH1 0x5 DUP3 PUSH1 0x40 ADD MLOAD PUSH1 0x60 ADD MLOAD MLOAD PUSH2 0x3515 SWAP2 SWAP1 PUSH2 0x4AF6 JUMP JUMPDEST DUP3 PUSH1 0x40 ADD MLOAD PUSH1 0x20 ADD MLOAD DUP4 PUSH1 0x20 ADD MLOAD PUSH1 0x40 ADD MLOAD DUP5 PUSH1 0x20 ADD MLOAD PUSH1 0x20 ADD MLOAD DUP6 PUSH1 0x20 ADD MLOAD PUSH1 0x0 ADD MLOAD PUSH2 0x3543 SWAP2 SWAP1 PUSH2 0x4AC2 JUMP JUMPDEST PUSH2 0x354D SWAP2 SWAP1 PUSH2 0x4AC2 JUMP JUMPDEST PUSH2 0x3557 SWAP2 SWAP1 PUSH2 0x4AC2 JUMP JUMPDEST PUSH2 0x3561 SWAP2 SWAP1 PUSH2 0x4AC2 JUMP JUMPDEST PUSH2 0x356B SWAP2 SWAP1 PUSH2 0x4AC2 JUMP JUMPDEST SWAP2 POP POP SWAP2 SWAP1 POP JUMP JUMPDEST PUSH1 0x0 DUP2 DUP4 GT PUSH2 0x3582 JUMPI DUP2 PUSH2 0x3584 JUMP JUMPDEST DUP3 JUMPDEST SWAP1 POP SWAP3 SWAP2 POP POP JUMP JUMPDEST DUP3 DUP1 SLOAD DUP3 DUP3 SSTORE SWAP1 PUSH1 0x0 MSTORE PUSH1 0x20 PUSH1 0x0 KECCAK256 SWAP1 DUP2 ADD SWAP3 DUP3 ISZERO PUSH2 0x35D4 JUMPI SWAP2 PUSH1 0x20 MUL DUP3 ADD JUMPDEST DUP3 DUP2 GT ISZERO PUSH2 0x35D3 JUMPI DUP3 MLOAD DUP3 SWAP1 DUP2 PUSH2 0x35C3 SWAP2 SWAP1 PUSH2 0x491B JUMP JUMPDEST POP SWAP2 PUSH1 0x20 ADD SWAP2 SWAP1 PUSH1 0x1 ADD SWAP1 PUSH2 0x35AC JUMP JUMPDEST JUMPDEST POP SWAP1 POP PUSH2 0x35E1 SWAP2 SWAP1 PUSH2 0x3686 JUMP JUMPDEST POP SWAP1 JUMP JUMPDEST PUSH1 0x40 MLOAD DUP1 PUSH1 0xC0 ADD PUSH1 0x40 MSTORE DUP1 PUSH2 0x35F8 PUSH2 0x36AA JUMP JUMPDEST DUP2 MSTORE PUSH1 0x20 ADD PUSH2 0x3605 PUSH2 0x36CB JUMP JUMPDEST DUP2 MSTORE PUSH1 0x20 ADD PUSH2 0x3612 PUSH2 0x3708 JUMP JUMPDEST DUP2 MSTORE PUSH1 0x20 ADD PUSH2 0x361F PUSH2 0x374D JUMP JUMPDEST DUP2 MSTORE PUSH1 0x20 ADD PUSH2 0x362C PUSH2 0x376E JUMP JUMPDEST DUP2 MSTORE PUSH1 0x20 ADD PUSH1 0x0 DUP2 MSTORE POP SWAP1 JUMP JUMPDEST DUP3 DUP1 SLOAD DUP3 DUP3 SSTORE SWAP1 PUSH1 0x0 MSTORE PUSH1 0x20 PUSH1 0x0 KECCAK256 SWAP1 DUP2 ADD SWAP3 DUP3 ISZERO PUSH2 0x3675 JUMPI SWAP2 PUSH1 0x20 MUL DUP3 ADD JUMPDEST DUP3 DUP2 GT ISZERO PUSH2 0x3674 JUMPI DUP3 MLOAD DUP3 SSTORE SWAP2 PUSH1 0x20 ADD SWAP2 SWAP1 PUSH1 0x1 ADD SWAP1 PUSH2 0x3659 JUMP JUMPDEST JUMPDEST POP SWAP1 POP PUSH2 0x3682 SWAP2 SWAP1 PUSH2 0x3788 JUMP JUMPDEST POP SWAP1 JUMP JUMPDEST JUMPDEST DUP1 DUP3 GT ISZERO PUSH2 0x36A6 JUMPI PUSH1 0x0 DUP2 DUP2 PUSH2 0x369D SWAP2 SWAP1 PUSH2 0x37A5 JUMP JUMPDEST POP PUSH1 0x1 ADD PUSH2 0x3687 JUMP JUMPDEST POP SWAP1 JUMP JUMPDEST PUSH1 0x40 MLOAD DUP1 PUSH1 0x60 ADD PUSH1 0x40 MSTORE DUP1 PUSH1 0x60 DUP2 MSTORE PUSH1 0x20 ADD PUSH1 0x0 DUP2 MSTORE PUSH1 0x20 ADD PUSH1 0x60 DUP2 MSTORE POP SWAP1 JUMP JUMPDEST PUSH1 0x40 MLOAD DUP1 PUSH1 0xE0 ADD PUSH1 0x40 MSTORE DUP1 PUSH1 0x0 DUP2 MSTORE PUSH1 0x20 ADD PUSH1 0x0 DUP2 MSTORE PUSH1 0x20 ADD PUSH1 0x0 DUP2 MSTORE PUSH1 0x20 ADD PUSH1 0x0 DUP2 MSTORE PUSH1 0x20 ADD PUSH1 0x0 DUP2 MSTORE PUSH1 0x20 ADD PUSH1 0x0 DUP2 MSTORE PUSH1 0x20 ADD PUSH1 0x0 DUP2 MSTORE POP SWAP1 JUMP JUMPDEST PUSH1 0x40 MLOAD DUP1 PUSH2 0x100 ADD PUSH1 0x40 MSTORE DUP1 PUSH1 0x0 DUP2 MSTORE PUSH1 0x20 ADD PUSH1 0x0 DUP2 MSTORE PUSH1 0x20 ADD PUSH1 0x60 DUP2 MSTORE PUSH1 0x20 ADD PUSH1 0x60 DUP2 MSTORE PUSH1 0x20 ADD PUSH1 0x0 DUP2 MSTORE PUSH1 0x20 ADD PUSH1 0x0 DUP2 MSTORE PUSH1 0x20 ADD PUSH1 0x0 DUP2 MSTORE PUSH1 0x20 ADD PUSH1 0x0 DUP2 MSTORE POP SWAP1 JUMP JUMPDEST PUSH1 0x40 MLOAD DUP1 PUSH1 0x60 ADD PUSH1 0x40 MSTORE DUP1 PUSH1 0x60 DUP2 MSTORE PUSH1 0x20 ADD PUSH1 0x60 DUP2 MSTORE PUSH1 0x20 ADD PUSH1 0x60 DUP2 MSTORE POP SWAP1 JUMP JUMPDEST PUSH1 0x40 MLOAD DUP1 PUSH1 0x40 ADD PUSH1 0x40 MSTORE DUP1 PUSH1 0x0 DUP2 MSTORE PUSH1 0x20 ADD PUSH1 0x0 DUP2 MSTORE POP SWAP1 JUMP JUMPDEST JUMPDEST DUP1 DUP3 GT ISZERO PUSH2 0x37A1 JUMPI PUSH1 0x0 DUP2 PUSH1 0x0 SWAP1 SSTORE POP PUSH1 0x1 ADD PUSH2 0x3789 JUMP JUMPDEST POP SWAP1 JUMP JUMPDEST POP DUP1 SLOAD PUSH2 0x37B1 SWAP1 PUSH2 0x473E JUMP JUMPDEST PUSH1 0x0 DUP3 SSTORE DUP1 PUSH1 0x1F LT PUSH2 0x37C3 JUMPI POP PUSH2 0x37E2 JUMP JUMPDEST PUSH1 0x1F ADD PUSH1 0x20 SWAP1 DIV SWAP1 PUSH1 0x0 MSTORE PUSH1 0x20 PUSH1 0x0 KECCAK256 SWAP1 DUP2 ADD SWAP1 PUSH2 0x37E1 SWAP2 SWAP1 PUSH2 0x3788 JUMP JUMPDEST JUMPDEST POP JUMP JUMPDEST PUSH1 0x0 DUP2 SWAP1 POP SWAP2 SWAP1 POP JUMP JUMPDEST PUSH2 0x37F8 DUP2 PUSH2 0x37E5 JUMP JUMPDEST DUP3 MSTORE POP POP JUMP JUMPDEST PUSH1 0x0 PUSH1 0x20 DUP3 ADD SWAP1 POP PUSH2 0x3813 PUSH1 0x0 DUP4 ADD DUP5 PUSH2 0x37EF JUMP JUMPDEST SWAP3 SWAP2 POP POP JUMP JUMPDEST PUSH1 0x0 PUSH1 0x40 MLOAD SWAP1 POP SWAP1 JUMP JUMPDEST PUSH1 0x0 DUP1 REVERT JUMPDEST PUSH1 0x0 DUP1 REVERT JUMPDEST PUSH1 0x0 DUP1 REVERT JUMPDEST PUSH1 0x0 PUSH1 0x1F NOT PUSH1 0x1F DUP4 ADD AND SWAP1 POP SWAP2 SWAP1 POP JUMP JUMPDEST PUSH32 0x4E487B7100000000000000000000000000000000000000000000000000000000 PUSH1 0x0 MSTORE PUSH1 0x41 PUSH1 0x4 MSTORE PUSH1 0x24 PUSH1 0x0 REVERT JUMPDEST PUSH2 0x387B DUP3 PUSH2 0x3832 JUMP JUMPDEST DUP2 ADD DUP2 DUP2 LT PUSH8 0xFFFFFFFFFFFFFFFF DUP3 GT OR ISZERO PUSH2 0x389A JUMPI PUSH2 0x3899 PUSH2 0x3843 JUMP JUMPDEST JUMPDEST DUP1 PUSH1 0x40 MSTORE POP POP POP JUMP JUMPDEST PUSH1 0x0 PUSH2 0x38AD PUSH2 0x3819 JUMP JUMPDEST SWAP1 POP PUSH2 0x38B9 DUP3 DUP3 PUSH2 0x3872 JUMP JUMPDEST SWAP2 SWAP1 POP JUMP JUMPDEST PUSH1 0x0 PUSH8 0xFFFFFFFFFFFFFFFF DUP3 GT ISZERO PUSH2 0x38D9 JUMPI PUSH2 0x38D8 PUSH2 0x3843 JUMP JUMPDEST JUMPDEST PUSH1 0x20 DUP3 MUL SWAP1 POP PUSH1 0x20 DUP2 ADD SWAP1 POP SWAP2 SWAP1 POP JUMP JUMPDEST PUSH1 0x0 DUP1 REVERT JUMPDEST PUSH1 0x0 DUP1 REVERT JUMPDEST PUSH1 0x0 PUSH8 0xFFFFFFFFFFFFFFFF DUP3 GT ISZERO PUSH2 0x390F JUMPI PUSH2 0x390E PUSH2 0x3843 JUMP JUMPDEST JUMPDEST PUSH2 0x3918 DUP3 PUSH2 0x3832 JUMP JUMPDEST SWAP1 POP PUSH1 0x20 DUP2 ADD SWAP1 POP SWAP2 SWAP1 POP JUMP JUMPDEST DUP3 DUP2 DUP4 CALLDATACOPY PUSH1 0x0 DUP4 DUP4 ADD MSTORE POP POP POP JUMP JUMPDEST PUSH1 0x0 PUSH2 0x3947 PUSH2 0x3942 DUP5 PUSH2 0x38F4 JUMP JUMPDEST PUSH2 0x38A3 JUMP JUMPDEST SWAP1 POP DUP3 DUP2 MSTORE PUSH1 0x20 DUP2 ADD DUP5 DUP5 DUP5 ADD GT ISZERO PUSH2 0x3963 JUMPI PUSH2 0x3962 PUSH2 0x38EF JUMP JUMPDEST JUMPDEST PUSH2 0x396E DUP5 DUP3 DUP6 PUSH2 0x3925 JUMP JUMPDEST POP SWAP4 SWAP3 POP POP POP JUMP JUMPDEST PUSH1 0x0 DUP3 PUSH1 0x1F DUP4 ADD SLT PUSH2 0x398B JUMPI PUSH2 0x398A PUSH2 0x382D JUMP JUMPDEST JUMPDEST DUP2 CALLDATALOAD PUSH2 0x399B DUP5 DUP3 PUSH1 0x20 DUP7 ADD PUSH2 0x3934 JUMP JUMPDEST SWAP2 POP POP SWAP3 SWAP2 POP POP JUMP JUMPDEST PUSH1 0x0 PUSH2 0x39B7 PUSH2 0x39B2 DUP5 PUSH2 0x38BE JUMP JUMPDEST PUSH2 0x38A3 JUMP JUMPDEST SWAP1 POP DUP1 DUP4 DUP3 MSTORE PUSH1 0x20 DUP3 ADD SWAP1 POP PUSH1 0x20 DUP5 MUL DUP4 ADD DUP6 DUP2 GT ISZERO PUSH2 0x39DA JUMPI PUSH2 0x39D9 PUSH2 0x38EA JUMP JUMPDEST JUMPDEST DUP4 JUMPDEST DUP2 DUP2 LT ISZERO PUSH2 0x3A21 JUMPI DUP1 CALLDATALOAD PUSH8 0xFFFFFFFFFFFFFFFF DUP2 GT ISZERO PUSH2 0x39FF JUMPI PUSH2 0x39FE PUSH2 0x382D JUMP JUMPDEST JUMPDEST DUP1 DUP7 ADD PUSH2 0x3A0C DUP10 DUP3 PUSH2 0x3976 JUMP JUMPDEST DUP6 MSTORE PUSH1 0x20 DUP6 ADD SWAP5 POP POP POP PUSH1 0x20 DUP2 ADD SWAP1 POP PUSH2 0x39DC JUMP JUMPDEST POP POP POP SWAP4 SWAP3 POP POP POP JUMP JUMPDEST PUSH1 0x0 DUP3 PUSH1 0x1F DUP4 ADD SLT PUSH2 0x3A40 JUMPI PUSH2 0x3A3F PUSH2 0x382D JUMP JUMPDEST JUMPDEST DUP2 CALLDATALOAD PUSH2 0x3A50 DUP5 DUP3 PUSH1 0x20 DUP7 ADD PUSH2 0x39A4 JUMP JUMPDEST SWAP2 POP POP SWAP3 SWAP2 POP POP JUMP JUMPDEST PUSH1 0x0 DUP1 PUSH1 0x40 DUP4 DUP6 SUB SLT ISZERO PUSH2 0x3A70 JUMPI PUSH2 0x3A6F PUSH2 0x3823 JUMP JUMPDEST JUMPDEST PUSH1 0x0 DUP4 ADD CALLDATALOAD PUSH8 0xFFFFFFFFFFFFFFFF DUP2 GT ISZERO PUSH2 0x3A8E JUMPI PUSH2 0x3A8D PUSH2 0x3828 JUMP JUMPDEST JUMPDEST PUSH2 0x3A9A DUP6 DUP3 DUP7 ADD PUSH2 0x3A2B JUMP JUMPDEST SWAP3 POP POP PUSH1 0x20 DUP4 ADD CALLDATALOAD PUSH8 0xFFFFFFFFFFFFFFFF DUP2 GT ISZERO PUSH2 0x3ABB JUMPI PUSH2 0x3ABA PUSH2 0x3828 JUMP JUMPDEST JUMPDEST PUSH2 0x3AC7 DUP6 DUP3 DUP7 ADD PUSH2 0x3976 JUMP JUMPDEST SWAP2 POP POP SWAP3 POP SWAP3 SWAP1 POP JUMP JUMPDEST PUSH2 0x3ADA DUP2 PUSH2 0x37E5 JUMP JUMPDEST DUP2 EQ PUSH2 0x3AE5 JUMPI PUSH1 0x0 DUP1 REVERT JUMPDEST POP JUMP JUMPDEST PUSH1 0x0 DUP2 CALLDATALOAD SWAP1 POP PUSH2 0x3AF7 DUP2 PUSH2 0x3AD1 JUMP JUMPDEST SWAP3 SWAP2 POP POP JUMP JUMPDEST PUSH1 0x0 PUSH1 0x20 DUP3 DUP5 SUB SLT ISZERO PUSH2 0x3B13 JUMPI PUSH2 0x3B12 PUSH2 0x3823 JUMP JUMPDEST JUMPDEST PUSH1 0x0 PUSH2 0x3B21 DUP5 DUP3 DUP6 ADD PUSH2 0x3AE8 JUMP JUMPDEST SWAP2 POP POP SWAP3 SWAP2 POP POP JUMP JUMPDEST PUSH1 0x0 PUSH20 0xFFFFFFFFFFFFFFFFFFFFFFFFFFFFFFFFFFFFFFFF DUP3 AND SWAP1 POP SWAP2 SWAP1 POP JUMP JUMPDEST PUSH1 0x0 PUSH2 0x3B55 DUP3 PUSH2 0x3B2A JUMP JUMPDEST SWAP1 POP SWAP2 SWAP1 POP JUMP JUMPDEST PUSH2 0x3B65 DUP2 PUSH2 0x3B4A JUMP JUMPDEST DUP2 EQ PUSH2 0x3B70 JUMPI PUSH1 0x0 DUP1 REVERT JUMPDEST POP JUMP JUMPDEST PUSH1 0x0 DUP2 CALLDATALOAD SWAP1 POP PUSH2 0x3B82 DUP2 PUSH2 0x3B5C JUMP JUMPDEST SWAP3 SWAP2 POP POP JUMP JUMPDEST PUSH1 0x0 PUSH1 0x20 DUP3 DUP5 SUB SLT ISZERO PUSH2 0x3B9E JUMPI PUSH2 0x3B9D PUSH2 0x3823 JUMP JUMPDEST JUMPDEST PUSH1 0x0 PUSH2 0x3BAC DUP5 DUP3 DUP6 ADD PUSH2 0x3B73 JUMP JUMPDEST SWAP2 POP POP SWAP3 SWAP2 POP POP JUMP JUMPDEST PUSH1 0x0 DUP2 MLOAD SWAP1 POP SWAP2 SWAP1 POP JUMP JUMPDEST PUSH1 0x0 DUP3 DUP3 MSTORE PUSH1 0x20 DUP3 ADD SWAP1 POP SWAP3 SWAP2 POP POP JUMP JUMPDEST PUSH1 0x0 JUMPDEST DUP4 DUP2 LT ISZERO PUSH2 0x3BEF JUMPI DUP1 DUP3 ADD MLOAD DUP2 DUP5 ADD MSTORE PUSH1 0x20 DUP2 ADD SWAP1 POP PUSH2 0x3BD4 JUMP JUMPDEST PUSH1 0x0 DUP5 DUP5 ADD MSTORE POP POP POP POP JUMP JUMPDEST PUSH1 0x0 PUSH2 0x3C06 DUP3 PUSH2 0x3BB5 JUMP JUMPDEST PUSH2 0x3C10 DUP2 DUP6 PUSH2 0x3BC0 JUMP JUMPDEST SWAP4 POP PUSH2 0x3C20 DUP2 DUP6 PUSH1 0x20 DUP7 ADD PUSH2 0x3BD1 JUMP JUMPDEST PUSH2 0x3C29 DUP2 PUSH2 0x3832 JUMP JUMPDEST DUP5 ADD SWAP2 POP POP SWAP3 SWAP2 POP POP JUMP JUMPDEST PUSH2 0x3C3D DUP2 PUSH2 0x37E5 JUMP JUMPDEST DUP3 MSTORE POP POP JUMP JUMPDEST PUSH1 0x0 PUSH1 0x60 DUP4 ADD PUSH1 0x0 DUP4 ADD MLOAD DUP5 DUP3 SUB PUSH1 0x0 DUP7 ADD MSTORE PUSH2 0x3C60 DUP3 DUP3 PUSH2 0x3BFB JUMP JUMPDEST SWAP2 POP POP PUSH1 0x20 DUP4 ADD MLOAD PUSH2 0x3C75 PUSH1 0x20 DUP7 ADD DUP3 PUSH2 0x3C34 JUMP JUMPDEST POP PUSH1 0x40 DUP4 ADD MLOAD DUP5 DUP3 SUB PUSH1 0x40 DUP7 ADD MSTORE PUSH2 0x3C8D DUP3 DUP3 PUSH2 0x3BFB JUMP JUMPDEST SWAP2 POP POP DUP1 SWAP2 POP POP SWAP3 SWAP2 POP POP JUMP JUMPDEST PUSH1 0xE0 DUP3 ADD PUSH1 0x0 DUP3 ADD MLOAD PUSH2 0x3CB0 PUSH1 0x0 DUP6 ADD DUP3 PUSH2 0x3C34 JUMP JUMPDEST POP PUSH1 0x20 DUP3 ADD MLOAD PUSH2 0x3CC3 PUSH1 0x20 DUP6 ADD DUP3 PUSH2 0x3C34 JUMP JUMPDEST POP PUSH1 0x40 DUP3 ADD MLOAD PUSH2 0x3CD6 PUSH1 0x40 DUP6 ADD DUP3 PUSH2 0x3C34 JUMP JUMPDEST POP PUSH1 0x60 DUP3 ADD MLOAD PUSH2 0x3CE9 PUSH1 0x60 DUP6 ADD DUP3 PUSH2 0x3C34 JUMP JUMPDEST POP PUSH1 0x80 DUP3 ADD MLOAD PUSH2 0x3CFC PUSH1 0x80 DUP6 ADD DUP3 PUSH2 0x3C34 JUMP JUMPDEST POP PUSH1 0xA0 DUP3 ADD MLOAD PUSH2 0x3D0F PUSH1 0xA0 DUP6 ADD DUP3 PUSH2 0x3C34 JUMP JUMPDEST POP PUSH1 0xC0 DUP3 ADD MLOAD PUSH2 0x3D22 PUSH1 0xC0 DUP6 ADD DUP3 PUSH2 0x3C34 JUMP JUMPDEST POP POP POP POP JUMP JUMPDEST PUSH1 0x0 DUP2 MLOAD SWAP1 POP SWAP2 SWAP1 POP JUMP JUMPDEST PUSH1 0x0 DUP3 DUP3 MSTORE PUSH1 0x20 DUP3 ADD SWAP1 POP SWAP3 SWAP2 POP POP JUMP JUMPDEST PUSH1 0x0 DUP2 SWAP1 POP PUSH1 0x20 DUP3 ADD SWAP1 POP SWAP2 SWAP1 POP JUMP JUMPDEST PUSH1 0x0 PUSH2 0x3D60 DUP4 DUP4 PUSH2 0x3C34 JUMP JUMPDEST PUSH1 0x20 DUP4 ADD SWAP1 POP SWAP3 SWAP2 POP POP JUMP JUMPDEST PUSH1 0x0 PUSH1 0x20 DUP3 ADD SWAP1 POP SWAP2 SWAP1 POP JUMP JUMPDEST PUSH1 0x0 PUSH2 0x3D84 DUP3 PUSH2 0x3D28 JUMP JUMPDEST PUSH2 0x3D8E DUP2 DUP6 PUSH2 0x3D33 JUMP JUMPDEST SWAP4 POP PUSH2 0x3D99 DUP4 PUSH2 0x3D44 JUMP JUMPDEST DUP1 PUSH1 0x0 JUMPDEST DUP4 DUP2 LT ISZERO PUSH2 0x3DCA JUMPI DUP2 MLOAD PUSH2 0x3DB1 DUP9 DUP3 PUSH2 0x3D54 JUMP JUMPDEST SWAP8 POP PUSH2 0x3DBC DUP4 PUSH2 0x3D6C JUMP JUMPDEST SWAP3 POP POP PUSH1 0x1 DUP2 ADD SWAP1 POP PUSH2 0x3D9D JUMP JUMPDEST POP DUP6 SWAP4 POP POP POP POP SWAP3 SWAP2 POP POP JUMP JUMPDEST PUSH1 0x0 PUSH2 0x100 DUP4 ADD PUSH1 0x0 DUP4 ADD MLOAD PUSH2 0x3DF0 PUSH1 0x0 DUP7 ADD DUP3 PUSH2 0x3C34 JUMP JUMPDEST POP PUSH1 0x20 DUP4 ADD MLOAD PUSH2 0x3E03 PUSH1 0x20 DUP7 ADD DUP3 PUSH2 0x3C34 JUMP JUMPDEST POP PUSH1 0x40 DUP4 ADD MLOAD DUP5 DUP3 SUB PUSH1 0x40 DUP7 ADD MSTORE PUSH2 0x3E1B DUP3 DUP3 PUSH2 0x3D79 JUMP JUMPDEST SWAP2 POP POP PUSH1 0x60 DUP4 ADD MLOAD DUP5 DUP3 SUB PUSH1 0x60 DUP7 ADD MSTORE PUSH2 0x3E35 DUP3 DUP3 PUSH2 0x3D79 JUMP JUMPDEST SWAP2 POP POP PUSH1 0x80 DUP4 ADD MLOAD PUSH2 0x3E4A PUSH1 0x80 DUP7 ADD DUP3 PUSH2 0x3C34 JUMP JUMPDEST POP PUSH1 0xA0 DUP4 ADD MLOAD PUSH2 0x3E5D PUSH1 0xA0 DUP7 ADD DUP3 PUSH2 0x3C34 JUMP JUMPDEST POP PUSH1 0xC0 DUP4 ADD MLOAD PUSH2 0x3E70 PUSH1 0xC0 DUP7 ADD DUP3 PUSH2 0x3C34 JUMP JUMPDEST POP PUSH1 0xE0 DUP4 ADD MLOAD PUSH2 0x3E83 PUSH1 0xE0 DUP7 ADD DUP3 PUSH2 0x3C34 JUMP JUMPDEST POP DUP1 SWAP2 POP POP SWAP3 SWAP2 POP POP JUMP JUMPDEST PUSH1 0x0 DUP2 MLOAD SWAP1 POP SWAP2 SWAP1 POP JUMP JUMPDEST PUSH1 0x0 DUP3 DUP3 MSTORE PUSH1 0x20 DUP3 ADD SWAP1 POP SWAP3 SWAP2 POP POP JUMP JUMPDEST PUSH1 0x0 DUP2 SWAP1 POP PUSH1 0x20 DUP3 ADD SWAP1 POP SWAP2 SWAP1 POP JUMP JUMPDEST PUSH1 0x0 PUSH2 0x3EC6 DUP4 DUP4 PUSH2 0x3BFB JUMP JUMPDEST SWAP1 POP SWAP3 SWAP2 POP POP JUMP JUMPDEST PUSH1 0x0 PUSH1 0x20 DUP3 ADD SWAP1 POP SWAP2 SWAP1 POP JUMP JUMPDEST PUSH1 0x0 PUSH2 0x3EE6 DUP3 PUSH2 0x3E8E JUMP JUMPDEST PUSH2 0x3EF0 DUP2 DUP6 PUSH2 0x3E99 JUMP JUMPDEST SWAP4 POP DUP4 PUSH1 0x20 DUP3 MUL DUP6 ADD PUSH2 0x3F02 DUP6 PUSH2 0x3EAA JUMP JUMPDEST DUP1 PUSH1 0x0 JUMPDEST DUP6 DUP2 LT ISZERO PUSH2 0x3F3E JUMPI DUP5 DUP5 SUB DUP10 MSTORE DUP2 MLOAD PUSH2 0x3F1F DUP6 DUP3 PUSH2 0x3EBA JUMP JUMPDEST SWAP5 POP PUSH2 0x3F2A DUP4 PUSH2 0x3ECE JUMP JUMPDEST SWAP3 POP PUSH1 0x20 DUP11 ADD SWAP10 POP POP PUSH1 0x1 DUP2 ADD SWAP1 POP PUSH2 0x3F06 JUMP JUMPDEST POP DUP3 SWAP8 POP DUP8 SWAP6 POP POP POP POP POP POP SWAP3 SWAP2 POP POP JUMP JUMPDEST PUSH1 0x0 PUSH1 0x60 DUP4 ADD PUSH1 0x0 DUP4 ADD MLOAD DUP5 DUP3 SUB PUSH1 0x0 DUP7 ADD MSTORE PUSH2 0x3F6D DUP3 DUP3 PUSH2 0x3EDB JUMP JUMPDEST SWAP2 POP POP PUSH1 0x20 DUP4 ADD MLOAD DUP5 DUP3 SUB PUSH1 0x20 DUP7 ADD MSTORE PUSH2 0x3F87 DUP3 DUP3 PUSH2 0x3BFB JUMP JUMPDEST SWAP2 POP POP PUSH1 0x40 DUP4 ADD MLOAD DUP5 DUP3 SUB PUSH1 0x40 DUP7 ADD MSTORE PUSH2 0x3FA1 DUP3 DUP3 PUSH2 0x3EDB JUMP JUMPDEST SWAP2 POP POP DUP1 SWAP2 POP POP SWAP3 SWAP2 POP POP JUMP JUMPDEST PUSH1 0x40 DUP3 ADD PUSH1 0x0 DUP3 ADD MLOAD PUSH2 0x3FC4 PUSH1 0x0 DUP6 ADD DUP3 PUSH2 0x3C34 JUMP JUMPDEST POP PUSH1 0x20 DUP3 ADD MLOAD PUSH2 0x3FD7 PUSH1 0x20 DUP6 ADD DUP3 PUSH2 0x3C34 JUMP JUMPDEST POP POP POP POP JUMP JUMPDEST PUSH1 0x0 PUSH2 0x1A0 DUP4 ADD PUSH1 0x0 DUP4 ADD MLOAD DUP5 DUP3 SUB PUSH1 0x0 DUP7 ADD MSTORE PUSH2 0x3FFB DUP3 DUP3 PUSH2 0x3C43 JUMP JUMPDEST SWAP2 POP POP PUSH1 0x20 DUP4 ADD MLOAD PUSH2 0x4010 PUSH1 0x20 DUP7 ADD DUP3 PUSH2 0x3C9A JUMP JUMPDEST POP PUSH1 0x40 DUP4 ADD MLOAD DUP5 DUP3 SUB PUSH2 0x100 DUP7 ADD MSTORE PUSH2 0x4029 DUP3 DUP3 PUSH2 0x3DD7 JUMP JUMPDEST SWAP2 POP POP PUSH1 0x60 DUP4 ADD MLOAD DUP5 DUP3 SUB PUSH2 0x120 DUP7 ADD MSTORE PUSH2 0x4044 DUP3 DUP3 PUSH2 0x3F50 JUMP JUMPDEST SWAP2 POP POP PUSH1 0x80 DUP4 ADD MLOAD PUSH2 0x405A PUSH2 0x140 DUP7 ADD DUP3 PUSH2 0x3FAE JUMP JUMPDEST POP PUSH1 0xA0 DUP4 ADD MLOAD PUSH2 0x406E PUSH2 0x180 DUP7 ADD DUP3 PUSH2 0x3C34 JUMP JUMPDEST POP DUP1 SWAP2 POP POP SWAP3 SWAP2 POP POP JUMP JUMPDEST PUSH1 0x0 PUSH1 0x20 DUP3 ADD SWAP1 POP DUP2 DUP2 SUB PUSH1 0x0 DUP4 ADD MSTORE PUSH2 0x4093 DUP2 DUP5 PUSH2 0x3FDD JUMP JUMPDEST SWAP1 POP SWAP3 SWAP2 POP POP JUMP JUMPDEST PUSH1 0x0 PUSH1 0x20 DUP3 DUP5 SUB SLT ISZERO PUSH2 0x40B1 JUMPI PUSH2 0x40B0 PUSH2 0x3823 JUMP JUMPDEST JUMPDEST PUSH1 0x0 DUP3 ADD CALLDATALOAD PUSH8 0xFFFFFFFFFFFFFFFF DUP2 GT ISZERO PUSH2 0x40CF JUMPI PUSH2 0x40CE PUSH2 0x3828 JUMP JUMPDEST JUMPDEST PUSH2 0x40DB DUP5 DUP3 DUP6 ADD PUSH2 0x3976 JUMP JUMPDEST SWAP2 POP POP SWAP3 SWAP2 POP POP JUMP JUMPDEST PUSH1 0x0 DUP1 PUSH1 0x40 DUP4 DUP6 SUB SLT ISZERO PUSH2 0x40FB JUMPI PUSH2 0x40FA PUSH2 0x3823 JUMP JUMPDEST JUMPDEST PUSH1 0x0 DUP4 ADD CALLDATALOAD PUSH8 0xFFFFFFFFFFFFFFFF DUP2 GT ISZERO PUSH2 0x4119 JUMPI PUSH2 0x4118 PUSH2 0x3828 JUMP JUMPDEST JUMPDEST PUSH2 0x4125 DUP6 DUP3 DUP7 ADD PUSH2 0x3976 JUMP JUMPDEST SWAP3 POP POP PUSH1 0x20 PUSH2 0x4136 DUP6 DUP3 DUP7 ADD PUSH2 0x3AE8 JUMP JUMPDEST SWAP2 POP POP SWAP3 POP SWAP3 SWAP1 POP JUMP JUMPDEST PUSH1 0x0 DUP2 ISZERO ISZERO SWAP1 POP SWAP2 SWAP1 POP JUMP JUMPDEST PUSH2 0x4155 DUP2 PUSH2 0x4140 JUMP JUMPDEST DUP3 MSTORE POP POP JUMP JUMPDEST PUSH1 0x0 PUSH1 0x20 DUP3 ADD SWAP1 POP PUSH2 0x4170 PUSH1 0x0 DUP4 ADD DUP5 PUSH2 0x414C JUMP JUMPDEST SWAP3 SWAP2 POP POP JUMP JUMPDEST PUSH1 0x0 DUP1 PUSH1 0x40 DUP4 DUP6 SUB SLT ISZERO PUSH2 0x418D JUMPI PUSH2 0x418C PUSH2 0x3823 JUMP JUMPDEST JUMPDEST PUSH1 0x0 PUSH2 0x419B DUP6 DUP3 DUP7 ADD PUSH2 0x3B73 JUMP JUMPDEST SWAP3 POP POP PUSH1 0x20 PUSH2 0x41AC DUP6 DUP3 DUP7 ADD PUSH2 0x3B73 JUMP JUMPDEST SWAP2 POP POP SWAP3 POP SWAP3 SWAP1 POP JUMP JUMPDEST PUSH2 0x41BF DUP2 PUSH2 0x3B4A JUMP JUMPDEST DUP3 MSTORE POP POP JUMP JUMPDEST PUSH1 0x0 PUSH1 0x20 DUP3 ADD SWAP1 POP PUSH2 0x41DA PUSH1 0x0 DUP4 ADD DUP5 PUSH2 0x41B6 JUMP JUMPDEST SWAP3 SWAP2 POP POP JUMP JUMPDEST PUSH1 0x0 DUP1 PUSH1 0x0 DUP1 PUSH1 0x0 DUP1 PUSH1 0xC0 DUP8 DUP10 SUB SLT ISZERO PUSH2 0x41FD JUMPI PUSH2 0x41FC PUSH2 0x3823 JUMP JUMPDEST JUMPDEST PUSH1 0x0 PUSH2 0x420B DUP10 DUP3 DUP11 ADD PUSH2 0x3AE8 JUMP JUMPDEST SWAP7 POP POP PUSH1 0x20 PUSH2 0x421C DUP10 DUP3 DUP11 ADD PUSH2 0x3AE8 JUMP JUMPDEST SWAP6 POP POP PUSH1 0x40 PUSH2 0x422D DUP10 DUP3 DUP11 ADD PUSH2 0x3AE8 JUMP JUMPDEST SWAP5 POP POP PUSH1 0x60 PUSH2 0x423E DUP10 DUP3 DUP11 ADD PUSH2 0x3AE8 JUMP JUMPDEST SWAP4 POP POP PUSH1 0x80 PUSH2 0x424F DUP10 DUP3 DUP11 ADD PUSH2 0x3AE8 JUMP JUMPDEST SWAP3 POP POP PUSH1 0xA0 PUSH2 0x4260 DUP10 DUP3 DUP11 ADD PUSH2 0x3AE8 JUMP JUMPDEST SWAP2 POP POP SWAP3 SWAP6 POP SWAP3 SWAP6 POP SWAP3 SWAP6 JUMP JUMPDEST PUSH1 0x0 DUP1 PUSH1 0x0 DUP1 PUSH1 0x0 DUP1 PUSH1 0x0 PUSH1 0xE0 DUP9 DUP11 SUB SLT ISZERO PUSH2 0x428C JUMPI PUSH2 0x428B PUSH2 0x3823 JUMP JUMPDEST JUMPDEST PUSH1 0x0 DUP9 ADD CALLDATALOAD PUSH8 0xFFFFFFFFFFFFFFFF DUP2 GT ISZERO PUSH2 0x42AA JUMPI PUSH2 0x42A9 PUSH2 0x3828 JUMP JUMPDEST JUMPDEST PUSH2 0x42B6 DUP11 DUP3 DUP12 ADD PUSH2 0x3976 JUMP JUMPDEST SWAP8 POP POP PUSH1 0x20 PUSH2 0x42C7 DUP11 DUP3 DUP12 ADD PUSH2 0x3AE8 JUMP JUMPDEST SWAP7 POP POP PUSH1 0x40 DUP9 ADD CALLDATALOAD PUSH8 0xFFFFFFFFFFFFFFFF DUP2 GT ISZERO PUSH2 0x42E8 JUMPI PUSH2 0x42E7 PUSH2 0x3828 JUMP JUMPDEST JUMPDEST PUSH2 0x42F4 DUP11 DUP3 DUP12 ADD PUSH2 0x3976 JUMP JUMPDEST SWAP6 POP POP PUSH1 0x60 PUSH2 0x4305 DUP11 DUP3 DUP12 ADD PUSH2 0x3AE8 JUMP JUMPDEST SWAP5 POP POP PUSH1 0x80 DUP9 ADD CALLDATALOAD PUSH8 0xFFFFFFFFFFFFFFFF DUP2 GT ISZERO PUSH2 0x4326 JUMPI PUSH2 0x4325 PUSH2 0x3828 JUMP JUMPDEST JUMPDEST PUSH2 0x4332 DUP11 DUP3 DUP12 ADD PUSH2 0x3A2B JUMP JUMPDEST SWAP4 POP POP PUSH1 0xA0 DUP9 ADD CALLDATALOAD PUSH8 0xFFFFFFFFFFFFFFFF DUP2 GT ISZERO PUSH2 0x4353 JUMPI PUSH2 0x4352 PUSH2 0x3828 JUMP JUMPDEST JUMPDEST PUSH2 0x435F DUP11 DUP3 DUP12 ADD PUSH2 0x3976 JUMP JUMPDEST SWAP3 POP POP PUSH1 0xC0 DUP9 ADD CALLDATALOAD PUSH8 0xFFFFFFFFFFFFFFFF DUP2 GT ISZERO PUSH2 0x4380 JUMPI PUSH2 0x437F PUSH2 0x3828 JUMP JUMPDEST JUMPDEST PUSH2 0x438C DUP11 DUP3 DUP12 ADD PUSH2 0x3A2B JUMP JUMPDEST SWAP2 POP POP SWAP3 SWAP6 SWAP9 SWAP2 SWAP5 SWAP8 POP SWAP3 SWAP6 POP JUMP JUMPDEST PUSH1 0x0 DUP1 PUSH1 0x0 PUSH1 0x60 DUP5 DUP7 SUB SLT ISZERO PUSH2 0x43B4 JUMPI PUSH2 0x43B3 PUSH2 0x3823 JUMP JUMPDEST JUMPDEST PUSH1 0x0 PUSH2 0x43C2 DUP7 DUP3 DUP8 ADD PUSH2 0x3AE8 JUMP JUMPDEST SWAP4 POP POP PUSH1 0x20 PUSH2 0x43D3 DUP7 DUP3 DUP8 ADD PUSH2 0x3AE8 JUMP JUMPDEST SWAP3 POP POP PUSH1 0x40 PUSH2 0x43E4 DUP7 DUP3 DUP8 ADD PUSH2 0x3AE8 JUMP JUMPDEST SWAP2 POP POP SWAP3 POP SWAP3 POP SWAP3 JUMP JUMPDEST PUSH1 0x0 PUSH1 0x60 DUP4 ADD PUSH1 0x0 DUP4 ADD MLOAD DUP5 DUP3 SUB PUSH1 0x0 DUP7 ADD MSTORE PUSH2 0x440B DUP3 DUP3 PUSH2 0x3BFB JUMP JUMPDEST SWAP2 POP POP PUSH1 0x20 DUP4 ADD MLOAD PUSH2 0x4420 PUSH1 0x20 DUP7 ADD DUP3 PUSH2 0x3C34 JUMP JUMPDEST POP PUSH1 0x40 DUP4 ADD MLOAD DUP5 DUP3 SUB PUSH1 0x40 DUP7 ADD MSTORE PUSH2 0x4438 DUP3 DUP3 PUSH2 0x3BFB JUMP JUMPDEST SWAP2 POP POP DUP1 SWAP2 POP POP SWAP3 SWAP2 POP POP JUMP JUMPDEST PUSH1 0xE0 DUP3 ADD PUSH1 0x0 DUP3 ADD MLOAD PUSH2 0x445B PUSH1 0x0 DUP6 ADD DUP3 PUSH2 0x3C34 JUMP JUMPDEST POP PUSH1 0x20 DUP3 ADD MLOAD PUSH2 0x446E PUSH1 0x20 DUP6 ADD DUP3 PUSH2 0x3C34 JUMP JUMPDEST POP PUSH1 0x40 DUP3 ADD MLOAD PUSH2 0x4481 PUSH1 0x40 DUP6 ADD DUP3 PUSH2 0x3C34 JUMP JUMPDEST POP PUSH1 0x60 DUP3 ADD MLOAD PUSH2 0x4494 PUSH1 0x60 DUP6 ADD DUP3 PUSH2 0x3C34 JUMP JUMPDEST POP PUSH1 0x80 DUP3 ADD MLOAD PUSH2 0x44A7 PUSH1 0x80 DUP6 ADD DUP3 PUSH2 0x3C34 JUMP JUMPDEST POP PUSH1 0xA0 DUP3 ADD MLOAD PUSH2 0x44BA PUSH1 0xA0 DUP6 ADD DUP3 PUSH2 0x3C34 JUMP JUMPDEST POP PUSH1 0xC0 DUP3 ADD MLOAD PUSH2 0x44CD PUSH1 0xC0 DUP6 ADD DUP3 PUSH2 0x3C34 JUMP JUMPDEST POP POP POP POP JUMP JUMPDEST PUSH1 0x0 PUSH2 0x100 DUP4 ADD PUSH1 0x0 DUP4 ADD MLOAD PUSH2 0x44EC PUSH1 0x0 DUP7 ADD DUP3 PUSH2 0x3C34 JUMP JUMPDEST POP PUSH1 0x20 DUP4 ADD MLOAD PUSH2 0x44FF PUSH1 0x20 DUP7 ADD DUP3 PUSH2 0x3C34 JUMP JUMPDEST POP PUSH1 0x40 DUP4 ADD MLOAD DUP5 DUP3 SUB PUSH1 0x40 DUP7 ADD MSTORE PUSH2 0x4517 DUP3 DUP3 PUSH2 0x3D79 JUMP JUMPDEST SWAP2 POP POP PUSH1 0x60 DUP4 ADD MLOAD DUP5 DUP3 SUB PUSH1 0x60 DUP7 ADD MSTORE PUSH2 0x4531 DUP3 DUP3 PUSH2 0x3D79 JUMP JUMPDEST SWAP2 POP POP PUSH1 0x80 DUP4 ADD MLOAD PUSH2 0x4546 PUSH1 0x80 DUP7 ADD DUP3 PUSH2 0x3C34 JUMP JUMPDEST POP PUSH1 0xA0 DUP4 ADD MLOAD PUSH2 0x4559 PUSH1 0xA0 DUP7 ADD DUP3 PUSH2 0x3C34 JUMP JUMPDEST POP PUSH1 0xC0 DUP4 ADD MLOAD PUSH2 0x456C PUSH1 0xC0 DUP7 ADD DUP3 PUSH2 0x3C34 JUMP JUMPDEST POP PUSH1 0xE0 DUP4 ADD MLOAD PUSH2 0x457F PUSH1 0xE0 DUP7 ADD DUP3 PUSH2 0x3C34 JUMP JUMPDEST POP DUP1 SWAP2 POP POP SWAP3 SWAP2 POP POP JUMP JUMPDEST PUSH1 0x0 PUSH1 0x60 DUP4 ADD PUSH1 0x0 DUP4 ADD MLOAD DUP5 DUP3 SUB PUSH1 0x0 DUP7 ADD MSTORE PUSH2 0x45A7 DUP3 DUP3 PUSH2 0x3EDB JUMP JUMPDEST SWAP2 POP POP PUSH1 0x20 DUP4 ADD MLOAD DUP5 DUP3 SUB PUSH1 0x20 DUP7 ADD MSTORE PUSH2 0x45C1 DUP3 DUP3 PUSH2 0x3BFB JUMP JUMPDEST SWAP2 POP POP PUSH1 0x40 DUP4 ADD MLOAD DUP5 DUP3 SUB PUSH1 0x40 DUP7 ADD MSTORE PUSH2 0x45DB DUP3 DUP3 PUSH2 0x3EDB JUMP JUMPDEST SWAP2 POP POP DUP1 SWAP2 POP POP SWAP3 SWAP2 POP POP JUMP JUMPDEST PUSH1 0x40 DUP3 ADD PUSH1 0x0 DUP3 ADD MLOAD PUSH2 0x45FE PUSH1 0x0 DUP6 ADD DUP3 PUSH2 0x3C34 JUMP JUMPDEST POP PUSH1 0x20 DUP3 ADD MLOAD PUSH2 0x4611 PUSH1 0x20 DUP6 ADD DUP3 PUSH2 0x3C34 JUMP JUMPDEST POP POP POP POP JUMP JUMPDEST PUSH1 0x0 PUSH2 0x1A0 DUP3 ADD SWAP1 POP DUP2 DUP2 SUB PUSH1 0x0 DUP4 ADD MSTORE PUSH2 0x4632 DUP2 DUP10 PUSH2 0x43EE JUMP JUMPDEST SWAP1 POP PUSH2 0x4641 PUSH1 0x20 DUP4 ADD DUP9 PUSH2 0x4445 JUMP JUMPDEST DUP2 DUP2 SUB PUSH2 0x100 DUP4 ADD MSTORE PUSH2 0x4654 DUP2 DUP8 PUSH2 0x44D3 JUMP JUMPDEST SWAP1 POP DUP2 DUP2 SUB PUSH2 0x120 DUP4 ADD MSTORE PUSH2 0x4669 DUP2 DUP7 PUSH2 0x458A JUMP JUMPDEST SWAP1 POP PUSH2 0x4679 PUSH2 0x140 DUP4 ADD DUP6 PUSH2 0x45E8 JUMP JUMPDEST PUSH2 0x4687 PUSH2 0x180 DUP4 ADD DUP5 PUSH2 0x37EF JUMP JUMPDEST SWAP8 SWAP7 POP POP POP POP POP POP POP JUMP JUMPDEST PUSH1 0x0 DUP3 DUP3 MSTORE PUSH1 0x20 DUP3 ADD SWAP1 POP SWAP3 SWAP2 POP POP JUMP JUMPDEST PUSH32 0x4D616E6167657220646F6573206E6F7420657869737400000000000000000000 PUSH1 0x0 DUP3 ADD MSTORE POP JUMP JUMPDEST PUSH1 0x0 PUSH2 0x46D9 PUSH1 0x16 DUP4 PUSH2 0x4692 JUMP JUMPDEST SWAP2 POP PUSH2 0x46E4 DUP3 PUSH2 0x46A3 JUMP JUMPDEST PUSH1 0x20 DUP3 ADD SWAP1 POP SWAP2 SWAP1 POP JUMP JUMPDEST PUSH1 0x0 PUSH1 0x20 DUP3 ADD SWAP1 POP DUP2 DUP2 SUB PUSH1 0x0 DUP4 ADD MSTORE PUSH2 0x4708 DUP2 PUSH2 0x46CC JUMP JUMPDEST SWAP1 POP SWAP2 SWAP1 POP JUMP JUMPDEST PUSH32 0x4E487B7100000000000000000000000000000000000000000000000000000000 PUSH1 0x0 MSTORE PUSH1 0x22 PUSH1 0x4 MSTORE PUSH1 0x24 PUSH1 0x0 REVERT JUMPDEST PUSH1 0x0 PUSH1 0x2 DUP3 DIV SWAP1 POP PUSH1 0x1 DUP3 AND DUP1 PUSH2 0x4756 JUMPI PUSH1 0x7F DUP3 AND SWAP2 POP JUMPDEST PUSH1 0x20 DUP3 LT DUP2 SUB PUSH2 0x4769 JUMPI PUSH2 0x4768 PUSH2 0x470F JUMP JUMPDEST JUMPDEST POP SWAP2 SWAP1 POP JUMP JUMPDEST PUSH1 0x0 DUP2 SWAP1 POP DUP2 PUSH1 0x0 MSTORE PUSH1 0x20 PUSH1 0x0 KECCAK256 SWAP1 POP SWAP2 SWAP1 POP JUMP JUMPDEST PUSH1 0x0 PUSH1 0x20 PUSH1 0x1F DUP4 ADD DIV SWAP1 POP SWAP2 SWAP1 POP JUMP JUMPDEST PUSH1 0x0 DUP3 DUP3 SHL SWAP1 POP SWAP3 SWAP2 POP POP JUMP JUMPDEST PUSH1 0x0 PUSH1 0x8 DUP4 MUL PUSH2 0x47D1 PUSH32 0xFFFFFFFFFFFFFFFFFFFFFFFFFFFFFFFFFFFFFFFFFFFFFFFFFFFFFFFFFFFFFFFF DUP3 PUSH2 0x4794 JUMP JUMPDEST PUSH2 0x47DB DUP7 DUP4 PUSH2 0x4794 JUMP JUMPDEST SWAP6 POP DUP1 NOT DUP5 AND SWAP4 POP DUP1 DUP7 AND DUP5 OR SWAP3 POP POP POP SWAP4 SWAP3 POP POP POP JUMP JUMPDEST PUSH1 0x0 DUP2 SWAP1 POP SWAP2 SWAP1 POP JUMP JUMPDEST PUSH1 0x0 PUSH2 0x4818 PUSH2 0x4813 PUSH2 0x480E DUP5 PUSH2 0x37E5 JUMP JUMPDEST PUSH2 0x47F3 JUMP JUMPDEST PUSH2 0x37E5 JUMP JUMPDEST SWAP1 POP SWAP2 SWAP1 POP JUMP JUMPDEST PUSH1 0x0 DUP2 SWAP1 POP SWAP2 SWAP1 POP JUMP JUMPDEST PUSH2 0x4832 DUP4 PUSH2 0x47FD JUMP JUMPDEST PUSH2 0x4846 PUSH2 0x483E DUP3 PUSH2 0x481F JUMP JUMPDEST DUP5 DUP5 SLOAD PUSH2 0x47A1 JUMP JUMPDEST DUP3 SSTORE POP POP POP POP JUMP JUMPDEST PUSH1 0x0 SWAP1 JUMP JUMPDEST PUSH2 0x485B PUSH2 0x484E JUMP JUMPDEST PUSH2 0x4866 DUP2 DUP5 DUP5 PUSH2 0x4829 JUMP JUMPDEST POP POP POP JUMP JUMPDEST JUMPDEST DUP2 DUP2 LT ISZERO PUSH2 0x488A JUMPI PUSH2 0x487F PUSH1 0x0 DUP3 PUSH2 0x4853 JUMP JUMPDEST PUSH1 0x1 DUP2 ADD SWAP1 POP PUSH2 0x486C JUMP JUMPDEST POP POP JUMP JUMPDEST PUSH1 0x1F DUP3 GT ISZERO PUSH2 0x48CF JUMPI PUSH2 0x48A0 DUP2 PUSH2 0x476F JUMP JUMPDEST PUSH2 0x48A9 DUP5 PUSH2 0x4784 JUMP JUMPDEST DUP2 ADD PUSH1 0x20 DUP6 LT ISZERO PUSH2 0x48B8 JUMPI DUP2 SWAP1 POP JUMPDEST PUSH2 0x48CC PUSH2 0x48C4 DUP6 PUSH2 0x4784 JUMP JUMPDEST DUP4 ADD DUP3 PUSH2 0x486B JUMP JUMPDEST POP POP JUMPDEST POP POP POP JUMP JUMPDEST PUSH1 0x0 DUP3 DUP3 SHR SWAP1 POP SWAP3 SWAP2 POP POP JUMP JUMPDEST PUSH1 0x0 PUSH2 0x48F2 PUSH1 0x0 NOT DUP5 PUSH1 0x8 MUL PUSH2 0x48D4 JUMP JUMPDEST NOT DUP1 DUP4 AND SWAP2 POP POP SWAP3 SWAP2 POP POP JUMP JUMPDEST PUSH1 0x0 PUSH2 0x490B DUP4 DUP4 PUSH2 0x48E1 JUMP JUMPDEST SWAP2 POP DUP3 PUSH1 0x2 MUL DUP3 OR SWAP1 POP SWAP3 SWAP2 POP POP JUMP JUMPDEST PUSH2 0x4924 DUP3 PUSH2 0x3BB5 JUMP JUMPDEST PUSH8 0xFFFFFFFFFFFFFFFF DUP2 GT ISZERO PUSH2 0x493D JUMPI PUSH2 0x493C PUSH2 0x3843 JUMP JUMPDEST JUMPDEST PUSH2 0x4947 DUP3 SLOAD PUSH2 0x473E JUMP JUMPDEST PUSH2 0x4952 DUP3 DUP3 DUP6 PUSH2 0x488E JUMP JUMPDEST PUSH1 0x0 PUSH1 0x20 SWAP1 POP PUSH1 0x1F DUP4 GT PUSH1 0x1 DUP2 EQ PUSH2 0x4985 JUMPI PUSH1 0x0 DUP5 ISZERO PUSH2 0x4973 JUMPI DUP3 DUP8 ADD MLOAD SWAP1 POP JUMPDEST PUSH2 0x497D DUP6 DUP3 PUSH2 0x48FF JUMP JUMPDEST DUP7 SSTORE POP PUSH2 0x49E5 JUMP JUMPDEST PUSH1 0x1F NOT DUP5 AND PUSH2 0x4993 DUP7 PUSH2 0x476F JUMP JUMPDEST PUSH1 0x0 JUMPDEST DUP3 DUP2 LT ISZERO PUSH2 0x49BB JUMPI DUP5 DUP10 ADD MLOAD DUP3 SSTORE PUSH1 0x1 DUP3 ADD SWAP2 POP PUSH1 0x20 DUP6 ADD SWAP5 POP PUSH1 0x20 DUP2 ADD SWAP1 POP PUSH2 0x4996 JUMP JUMPDEST DUP7 DUP4 LT ISZERO PUSH2 0x49D8 JUMPI DUP5 DUP10 ADD MLOAD PUSH2 0x49D4 PUSH1 0x1F DUP10 AND DUP3 PUSH2 0x48E1 JUMP JUMPDEST DUP4 SSTORE POP JUMPDEST PUSH1 0x1 PUSH1 0x2 DUP9 MUL ADD DUP9 SSTORE POP POP POP JUMPDEST POP POP POP POP POP POP JUMP JUMPDEST PUSH1 0x0 DUP2 SLOAD PUSH2 0x49FA DUP2 PUSH2 0x473E JUMP JUMPDEST PUSH2 0x4A04 DUP2 DUP7 PUSH2 0x4692 JUMP JUMPDEST SWAP5 POP PUSH1 0x1 DUP3 AND PUSH1 0x0 DUP2 EQ PUSH2 0x4A1F JUMPI PUSH1 0x1 DUP2 EQ PUSH2 0x4A35 JUMPI PUSH2 0x4A68 JUMP JUMPDEST PUSH1 0xFF NOT DUP4 AND DUP7 MSTORE DUP2 ISZERO ISZERO PUSH1 0x20 MUL DUP7 ADD SWAP4 POP PUSH2 0x4A68 JUMP JUMPDEST PUSH2 0x4A3E DUP6 PUSH2 0x476F JUMP JUMPDEST PUSH1 0x0 JUMPDEST DUP4 DUP2 LT ISZERO PUSH2 0x4A60 JUMPI DUP2 SLOAD DUP2 DUP10 ADD MSTORE PUSH1 0x1 DUP3 ADD SWAP2 POP PUSH1 0x20 DUP2 ADD SWAP1 POP PUSH2 0x4A41 JUMP JUMPDEST DUP1 DUP9 ADD SWAP6 POP POP POP JUMPDEST POP POP POP SWAP3 SWAP2 POP POP JUMP JUMPDEST PUSH1 0x0 PUSH1 0x20 DUP3 ADD SWAP1 POP DUP2 DUP2 SUB PUSH1 0x0 DUP4 ADD MSTORE PUSH2 0x4A8B DUP2 DUP5 PUSH2 0x49ED JUMP JUMPDEST SWAP1 POP SWAP3 SWAP2 POP POP JUMP JUMPDEST PUSH32 0x4E487B7100000000000000000000000000000000000000000000000000000000 PUSH1 0x0 MSTORE PUSH1 0x11 PUSH1 0x4 MSTORE PUSH1 0x24 PUSH1 0x0 REVERT JUMPDEST PUSH1 0x0 PUSH2 0x4ACD DUP3 PUSH2 0x37E5 JUMP JUMPDEST SWAP2 POP PUSH2 0x4AD8 DUP4 PUSH2 0x37E5 JUMP JUMPDEST SWAP3 POP DUP3 DUP3 ADD SWAP1 POP DUP1 DUP3 GT ISZERO PUSH2 0x4AF0 JUMPI PUSH2 0x4AEF PUSH2 0x4A93 JUMP JUMPDEST JUMPDEST SWAP3 SWAP2 POP POP JUMP JUMPDEST PUSH1 0x0 PUSH2 0x4B01 DUP3 PUSH2 0x37E5 JUMP JUMPDEST SWAP2 POP PUSH2 0x4B0C DUP4 PUSH2 0x37E5 JUMP JUMPDEST SWAP3 POP DUP3 DUP3 MUL PUSH2 0x4B1A DUP2 PUSH2 0x37E5 JUMP JUMPDEST SWAP2 POP DUP3 DUP3 DIV DUP5 EQ DUP4 ISZERO OR PUSH2 0x4B31 JUMPI PUSH2 0x4B30 PUSH2 0x4A93 JUMP JUMPDEST JUMPDEST POP SWAP3 SWAP2 POP POP JUMP JUMPDEST PUSH32 0x4E487B7100000000000000000000000000000000000000000000000000000000 PUSH1 0x0 MSTORE PUSH1 0x12 PUSH1 0x4 MSTORE PUSH1 0x24 PUSH1 0x0 REVERT JUMPDEST PUSH1 0x0 PUSH2 0x4B72 DUP3 PUSH2 0x37E5 JUMP JUMPDEST SWAP2 POP PUSH2 0x4B7D DUP4 PUSH2 0x37E5 JUMP JUMPDEST SWAP3 POP DUP3 PUSH2 0x4B8D JUMPI PUSH2 0x4B8C PUSH2 0x4B38 JUMP JUMPDEST JUMPDEST DUP3 DUP3 DIV SWAP1 POP SWAP3 SWAP2 POP POP JUMP JUMPDEST PUSH1 0x0 DUP2 SWAP1 POP SWAP3 SWAP2 POP POP JUMP JUMPDEST PUSH32 0x6D6F7469766174696F6E4162696C697479000000000000000000000000000000 PUSH1 0x0 DUP3 ADD MSTORE POP JUMP JUMPDEST PUSH1 0x0 PUSH2 0x4BD9 PUSH1 0x11 DUP4 PUSH2 0x4B98 JUMP JUMPDEST SWAP2 POP PUSH2 0x4BE4 DUP3 PUSH2 0x4BA3 JUMP JUMPDEST PUSH1 0x11 DUP3 ADD SWAP1 POP SWAP2 SWAP1 POP JUMP JUMPDEST PUSH1 0x0 PUSH2 0x4BFA DUP3 PUSH2 0x4BCC JUMP JUMPDEST SWAP2 POP DUP2 SWAP1 POP SWAP2 SWAP1 POP JUMP JUMPDEST PUSH1 0x0 PUSH2 0x4C0F DUP3 PUSH2 0x3BB5 JUMP JUMPDEST PUSH2 0x4C19 DUP2 DUP6 PUSH2 0x4B98 JUMP JUMPDEST SWAP4 POP PUSH2 0x4C29 DUP2 DUP6 PUSH1 0x20 DUP7 ADD PUSH2 0x3BD1 JUMP JUMPDEST DUP1 DUP5 ADD SWAP2 POP POP SWAP3 SWAP2 POP POP JUMP JUMPDEST PUSH1 0x0 PUSH2 0x4C41 DUP3 DUP5 PUSH2 0x4C04 JUMP JUMPDEST SWAP2 POP DUP2 SWAP1 POP SWAP3 SWAP2 POP POP JUMP JUMPDEST PUSH32 0x6469736369706C696E654D616E6167656D656E74000000000000000000000000 PUSH1 0x0 DUP3 ADD MSTORE POP JUMP JUMPDEST PUSH1 0x0 PUSH2 0x4C82 PUSH1 0x14 DUP4 PUSH2 0x4B98 JUMP JUMPDEST SWAP2 POP PUSH2 0x4C8D DUP3 PUSH2 0x4C4C JUMP JUMPDEST PUSH1 0x14 DUP3 ADD SWAP1 POP SWAP2 SWAP1 POP JUMP JUMPDEST PUSH1 0x0 PUSH2 0x4CA3 DUP3 PUSH2 0x4C75 JUMP JUMPDEST SWAP2 POP DUP2 SWAP1 POP SWAP2 SWAP1 POP JUMP JUMPDEST PUSH32 0x66696E616E6369616C4D616E6167656D656E7400000000000000000000000000 PUSH1 0x0 DUP3 ADD MSTORE POP JUMP JUMPDEST PUSH1 0x0 PUSH2 0x4CE3 PUSH1 0x13 DUP4 PUSH2 0x4B98 JUMP JUMPDEST SWAP2 POP PUSH2 0x4CEE DUP3 PUSH2 0x4CAD JUMP JUMPDEST PUSH1 0x13 DUP3 ADD SWAP1 POP SWAP2 SWAP1 POP JUMP JUMPDEST PUSH1 0x0 PUSH2 0x4D04 DUP3 PUSH2 0x4CD6 JUMP JUMPDEST SWAP2 POP DUP2 SWAP1 POP SWAP2 SWAP1 POP JUMP JUMPDEST PUSH32 0x6D6564696148616E646C696E6700000000000000000000000000000000000000 PUSH1 0x0 DUP3 ADD MSTORE POP JUMP JUMPDEST PUSH1 0x0 PUSH2 0x4D44 PUSH1 0xD DUP4 PUSH2 0x4B98 JUMP JUMPDEST SWAP2 POP PUSH2 0x4D4F DUP3 PUSH2 0x4D0E JUMP JUMPDEST PUSH1 0xD DUP3 ADD SWAP1 POP SWAP2 SWAP1 POP JUMP JUMPDEST PUSH1 0x0 PUSH2 0x4D65 DUP3 PUSH2 0x4D37 JUMP JUMPDEST SWAP2 POP DUP2 SWAP1 POP SWAP2 SWAP1 POP JUMP JUMPDEST PUSH32 0x496E76616C696420736B696C6C206E616D650000000000000000000000000000 PUSH1 0x0 DUP3 ADD MSTORE POP JUMP JUMPDEST PUSH1 0x0 PUSH2 0x4DA5 PUSH1 0x12 DUP4 PUSH2 0x4692 JUMP JUMPDEST SWAP2 POP PUSH2 0x4DB0 DUP3 PUSH2 0x4D6F JUMP JUMPDEST PUSH1 0x20 DUP3 ADD SWAP1 POP SWAP2 SWAP1 POP JUMP JUMPDEST PUSH1 0x0 PUSH1 0x20 DUP3 ADD SWAP1 POP DUP2 DUP2 SUB PUSH1 0x0 DUP4 ADD MSTORE PUSH2 0x4DD4 DUP2 PUSH2 0x4D98 JUMP JUMPDEST SWAP1 POP SWAP2 SWAP1 POP JUMP JUMPDEST PUSH1 0x0 PUSH2 0x4DE6 DUP3 PUSH2 0x37E5 JUMP JUMPDEST SWAP2 POP PUSH2 0x4DF1 DUP4 PUSH2 0x37E5 JUMP JUMPDEST SWAP3 POP DUP3 DUP3 SUB SWAP1 POP DUP2 DUP2 GT ISZERO PUSH2 0x4E09 JUMPI PUSH2 0x4E08 PUSH2 0x4A93 JUMP JUMPDEST JUMPDEST SWAP3 SWAP2 POP POP JUMP JUMPDEST PUSH32 0x4F6E65206F7220626F7468206D616E616765727320646F206E6F742065786973 PUSH1 0x0 DUP3 ADD MSTORE PUSH32 0x7400000000000000000000000000000000000000000000000000000000000000 PUSH1 0x20 DUP3 ADD MSTORE POP JUMP JUMPDEST PUSH1 0x0 PUSH2 0x4E6B PUSH1 0x21 DUP4 PUSH2 0x4692 JUMP JUMPDEST SWAP2 POP PUSH2 0x4E76 DUP3 PUSH2 0x4E0F JUMP JUMPDEST PUSH1 0x40 DUP3 ADD SWAP1 POP SWAP2 SWAP1 POP JUMP JUMPDEST PUSH1 0x0 PUSH1 0x20 DUP3 ADD SWAP1 POP DUP2 DUP2 SUB PUSH1 0x0 DUP4 ADD MSTORE PUSH2 0x4E9A DUP2 PUSH2 0x4E5E JUMP JUMPDEST SWAP1 POP SWAP2 SWAP1 POP JUMP JUMPDEST PUSH32 0x4D616E6167657220616C72656164792072656769737465726564000000000000 PUSH1 0x0 DUP3 ADD MSTORE POP JUMP JUMPDEST PUSH1 0x0 PUSH2 0x4ED7 PUSH1 0x1A DUP4 PUSH2 0x4692 JUMP JUMPDEST SWAP2 POP PUSH2 0x4EE2 DUP3 PUSH2 0x4EA1 JUMP JUMPDEST PUSH1 0x20 DUP3 ADD SWAP1 POP SWAP2 SWAP1 POP JUMP JUMPDEST PUSH1 0x0 PUSH1 0x20 DUP3 ADD SWAP1 POP DUP2 DUP2 SUB PUSH1 0x0 DUP4 ADD MSTORE PUSH2 0x4F06 DUP2 PUSH2 0x4ECA JUMP JUMPDEST SWAP1 POP SWAP2 SWAP1 POP JUMP JUMPDEST PUSH1 0x0 PUSH2 0x4F18 DUP3 PUSH2 0x37E5 JUMP JUMPDEST SWAP2 POP PUSH32 0xFFFFFFFFFFFFFFFFFFFFFFFFFFFFFFFFFFFFFFFFFFFFFFFFFFFFFFFFFFFFFFFF DUP3 SUB PUSH2 0x4F4A JUMPI PUSH2 0x4F49 PUSH2 0x4A93 JUMP JUMPDEST JUMPDEST PUSH1 0x1 DUP3 ADD SWAP1 POP SWAP2 SWAP1 POP JUMP JUMPDEST PUSH1 0x0 PUSH2 0x4F60 DUP3 PUSH2 0x3BB5 JUMP JUMPDEST PUSH2 0x4F6A DUP2 DUP6 PUSH2 0x4692 JUMP JUMPDEST SWAP4 POP PUSH2 0x4F7A DUP2 DUP6 PUSH1 0x20 DUP7 ADD PUSH2 0x3BD1 JUMP JUMPDEST PUSH2 0x4F83 DUP2 PUSH2 0x3832 JUMP JUMPDEST DUP5 ADD SWAP2 POP POP SWAP3 SWAP2 POP POP JUMP JUMPDEST PUSH1 0x0 PUSH1 0x20 DUP3 ADD SWAP1 POP DUP2 DUP2 SUB PUSH1 0x0 DUP4 ADD MSTORE PUSH2 0x4FA8 DUP2 DUP5 PUSH2 0x4F55 JUMP JUMPDEST SWAP1 POP SWAP3 SWAP2 POP POP JUMP JUMPDEST PUSH1 0x0 PUSH1 0x60 DUP3 ADD SWAP1 POP PUSH2 0x4FC5 PUSH1 0x0 DUP4 ADD DUP7 PUSH2 0x37EF JUMP JUMPDEST PUSH2 0x4FD2 PUSH1 0x20 DUP4 ADD DUP6 PUSH2 0x37EF JUMP JUMPDEST PUSH2 0x4FDF PUSH1 0x40 DUP4 ADD DUP5 PUSH2 0x37EF JUMP JUMPDEST SWAP5 SWAP4 POP POP POP POP JUMP INVALID LOG2 PUSH5 0x6970667358 0x22 SLT KECCAK256 PUSH12 0xF2AB11B1FBDFC06E1DF72D2E SHL DUP15 0xC3 GASPRICE NUMBER LOG4 0xC2 SWAP6 0xC3 0xC7 0xC 0xC2 0xD6 0xCC 0xE9 NOT CODECOPY 0x24 RETURN PUSH5 0x736F6C6343 STOP ADDMOD OR STOP CALLER "
        },
        "methodIdentifiers": {
          "DEFAULT_SKILL_VALUE()": "8065c900",
          "addManagedTeam(uint256)": "ac6dc6d4",
          "addManager(string,uint256,string,uint256,string[],string,string[])": "dc03fb82",
          "addSpecialty(string)": "60927bdd",
          "addTrophyToManager(uint256)": "3b48eda8",
          "compareManagers(address,address)": "aec3e0be",
          "getManager(address)": "3d584063",
          "getManagerTrophyCount(address)": "d422e3f8",
          "getManagerWinRate(address)": "5de122cb",
          "improveManagerSkills(uint256,uint256,uint256)": "f30b6da3",
          "improveSpecificSkill(string,uint256)": "60cb9ca9",
          "isEligibleForPromotion(address)": "fdae5972",
          "managerCount()": "103b7397",
          "managers(address)": "fdff9b4d",
          "registeredManagers(address)": "8095dded",
          "updateCareerStats(uint256,uint256,uint256,uint256,uint256,uint256)": "bf77e3bd",
          "updateFinancials(uint256)": "ac812a12",
          "updateManagerStyle(string[],string)": "1737e662",
          "updatePersonalInfo(uint256)": "486e2b64"
        }
      }
    }
  }
}